:020000040800F2
:1000000000000120894E0008D1490008D3490008AA
:10001000D5490008D7490008D94900080000000068
:10002000000000000000000000000000DB490008A4
:10003000DD49000800000000DF490008E149000830
:10004000D94E0008D94E0008D94E0008D94E0008F4
:10005000D94E0008D94E0008D94E0008D94E0008E4
:10006000D94E0008D94E0008D94E0008D94E0008D4
:10007000D94E0008D94E0008D94E0008D94E0008C4
:10008000D94E0008D94E0008D94E0008D94E0008B4
:10009000D94E0008D94E0008D94E0008D94E0008A4
:1000A000D94E0008D94E0008D94E0008D94E000894
:1000B000D94E00080000000000000000D94E0008E2
:1000C000D94E0008D94E0008D94E0008D94E000874
:1000D000D94E0008D94E0008D94E0008D94E000864
:1000E000D94E0008D94E00080000000000000000B2
:1000F0000000000000000000000000000000000000
:1001000000000000D94E000800000000D94E000891
:100110000000000000000000D94E0008D94E000881
:10012000D94E0008D94E0008D94E0008D94E000813
:10013000D94E000800000000000000000000000090
:10014000D94E0008D94E0008D94E0008F1490008E0
:10015000D94E0008D94E0008D94E0008D94E0008E3
:10016000D94E0008D94E0008D94E00080000000002
:10017000D94E0008D94E0008D94E0008D94E0008C3
:0C018000D94E0008D94E0008D94E0008E6
:1001900010B5054C237833B9044B13B10448AFF3C1
:1001A00000800123237010BDFC0700200000000028
:1001B000308A000808B5034B1BB103490348AFF36D
:1001C000008008BD0000000000080020308A000800
:1001D00001F0FF01102A2BDB10F0070F08D010F8F8
:1001E000013B013A8B422DD010F0070F42B3F6D1FC
:1001F000F0B441EA012141EA014122F007047FF015
:1002000000070023F0E80256083C85EA010586EA6B
:10021000010685FA47F5A3FA87F586FA47F6A5FAA7
:1002200087F68EB9EED1F0BC01F0FF0102F00702B3
:1002300032B110F8013B013A83EA010313B1F8D15E
:100240000020704701387047002D06BF354603383F
:10025000073815F0010F07D1013015F4807F02BF78
:10026000013015F4C03F0130F0BC0138704700BFC9
:10027000034613F8012B002AFBD1181A01387047E6
:1002800081F0004102E000BF83F0004330B54FEA47
:1002900041044FEA430594EA050F08BF90EA020FB4
:1002A0001FBF54EA000C55EA020C7FEA645C7FEA47
:1002B000655C00F0E2804FEA5454D4EB5555B8BF6A
:1002C0006D420CDD2C4480EA020281EA030382EADB
:1002D000000083EA010180EA020281EA0303362D6D
:1002E00088BF30BD11F0004F4FEA01314FF4801C40
:1002F0004CEA113102D0404261EB410113F0004F52
:100300004FEA03334CEA133302D0524263EB430308
:1003100094EA050F00F0A780A4F10104D5F1200EA6
:100320000DDB02FA0EFC22FA05F2801841F1000101
:1003300003FA0EF2801843FA05F359410EE0A5F1D5
:1003400020050EF1200E012A03FA0EFC28BF4CF006
:10035000020C43FA05F3C01851EBE37101F00045BC
:1003600007D54FF0000EDCF1000C7EEB00006EEBC9
:100370000101B1F5801F1BD3B1F5001F0CD3490853
:100380005FEA30004FEA3C0C04F101044FEA4452AA
:1003900012F5800F80F09A80BCF1004F08BF5FEA31
:1003A000500C50F1000041EB045141EA050130BD11
:1003B0005FEA4C0C404141EB010111F4801FA4F1B4
:1003C0000104E9D191F0000F04BF01460020B1FA09
:1003D00081F308BF2033A3F10B03B3F120020CDA41
:1003E0000C3208DD02F1140CC2F10C0201FA0CF01F
:1003F00021FA02F10CE002F11402D8BFC2F1200C84
:1004000001FA02F120FA0CFCDCBF41EA0C01904039
:10041000E41AA2BF01EB0451294330BD6FEA040482
:100420001F3C1CDA0C340EDC04F11404C4F120026D
:1004300020FA04F001FA02F340EA030021FA04F37F
:1004400045EA030130BDC4F10C04C4F1200220FAD6
:1004500002F001FA04F340EA0300294630BD21FA14
:1004600004F0294630BD94F0000F83F4801306BFDA
:1004700081F480110134013D4EE77FEA645C18BFCE
:100480007FEA655C29D094EA050F08BF90EA020F65
:1004900005D054EA000C04BF1946104630BD91EA5D
:1004A000030F1EBF0021002030BD5FEA545C05D160
:1004B0004000494128BF41F0004130BD14F580049F
:1004C0003CBF01F5801130BD01F0004545F0FE4113
:1004D00041F470014FF0000030BD7FEA645C1ABF48
:1004E000194610467FEA655C1CBF0B46024650EA7F
:1004F000013406BF52EA033591EA030F41F40021AB
:1005000030BD00BF90F0000F04BF0021704730B530
:100510004FF4806404F132044FF000054FF0000105
:1005200050E700BF90F0000F04BF0021704730B5C6
:100530004FF4806404F1320410F0004548BF40429B
:100540004FF000013EE700BF42004FEAE2014FEAF0
:1005500031014FEA02701FBF12F07F4393F07F4FCB
:1005600081F06051704792F0000F14BF93F07F4FFD
:10057000704730B54FF4607401F0004521F0004140
:1005800020E700BF50EA010208BF704730B54FF0C6
:1005900000050AE050EA010208BF704730B511F0CB
:1005A000004502D5404261EB41014FF4806404F103
:1005B00032045FEA915C3FF4DCAE4FF003025FEA85
:1005C000DC0C18BF03325FEADC0C18BF033202EB0D
:1005D000DC02C2F1200300FA03FC20FA02F001FA67
:1005E00003FE40EA0E0021FA02F11444C1E600BF06
:1005F00070B54FF0FF0C4CF4E06C1CEA11541DBFB9
:100600001CEA135594EA0C0F95EA0C0F00F0DEF883
:100610002C4481EA030621EA4C5123EA4C5350EA68
:10062000013518BF52EA033541F4801143F48013B9
:1006300038D0A0FB02CE4FF00005E1FB02E506F04A
:100640000042E0FB03E54FF00006E1FB03569CF09F
:10065000000F18BF4EF0010EA4F1FF04B6F5007FA5
:1006600064F5407404D25FEA4E0E6D4146EB060617
:1006700042EAC62141EA55514FEAC52040EA5E50A0
:100680004FEACE2EB4F1FD0C88BFBCF5E06F1ED84A
:10069000BEF1004F08BF5FEA500E50F1000041EB81
:1006A000045170BD06F0004646EA010140EA02002E
:1006B00081EA0301B4EB5C04C2BFD4EB0C0541EA50
:1006C000045170BD41F480114FF0000E013C00F365
:1006D000AB8014F1360FDEBF002001F0004170BD89
:1006E000C4F10004203C35DA0C341BDC04F11404A2
:1006F000C4F1200500FA05F320FA04F001FA05F22E
:1007000040EA020001F0004221F0004110EBD370FA
:1007100021FA04F642EB06015EEA430E08BF20EA26
:10072000D37070BDC4F10C04C4F1200500FA04F3C9
:1007300020FA05F001FA04F240EA020001F000415B
:1007400010EBD37041F100015EEA430E08BF20EACE
:10075000D37070BDC4F1200500FA05F24EEA020E16
:1007600020FA04F301FA05F243EA020321FA04F045
:1007700001F0004121FA04F220EA020000EBD370FC
:100780005EEA430E08BF20EAD37070BD94F0000FFC
:100790000FD101F00046400041EB010111F4801F30
:1007A00008BF013CF7D041EA060195F0000F18BFE1
:1007B000704703F00046520043EB030313F4801F1D
:1007C00008BF013DF7D043EA0603704794EA0C0FD7
:1007D0000CEA135518BF95EA0C0F0CD050EA4106ED
:1007E00018BF52EA4306D1D181EA030101F000416A
:1007F0004FF0000070BD50EA410606BF1046194692
:1008000052EA430619D094EA0C0F02D150EA01369D
:1008100013D195EA0C0F05D152EA03361CBF1046DE
:1008200019460AD181EA030101F0004141F0FE417D
:1008300041F470014FF0000070BD41F0FE4141F401
:10084000780170BD70B54FF0FF0C4CF4E06C1CEA01
:1008500011541DBF1CEA135594EA0C0F95EA0C0FB6
:1008600000F0A7F8A4EB050481EA030E52EA033571
:100870004FEA013100F088804FEA03334FF0805592
:1008800045EA131343EA12634FEA022245EA1115BF
:1008900045EA10654FEA00260EF000419D4208BF70
:1008A000964244F1FD0404F5407402D25B084FEA1D
:1008B0003202B61A65EB03055B084FEA32024FF4C9
:1008C00080104FF4002CB6EB020E75EB030E22BF26
:1008D000B61A754640EA0C005B084FEA3202B6EBE6
:1008E000020E75EB030E22BFB61A754640EA5C0095
:1008F0005B084FEA3202B6EB020E75EB030E22BF25
:10090000B61A754640EA9C005B084FEA3202B6EB25
:10091000020E75EB030E22BFB61A754640EADC00E4
:1009200055EA060E18D04FEA051545EA16754FEA46
:1009300006164FEAC30343EA52734FEAC2025FEA64
:100940001C1CC0D111F4801F0BD141EA00014FF0F3
:1009500000004FF0004CB6E711F4801F04BF0143C4
:100960000020B4F1FD0C88BFBCF5E06F3FF6AFAEE0
:10097000B5EB030C04BFB6EB020C5FEA500C50F170
:10098000000041EB045170BD0EF0004E4EEA1131F3
:1009900014EB5C04C2BFD4EB0C0541EA045170BDFA
:1009A00041F480114FF0000E013C90E645EA060E3E
:1009B0008DE60CEA135594EA0C0F08BF95EA0C0F6C
:1009C0003FF43BAF94EA0C0F0AD150EA01347FF4B4
:1009D00034AF95EA0C0F7FF425AF104619462CE78B
:1009E00095EA0C0F06D152EA03353FF4FDAE1046EE
:1009F000194622E750EA410618BF52EA43067FF43F
:100A0000C5AE50EA41047FF40DAF52EA43057FF4CE
:100A1000EBAE12E74FF0FF3C06E000BF4FF0010CD9
:100A200002E000BF4FF0010C4DF804CD4FEA410C3D
:100A30007FEA6C5C4FEA430C18BF7FEA6C5C1BD00A
:100A400001B050EA410C0CBF52EA430C91EA030F8B
:100A500002BF90EA020F0020704710F1000F91EAE8
:100A6000030F58BF994208BF90422CBFD8176FEAB6
:100A7000E37040F0010070474FEA410C7FEA6C5C84
:100A800002D150EA013C07D14FEA430C7FEA6C5C8B
:100A9000D6D152EA033CD3D05DF8040B704700BFB7
:100AA0008446104662468C461946634600E000BF05
:100AB00001B5FFF7B7FF002848BF10F1000F01BDD7
:100AC0004DF808EDFFF7F4FF0CBF012000205DF8A2
:100AD00008FB00BF4DF808EDFFF7EAFF34BF012027
:100AE00000205DF808FB00BF4DF808EDFFF7E0FFC0
:100AF00094BF012000205DF808FB00BF4DF808ED11
:100B0000FFF7CEFF94BF012000205DF808FB00BF77
:100B10004DF808EDFFF7C4FF34BF012000205DF859
:100B200008FB00BF4FEA410C7FEA6C5C02D150EA3F
:100B3000013C0AD14FEA430C7FEA6C5C02D152EAD5
:100B4000033C02D14FF0000070474FF001007047A6
:100B50004FEA410212F5001215D211D56FF47873E5
:100B6000B3EB625212D94FEAC12343F0004343EA88
:100B7000505311F0004F23FA02F018BF4042704763
:100B80004FF00000704750EA013005D111F00040ED
:100B900008BF6FF0004070474FF00000704700BF83
:100BA0004FEA4102B2F1E04324BFB3F5001CDCF18F
:100BB000FE5C0DD901F0004C4FEAC0024CEA5070C7
:100BC000B2F1004F40EB830008BF20F001007047F6
:100BD00011F0804F21D113F13872BCBF01F00040F9
:100BE000704741F480114FEA5252C2F11802C2F12B
:100BF000200C10FA0CF320FA02F018BF40F00100AC
:100C00004FEAC1234FEAD32303FA0CFC40EA0C005D
:100C100023FA02F34FEA4303CCE77FEA625307D19A
:100C200050EA01331EBF4FF0FE4040F440007047D1
:100C300001F0004040F0FE4040F40000704700BF6B
:100C400053B94AB9002908BF00281CBF4FF0FF3133
:100C50004FF0FF3000F07AB9ADF1080C6DE904CE29
:100C600000F006F8DDF804E0DDE9022304B0704787
:100C70002DE9F0478C460D460446089E002B51D1C5
:100C80008A4217466DD9B2FA82FEBEF1000F0BD030
:100C9000CEF1200C01FA0EF520FA0CFC02FA0EF748
:100CA0004CEA050C00FA0EF44FEA174A250CBCFB7F
:100CB000FAF81FFA87F90AFB18CC45EA0C4508FB3D
:100CC00009F3AB420AD9ED1908F1FF3280F0238114
:100CD000AB4240F22081A8F102083D44ED1AA4B2D3
:100CE000B5FBFAF00AFB105544EA054400FB09F98C
:100CF000A14509D9E41900F1FF3380F00A81A1452B
:100D000040F2078102383C44A4EB090440EA084061
:100D10000021002E61D024FA0EF4002334607360A9
:100D2000BDE8F0878B4207D9002E54D0002186E819
:100D300021000846BDE8F087B3FA83F1002940F0AE
:100D40008E80AB4202D3824200F2FA80841A65EBB5
:100D500003050120AC46002E3FD086E81010BDE808
:100D6000F08712B90127B7FBF2F7B7FA87FEBEF199
:100D7000000F34D1EB1B3A0C1FFA87FC0121B3FBA7
:100D8000F2F8250C02FB183345EA03450CFB08F387
:100D9000AB4207D9ED1908F1FF3002D2AB4200F2A5
:100DA000D1808046ED1AA3B2B5FBF2F002FB1055DC
:100DB00043EA05440CFB00FCA44507D9E41900F103
:100DC000FF3302D2A44500F2B8801846A4EB0C040D
:100DD00040EA08409DE731463046BDE8F087CEF155
:100DE000200405FA0EF307FA0EF720FA04F83A0C7D
:100DF00025FA04F448EA0308B4FBF2F14FEA184577
:100E000002FB11441FFA87FC45EA044501FB0CF381
:100E1000AB4200FA0EF409D9ED1901F1FF3080F070
:100E20008A80AB4240F2878002393D44EB1A1FFAB8
:100E300088F5B3FBF2F002FB103345EA034500FBF3
:100E40000CF3AB4207D9ED1900F1FF386FD2AB427A
:100E50006DD902383D44EB1A40EA01418FE7C1F1F8
:100E6000200722FA07F88B4005FA01F448EA030349
:100E700020FA07FE4FEA134CFD404EEA040EB5FB84
:100E8000FCF94FEA1E440CFB19551FFA83F844EA9B
:100E9000054509FB08F4AC4202FA01F200FA01FA36
:100EA00008D9ED1809F1FF3043D2AC4241D9A9F17C
:100EB00002091D442D1B1FFA8EFEB5FBFCF00CFB36
:100EC00010554EEA054400FB08F8A04507D9E41880
:100ED00000F1FF3529D2A04527D902381C4440EA49
:100EE0000940A4EB0804A0FB02894C45C6464D46C8
:100EF00015D312D056B1BAEB0E0364EB050404FA15
:100F000007F7CB401F43CC40376074600021BDE839
:100F1000F0871846F8E69046E0E6C245EAD2B8EB1C
:100F2000020E69EB03050138E4E72846D7E740469F
:100F300091E78146BEE7014678E702383C4445E741
:100F4000084608E7A8F102083D442BE7704700BFB8
:100F500010B5084B044618684FF47A73B0FBF3F0F1
:100F600000F084F8002221464FF0FF3000F03EF8F8
:100F7000002010BD3401002008B5032000F024F843
:100F80000020FFF7E5FF03F097FC002008BD0000FC
:100F9000024A136801331360704700BF840A0020BF
:100FA000014B1868704700BF840A002038B504461A
:100FB000FFF7F6FF631C054618BF0134FFF7F0FF8B
:100FC000401B8442FAD838BD074AD36823F4E06353
:100FD0001B041B0C43F0BF63000243F4003300F416
:100FE000E0600343D360704700ED00E0174B30B57D
:100FF000DC68C4F30224C4F10703251D042B28BFB9
:101000000423062D4FF0010505FA03F303F1FF3326
:101010008CBF033C00241940A14005FA04F4013CB4
:101020002240002842EA01024FEA0212AFBF00F15B
:10103000604000F00F00064BD2B2A5BF00F5614042
:10104000D2B21A5480F8002330BD00BF00ED00E09A
:1010500014ED00E04209012300F01F0003FA00F044
:10106000014B43F82200704700E100E00138B0F185
:10107000807F0AD2064B074A5860F02182F823107D
:101080000020072298601A6070470120704700BF57
:1010900010E000E000ED00E0044B1A6804280CBFEB
:1010A00042F0040222F004021A60704710E000E0EF
:1010B000704708B5FFF7FCFF08BD00002DE9F74FAA
:1010C000D1F80080DFF874915A4A002338FA03F40B
:1010D00002D103B0BDE8F08F012404FA03FA18EA44
:1010E0000A0500F09C804C6824F0100BBBF1020F45
:1010F00014D14FEAD30E00EB8E0E03F0070CDEF88E
:1011000020604FEA8C0C0F2707FA0CF726EA070736
:101110000E6906FA0CF63E43CEF820604FEA430C07
:101120000327066807FA0CF7FF4304F0030E3E405E
:101130000EFA0CFE0BF1FF3B4EEA0606BBF1010F67
:10114000066011D8866806EA070BCE6806FA0CFE20
:101150004EEA0B068660466826EA0A0AC4F30016C1
:101160009E4046EA0A064660C66837408E6806FA20
:101170000CF63743E600C76051D5D9F8606046F0F9
:101180000106C9F86060D9F8606023F0030707F131
:10119000804706F0010607F58037019603F0030C3F
:1011A000019EBE684FEA8C0C4FF00F0E0EFA0CFE3B
:1011B000B0F1904F26EA0E0E33D01F4EB04232D01F
:1011C00006F58066B04230D006F58066B0422ED07B
:1011D00006F58066B04214BF0726042606FA0CF610
:1011E00046EA0E06BE601668EF4314F4803F0CBF5B
:1011F0003E402E431660566814F4003F0CBF3E403C
:101200002E435660966814F4801F0CBF3E402E4358
:101210009660D668A40254BF3E402E43D660013388
:1012200054E70026DAE70126D8E70226D6E70326A8
:10123000D4E700BF00040140000400480010024051
:101240000369194214BF0120002070470AB181616F
:1012500070478162704743695940416170472DE989
:10126000F041044686B000286BD090F8293403F092
:10127000FF021BB980F8282403F040FC2546032315
:1012800055F8100B84F8293401F0CFFC0FCD6E46D1
:101290000FC62B68336004F1040898E80E0020683C
:1012A00001F0B1FC0021206801F0C9FC00212246B8
:1012B000234604F110050126084683F82810D98634
:1012C00001310F2983F8296083F82B009863D863D4
:1012D000186403F12003F0D100231F4682F828325E
:1012E00001330F2B82F8297282F82B72C2F8387200
:1012F000C2F83C72C2F8407202F12002EED10FCD6A
:101300006E460FC62B68336098E80E00206801F027
:1013100098FC012384F8247084F82934E369012BB4
:1013200002D1204600F0B0FB236A012B02D12046F7
:1013300000F096FB206801F070FF002006B0BDE8C9
:10134000F0810120FAE790F82834012B10B504460B
:101350000CD0012380F82834006801F053FF206886
:1013600001F058FC002084F8280410BD022010BDB4
:1013700090F82824012A10B504460BD0012280F8E9
:10138000282484F82410006801F036FF002084F837
:10139000280410BD022010BD70B5044601F00F00F6
:1013A00011F0800FC5B24FF0200101FB054115BFC0
:1013B00004EB451504EB4515283101F50A7115BFFD
:1013C0000126002685F8296085F829620A614A7895
:1013D000CB70C0B2087002B1C881022B04BF0023D9
:1013E0000B7194F82834012B09D0012384F8283498
:1013F000206801F043FC002084F8280470BD02201E
:1014000070BD01F00F0311F0800FDAB24FF0200130
:1014100001FB020110B5044619BF00EB421228314E
:1014200001F50A7104EB421215BF0120002082F879
:10143000290082F829020B7094F82834012B09D076
:10144000012384F82834206801F08EFD002084F800
:10145000280410BD022010BD70B501F00F0100EB93
:1014600041164C01002586F8281204F50A71014442
:10147000C6F83C22C6F84032C6F8445286F82952D3
:10148000006801F0EBFE284670BD01F00F0100EB93
:101490004111B1F84402704770B501F00F0100EB43
:1014A00041154C012B640026012385F8281004F116
:1014B00028010144EA636E6485F82930006801F070
:1014C000CDFE304670BD00002DE9F84F044600689F
:1014D00001F0ABFE000400F13082206801F0A5FEAF
:1014E00041050FD52268B2F8443023F480631B0411
:1014F0001B0C2046A2F8443003F037FB00212046A5
:10150000FFF736FF206801F090FE430408D52268FB
:10151000B2F8443023F480431B041B0CA2F844307F
:10152000206801F082FE870408D52268B2F84430B2
:1015300023F400531B041B0CA2F84430206801F074
:1015400074FEC60426D52268B2F8403023F00403A6
:101550001B041B0CA2F84030B2F8403023F0080303
:101560001B041B0CA2F8403094F86034012B05D109
:10157000002184F86014204603F0FCFB204603F0B1
:1015800011FB2268B2F8443023F480531B041B0C77
:10159000A2F84430206801F048FE05051DD52068FA
:1015A000B0F840309BB243F00803A0F84030B0F8E8
:1015B000443023F400631B041B0CA0F84430B0F843
:1015C00040309BB243F00403A0F8403001F02DFE00
:1015D000C00402D4204603F0D5FA206801F025FEAD
:1015E000010629D52368B3F8442022F080021204B2
:1015F000120CA3F8442094F86024002A40F0A28141
:10160000B3F8402092B242F00402A3F84020B3F8AD
:10161000402092B242F00802A3F84020B3F85430C0
:10162000C3F38D03012103F03C0384F86014C4F874
:101630006434204603F09EFB206801F0F6FD82052D
:101640000BD52268B2F8443023F400731B041B0C42
:10165000A2F84430204603F084FA206801F0E5FD4A
:10166000C30508D52268B2F8443023F480731B0404
:101670001B0CA2F84430BDE8F88FB0F8441089B2D2
:1016800011F00F0740F0A580038811F010019BB204
:1016900029D103EA0A030380B0F8503094F82820D7
:1016A00000F2024010FA83F030F83230E26BC3F3FC
:1016B000090363641344E363204603F04BFA94F890
:1016C000243053B1226C42B994F82430216843F09D
:1016D0008003A1F84C3084F824202068B0F844300E
:1016E0001A04CAD4F9E61A051ED5B0F8503094F899
:1016F000282200F2064111FA83F304F5866133F8DB
:101700003230B4F82E22C3F30903C4F8443201F096
:101710008DFE2268138823F070031B051B0D1380B8
:10172000204603F009FAD8E71F04D6D5038823F032
:1017300070031B051B0D0380B0F8503094F828226D
:1017400000F2064111FA83F333F83230C3F3090390
:10175000C4F8443263B1B4F82E22D4F83C1201F03C
:1017600065FED4F83C32D4F844221344C4F83C3229
:101770000021204603F0E6F92268D4F83832B2F8A6
:10178000501002F2064589B253B96B5A23F44063F4
:101790009B049B0C6FEA43436FEA53436B5207E091
:1017A0003D2B11D85808DE0748BF0130800268522F
:1017B00013889BB203EA0B0383F4405343F40043C2
:1017C00043F08003138088E760485B0940EA832385
:1017D000E4E73EB230F826901FFA89F919F4004F79
:1017E0003ED030F8263023F070031B051B0D4FEA66
:1017F000471820F8263004EB080191F83432002B0A
:1018000057D1B0F8503091F8282200F2064515FA69
:1018100083F333F83250C5F3090535B1B1F82E2200
:10182000D1F83C122B4601F001FE04EB461304EB09
:101830000801D3F844222A44C3F84422D1F83C22B8
:101840002A44C1F83C22D3F840321BB1D1F8380207
:10185000854269D2A044204698F8281203F072F914
:1018600019F0800F3FF439AF236833F8262092B285
:1018700002EA0A0223F8262004EB4717B3F85020A7
:1018800097F8281003F2024313FA82F304EB46168A
:1018900033F83120C2F309027264FB6B97F8281009
:1018A0001A44FA63336C2046002B43D103F052F9FB
:1018B00013E791F8282213B230F8233013F4804F45
:1018C000B0F8503022D000F2024515FA83F333F815
:1018D0003250C5F3090535B1B1F830222B46D1F8A5
:1018E0003C1201F0A3FD04EB0803226893F82812D0
:1018F00032F821309BB223F4E04323F0700343F429
:10190000004343F0C00322F821308EE700F2064581
:1019100015FA83F333F83250C5F30905002DE2D0F0
:101920002B46B1F83222DAE791F828122046FFF769
:1019300093FD95E7FFF7B0FDCFE6DFF814A0DFF8E1
:1019400014B0CAE6204603F01DF975E60080FFFFDB
:101950000F8FFFFF8FBFFFFF38B5436801F00F0502
:101960009D4204462DD811F0800F4FF020031ED069
:1019700000EB451203FB05030121283382F82910EF
:1019800001229A701D7094F8281491421BD084F89B
:1019900028241946206801F0C7FB25B904F58661A3
:1019A000206801F046FC002084F8280438BD03FBC1
:1019B000010300EB4111002203F50A7381F829228B
:1019C000DEE7012038BD022038BD38B5436801F09C
:1019D0000F029A42044627D811F0800F4FF02001E1
:1019E00001FB02014FEA421319BF1B18283101F510
:1019F0000A711B1914BF012000204FF0000514BF0D
:101A000083F8290083F829028D700A7094F828342D
:101A1000012B0BD0012384F82834206801F0A5FBAA
:101A200084F82854284638BD012038BD022038BD2E
:101A300011F0800F1BBF01F00F0100EB411000EB14
:101A40004110283008BF00F50A701AB90273C3802C
:101A500000207047012203811B0C02734381F7E7CA
:101A600002680123C0F86C34B2F858309BB243F0DE
:101A70000103A2F85830B2F858309BB243F0020389
:101A8000A2F8583000207047026803460121C0F8D0
:101A90006814002083F86004B2F854309BB20B4302
:101AA000A2F85430B2F854309BB243F00203A2F8CB
:101AB00054307047024A136843F4807313607047D0
:101AC00000700040024B186800F4C060704700BF0F
:101AD00000700040164B1A68B0F5007F02F4C06237
:101AE0001AD1B2F5007F13D01A68124922F4C062ED
:101AF00042F400721A60104A1268B2FBF1F132220D
:101B00004A4312B15969490504D45B695B050DD498
:101B100000207047013AF4E7B2F5806F1FBF1A68E2
:101B200022F4C06242F480621A60F1E70320704739
:101B30000070004040420F0034010020024A536808
:101B400043F48063536070470070004037B51E4D0A
:101B5000AB6DDA00044618D5FFF7B4FFB0F5007F8F
:101B600023D1802C29D9A02C8CBF02200120174A18
:101B7000136823F0070303431360136803F007039C
:101B8000181A18BF012003B030BDAB6D43F080536D
:101B9000AB65AB6D03F080530193019BFFF792FFA0
:101BA000AB6D23F08053AB65D8E7802C07D808D005
:101BB000A4F1700358425841D9E70020D7E7032029
:101BC000D5E70220D3E700BF00100240002002400A
:101BD0002F4B9A6812F00C0F10B509D09A6802F0DA
:101BE0000C020C2A2DD1DA6802F00302012A28D156
:101BF0001A682849120755BFD3F894201A68C2F30F
:101C00000322C2F3031251F82220996811F00C0F3D
:101C10000CBF10460020996801F00C010C2930D14E
:101C2000DC68D868C0F30210411C04F003000228ED
:101C300019D0032826D0B2FBF1F2D868C0F30620F1
:101C400017E09A6802F00C02042A07D09A6802F0A2
:101C50000C02082A04D110480022DCE70F48FBE7F9
:101C600000200246D7E7DA680C48C2F30622B0FB30
:101C7000F1F0DB68C3F34163013350435B00B0FB19
:101C8000F3F010BDDA680448C2F30622EFE700BFA4
:101C9000001002408C8C000800127A000024F4002E
:101CA0002DE9F341054608B901208DE00368D80607
:101CB00038D5AB4CA36813F00C0F61D1236899079A
:101CC00002D5AB69002BEFD02368286A1A0756BFEC
:101CD000D4F8943023681B0903F0F00383423AD20E
:101CE000FFF734FF0028DFD1236843F008032360A7
:101CF00023682A6A23F0F003134323606368EA69C8
:101D000023F47F4343EA02236360FFF761FFA36884
:101D1000944AC3F30313D35CD840934B186000205C
:101D2000FFF716F92B68D80761D42B68990700F1E3
:101D3000A9802B681A0700F1E7802B685B0700F188
:101D400015812B689A0600F17C81AA6A002A40F06E
:101D5000A381002038E0236843F008032360236850
:101D600023F0F003034323606368EA6923F47F43AD
:101D700043EA02236360FFF7E9FE0028C5D093E73A
:101D8000AB6923B3236843F001032360FFF708F92D
:101D9000064623689B0711D5236843F00803236098
:101DA00023682A6A23F0F003134323606368EA6917
:101DB00023F47F4343EA02236360B3E7FFF7F0F8BD
:101DC000801B0228E5D9032002B0BDE8F08123681A
:101DD00023F001032360FFF7E3F8064623689F071B
:101DE000A0D5FFF7DDF8801B0228F7D9EBE75C4CA4
:101DF000A36803F00C03082B09D0A36803F00C03BD
:101E00000C2B0BD1E36803F00303032B06D12368EB
:101E10009A038AD56B68002B87D145E76B68B3F5C9
:101E2000803F10D1236843F480332360FFF7B8F874
:101E3000064623689B033FF578AFFFF7B1F8801B98
:101E40006428F6D9BFE7B3F5A02F04D1236843F483
:101E500080232360E6E7226822F480322260226831
:101E600022F480222260002BE0D1FFF799F8064689
:101E700023689F037FF559AFFFF792F8801B642812
:101E8000F6D9A0E7364CA36803F00C03042B09D065
:101E9000A36803F00C030C2B13D1E36803F00303D6
:101EA000022B0ED123685E0503D5EB68002B3FF4AF
:101EB000FBAE63682A6923F0F85343EA0263636068
:101EC00037E7EB687BB1236843F480732360FFF747
:101ED00067F8064623685805EBD4FFF761F8801BC6
:101EE0000228F7D96FE7236823F480732360FFF794
:101EF00057F80646236859057FF51BAFFFF750F8E2
:101F0000801B0228F6D95EE76B69154C9BB1D4F8AB
:101F1000943043F00103C4F89430FFF741F80646CB
:101F2000D4F894309F073FF508AFFFF739F8801BCE
:101F30000228F5D947E7D4F8943023F00103C4F818
:101F40009430FFF72DF80646D4F8943098077FF5C3
:101F5000F4AEFFF725F8801B0228F5D933E700BF60
:101F6000001002407A8C000834010020794CA36DE7
:101F7000D90027D4A36D43F08053A365A36D03F06C
:101F800080530193019B0127734E3368DA051BD5FB
:101F9000AB68012B29D1D4F8903043F00103C4F889
:101FA0009030FEF7FDFF41F288380646D4F89030B5
:101FB000980740D5002F3FF4C4AEA36D23F08053A3
:101FC000A365BEE60027DFE7336843F48073336020
:101FD000FEF7E6FF80463368DB05D9D4FEF7E0FF65
:101FE000A0EB08000228F6D9EDE6052B06D1D4F8BF
:101FF000903043F00403C4F89030CCE7D4F890203C
:1020000022F00102C4F89020D4F8902022F00402BB
:10201000C4F89020002BC4D1FEF7C2FF41F28838EB
:102020000646D4F890309907C4D5FEF7B9FF801B57
:102030004045F6D9C7E6FEF7B3FF801B4045B5D94A
:10204000C1E66B6A434C9BB1D4F8983043F001036E
:10205000C4F89830FEF7A4FF0646D4F898309B07E2
:102060003FF573AEFEF79CFF801B0228F5D9AAE668
:10207000D4F8983023F00103C4F89830FEF790FFAD
:102080000646D4F898309F077FF55FAEFEF788FFCD
:10209000801B0228F5D996E62E4CA36803F00C03AA
:1020A0000C2B3FF401AE2368022A23F080732360D7
:1020B00036D1FEF775FF0646236898012AD4AB6B2C
:1020C0006A6BDB0643EA0223EA6A13432A6B013A8E
:1020D00043EA0213EA6B5208013A43EA42532A6C7C
:1020E0005208013A43EA4263E360236843F0807395
:1020F0002360E36843F08073E360FEF751FF054619
:10210000236899013FF525AEFEF74AFF401B0228E0
:10211000F6D958E6FEF744FF801B0228CCD952E6D8
:1021200023681A015EBFE36823F00303E360E368FA
:1021300023F0887323F48033E360FEF731FF054614
:1021400023689B017FF505AEFEF72AFF401B02289E
:10215000F6D938E600100240007000402DE9F04149
:102160000E46044610B90120BDE8F081404A1368CC
:1021700003F007038B4228D32368D90730D42168A2
:102180008A075AD43A4A136803F007039E425CD385
:1021900011F0040F374D63D10B0706D5AB682269E8
:1021A00023F4605343EAC203AB60FFF711FDAB6851
:1021B000314AC3F30313D35CD840304B186000207E
:1021C000FEF7C6FE0020BDE8F081136823F0070388
:1021D0000B431360136803F007039942C3D1CBE7A5
:1021E0006268244D032A2B681BD113F0007FBAD0FC
:1021F000AB6823F003031343AB60FEF7D1FE41F25B
:1022000088380746AB68626803F00C03B3EB820FB3
:10221000B5D0FEF7C5FEC01B4045F3D90320BDE88D
:10222000F081022A02D113F4003FE0E712B913F063
:10223000020FDCE713F4806FD9E70E4AA0689368B9
:1022400023F0F003034393609CE7136823F0070334
:1022500033431360136803F007039E4283D197E76B
:10226000AB68E26823F4E0631343AB6094E700BF1C
:1022700000200240001002407A8C00083401002047
:10228000014B1868704700BF34010020F8B5444B7B
:10229000DA6812F0030F05460E461C46006839D076
:1022A000DA6802F0030282424BD1002A49D0DB688F
:1022B0006A68C3F302130133934242D1236823F0C7
:1022C00080632360FEF76CFE074623681A0141D441
:1022D000AF68002E45D0012E4FD12269286922F423
:1022E000C002400822F4FE42013842EA072242EAD4
:1022F00040522261236843F080632360FEF750FE62
:10230000064623681B0145D52369AA691343236147
:102310000020F8BD022810D0032814D0012810D1C5
:102320001B689F07F5D5E3686A6823F07303013AD9
:10233000184340EA0210E060C0E71B6813F4806FA6
:10234000F1D10120F8BD1A689103ECD41B6813F495
:10235000802FF5E7FEF724FEC01B0228B5D9032025
:10236000F8BD2269E96822F07842C90641EA0723EC
:1023700022F4FE4213432361BCE72369686923F01A
:10238000C063400823F4FE43013843EA072343EACD
:102390004063F0E7FEF704FE801B0228B1D9DEE7B8
:1023A000001002402DE9F743056815F40065044666
:1023B0000ED0416CB1F5000F5BD0B1F5400F5DD090
:1023C000002966D10430FFF761FF0546002855D08B
:1023D00023689E036DD5AC4EB36DD8005BD4B36D4E
:1023E00043F08053B365B36D03F080530193019BB9
:1023F0000127DFF89882D8F8003043F48073C8F8DA
:102400000030FEF7CDFD8146D8F80030D90544D51F
:10241000002D49D1D6F8903013F4407314D0E26DFA
:10242000934211D0D6F89030D6F8902042F4803202
:10243000C6F89020D6F8902023F4407322F480321E
:10244000C6F89020C6F89030DA0709D5FEF7A8FD47
:1024500041F288398046D6F890309B0740F1EB80F6
:10246000D6F89030E26D23F440731343C6F89030F1
:102470001AE0854AD36843F48033D360824A616CA2
:10248000D2F8883023F440030B43C2F8883000258B
:102490009EE701259CE70027ABE7FEF781FDA0EB57
:1024A00009000228B0D903251FB1B36D23F0805372
:1024B000B3652368D80708D57349206AD1F8882006
:1024C00022F003020243C1F88820990708D56E491B
:1024D000606AD1F8882022F00C020243C1F88820FB
:1024E0005A0708D56849A06AD1F8882022F030023E
:1024F0000243C1F888209F0608D56349E06AD1F8F5
:10250000882022F440620243C1F888209E0508D545
:102510005D49E06BD1F8882022F440220243C1F8E3
:102520008820580508D55849206CD1F8882022F415
:1025300040120243C1F88820590608D55249206B41
:10254000D1F8882022F440520243C1F888201A06AC
:1025500008D54D49606BD1F8882022F440420243EF
:10256000C1F88820DF0508D54749A06BD1F888203D
:1025700022F440320243C1F888209E040FD5424A1B
:10258000A16CD2F8883023F040630B43B1F1006FA7
:10259000C2F8883057D1D36843F48013D3602368DE
:1025A00018030FD5384AE16CD2F8883023F0406325
:1025B0000B43B1F1006FC2F888304FD1D36843F4B8
:1025C0008013D360236859030FD52F4A216DD2F8A9
:1025D000883023F040630B43B1F1006FC2F88830BC
:1025E00047D1D36843F48013D36023685A0412D5CB
:1025F0002549626DD1F8883023F040531343B2F17E
:10260000805FC1F8883006D10221201DFFF73EFE11
:10261000002818BF054623681B0408D51A4AA16D77
:10262000D2F8883023F080430B43C2F88830284624
:1026300003B0BDE8F083FEF7B3FCA0EB080048450B
:102640007FF609AF2FE7B1F1806FA8D10121201DDE
:10265000FFF71CFE002818BF0546A0E7B1F1806F08
:10266000B0D10121201DFFF711FE002818BF05463B
:10267000A8E7B1F1806FB8D10121201DFFF706FE58
:10268000002818BF0546B0E7001002400070004067
:10269000024A136843F004031360704700100240BD
:1026A00003685A6822F0E0025A604268B2F5827FFD
:1026B0000AD18268B2F5004F02D0B2F5806F03D123
:1026C0001A6822F040021A60826AB2F5005F07D1F0
:1026D0001A6822F400521A601A6842F400521A6012
:1026E000012380F85D30002380F85C3003207047C0
:1026F00070B505460C4616462B68986810F08000A9
:102700000DD0621CF9D024B92846BDE87040FFF70F
:10271000C7BFFEF745FC801B8442EDD8F4E770BDCF
:10272000F7B506460C4615461F46316888682040B6
:102730000ED0B4F5C06F01BF0A7BD2B28DF807206E
:102740009DF807306B1CF1D025B93046FFF7A8FF84
:1027500003B0F0BDFEF724FCC01B8542E5D8F4E7CA
:1027600070B513460D4616460A464FF4C05104464E
:10277000FFF7D6FF28B1236E43F020032366032022
:102780000FE0324629462046FFF7B2FF0028F2D17B
:1027900033462A464FF4C0612046FFF7C1FF0028A8
:1027A000E9D170BD70B5044600284AD00023836289
:1027B00090F85D3003F0FF021BB980F85C2002F056
:1027C000C1F80223216884F85D300B68E26823F0C9
:1027D0004003B2F5E06F0B604FF000032ED91846AE
:1027E000B2F5706F18BFA362236B2BB9B2F5E06F1F
:1027F0008CBF022301232363A6686368A569334362
:102800002669334366693343E6693343266A3343B3
:10281000A66A334305F4007633430B60636A1A43B8
:10282000636B2D0C1A4305F004052A430243012370
:1028300000204A60206684F85D3070BD4FF48050FF
:10284000D0E7012070BD2DE9F3411E4690F85C30C1
:10285000012B04460D46904600F0B180012380F81C
:102860005C30FEF79DFB074694F85D00C0B201287E
:1028700040F0A380002D57D0B8F1000F54D00323AF
:1028800084F85D30002323662364A4F83E80A4F816
:102890004430A4F846302365E364A3682068A56348
:1028A000B3F5004F08BF0368A4F83C8004BF43F4AD
:1028B0008043036003685B065EBF036843F0400328
:1028C0000360E368B3F5E06F63683ED91BB1E38F43
:1028D0009BB2012B06D135F8023BC360E38F013B6D
:1028E0009BB2E387E38F9BB2A3B93A4631462046B9
:1028F000FFF736FF00285DD1A36833B90193236841
:10290000DA6801929B680193019B206E003018BF2A
:10291000012009E023689A68900703D535F8022B57
:10292000DA60DBE74EB90320012384F85D30002331
:1029300084F85C3002B0BDE8F081711CD2D0FEF7A3
:102940002FFBC01B8642CDD8EDE71BB1E38F9BB2B6
:10295000012B0AD1E38F9BB2012B16D935F8023B2C
:10296000C360E38F023B9BB2E387E38F9BB2002BF4
:10297000BBD023689A68920712D5E28F92B2012ADF
:102980000BD935F8022BDA60EBE72B780373E38F72
:10299000013B9BB2E3870135E7E72A781A73F6E734
:1029A000002EC0D0731CE0D0FEF7FAFAC01B86429E
:1029B000DBD8B8E7202323669EE70220B4E7022095
:1029C000B8E72DE9F8431F4690F85C30DDF8208029
:1029D000012B04460D46164600F01281012380F8B3
:1029E0005C30FEF7DDFA94F85D306168DBB2012BF4
:1029F00081460AD0B1F5827F40F00081A268002AAA
:102A000040F0FC80042B40F0F980002D4BD0002ECC
:102A100049D0002F47D094F85D30E0682664042B3D
:102A20001CBF052384F85D300023B0F5E06F2366FA
:102A3000E364A4F846702365A4F84470A563E787AF
:102A4000A787236804D8B4F8462092B2012A2CD96B
:102A50005A6822F480525A601A6857065EBF1A6894
:102A600042F040021A60B0F5E06F56D919B1E28F1A
:102A700092B2012A06D135F8022BDA60E38F013BCE
:102A80009BB2E3870127E38F9BB293B9B4F846303A
:102A90009BB273B94A4641462046FFF761FE0028C3
:102AA00033D02023236601202FE05A6842F480525D
:102AB000D1E777B1E38F9BB25BB123689A68920745
:102AC00007D535F8022BDA60E38F013B9BB2E38731
:102AD0000027B4F846309BB26BB123689A68D007E0
:102AE00009D5DB6826F8023BB4F84630013B9BB2BF
:102AF000A4F846300127B8F1FF3FC4D0FEF750FAE2
:102B0000A0EB09008045BED80320012384F85D3086
:102B1000002384F85C30BDE8F88319B1E28F92B2EB
:102B2000012A0AD1E28F92B2012A4DD935F8022B3F
:102B3000DA60E38F023B9BB2E3870127E38F9BB20E
:102B400023B9B4F846309BB2002BA3D097B1E38FE2
:102B50009BB27BB123689A6891070BD5E28F92B242
:102B6000012A39D935F8022BDA60E38F023B9BB298
:102B7000E3870027B4F846309BB2DBB123689A683C
:102B8000D20717D5B4F8462092B2012A2CD9DA68B8
:102B900026F8022BB4F84620023A92B2A4F8462056
:102BA000B4F8462092B2012A03D85A6842F48052FF
:102BB0005A600127B8F1FF3FC0D0FEF7F1F9A0EB52
:102BC00009008045BAD89FE72A781A73E38F013B42
:102BD0009BB2E3870135B0E72A781A73E38F013B94
:102BE0009BB2E3870135C4E71B7B3370B4F84630F2
:102BF000013B9BB2A4F846300136DAE7022084E7B5
:102C00000220BDE8F88384B001A880E80E0004B07B
:102C100000207047B0F840309BB243F43F4343F08C
:102C20008003A0F8403000207047B0F8403023F413
:102C30007E535B045B0CA0F84030002070470020FE
:102C4000704784B010B503AC84E80E000022012365
:102C5000A0F84030A0F84020A0F84420A0F8502070
:102C6000B0F84030BDE810409BB243F43F4343F01E
:102C70008003A0F8403004B010467047F0B50C78DF
:102C800030F8242022F4EC42034622F07002C87887
:102C90001204120C032850D8DFE800F0024C04495B
:102CA00042F40072002023F824200E78AB4C35B299
:102CB00033F8252092B22240324342F4004242F0DF
:102CC000800223F825200D7B0A78002D40F08280B9
:102CD0004F78CE88082597B3B3F8507015FB0232B1
:102CE00012FA87F226F00106A2F800640D7833F894
:102CF0002520560609D533F8252092B2144044F415
:102D0000004444F0C00423F82540CA780978944C64
:102D100009B2012A33F8212092B202EA040201D05A
:102D200082F0200242F4004242F08002C5E042F408
:102D3000C062B7E742F48062B4E70120B3E7B3F8BA
:102D4000504015FB023212FA84F226F00106A2F876
:102D500004640A78B3F850600C6915FB0232B6B20D
:102D600002F2064254B9945B24F44064A404A40C17
:102D70006FEA44446FEA5444945307E03D2C24D84E
:102D80006508E40748BF0135AD0295530C7833F868
:102D9000242052040DD533F8242022F4E04222F0FE
:102DA00070021204120C42F4404242F0800223F8F6
:102DB0002420097833F8212022F4804222F0700286
:102DC0001204120C82F44052ACE7664D640945EAE5
:102DD0008424D1E712B233F82250ADB2254045F435
:102DE000014545F0800523F822500E78B3F8505085
:102DF000082212FB063616FA85F50E8926F0010622
:102E0000A5F800640E78B3F8505012FB063212FA9F
:102E100085F24D8925F00105A2F804540A784D7811
:102E200012B2002D4CD133F822506F0409D533F87B
:102E30002250ADB22C4044F4404444F0800423F8C6
:102E400022400C7833F8242056060DD533F8242080
:102E500022F4E04222F070021204120C42F400420A
:102E600042F0C00223F824200C7833F8242022F406
:102E7000E04222F070021204120C42F4004242F0CE
:102E8000C00223F824200D7833F8252022F4804254
:102E900022F070021204120C48F2800482F44052B4
:102EA000224323F82520097833F8212022F4E04238
:102EB00022F040021204120C224323F82120F0BD1C
:102EC00033F822506D0409D533F82250ADB22C40AE
:102ED00044F4404444F0800423F822400C7833F852
:102EE000242052060DD533F8242022F4E04222F0AB
:102EF00070021204120C42F4004242F0C00223F8A5
:102F000024200C78164D33F8242022F4E04222F0DD
:102F100070021204120C42F4404242F0800223F884
:102F200024200C78CA7824B2012A33F8242092B2E3
:102F300002EA050218BF82F0200242F4004242F089
:102F4000800223F82420097833F8212022F48042DB
:102F500022F070021204120CE4E600BF8F8FFFFF14
:102F6000BF8FFFFF0080FFFF10B50B780C7B4A7806
:102F70001BB2002C3DD112B330F8232052060DD5E0
:102F800030F8232022F4E04222F070021204120CE6
:102F900042F4004242F0C00220F823200A7830F8C0
:102FA000223023F4E04323F040031B041B0C43F4C2
:102FB000004343F0800320F82230002010BD30F899
:102FC000232054040DD530F8232022F4E04222F0CF
:102FD00070021204120C42F4404242F0800220F8C7
:102FE00023200A7830F8223023F4804323F0700342
:102FF000DBE7002A4ED130F8232052040DD530F8FB
:10300000232022F4E04222F070021204120C42F457
:10301000404242F0800220F823200A7830F8223023
:103020005C060DD530F8223023F4E04323F0700322
:103030001B041B0C43F4004343F0C00320F8223070
:103040000A7830F8223023F4E04323F070031B04A5
:103050001B0C43F4004343F0C00320F822300C78EB
:1030600030F8243023F4804323F070031B041B0C3E
:1030700048F28002134320F82430097830F82130D8
:1030800023F4E04323F040031B041B0C134320F8FC
:10309000213092E730F8232052040DD530F8232058
:1030A00022F4E04222F070021204120C42F4404278
:1030B00042F0800220F823200A7830F822305B06A4
:1030C0000DD530F8223023F4E04323F070031B04C5
:1030D0001B0C43F4004343F0C00320F822300A786D
:1030E00030F8223023F4E04323F070031B041B0C60
:1030F00043F4404343F0800320F822300C7830F84A
:10310000243023F4E04323F040031B041B0C48F25B
:103110008002134320F82430097830F8213023F45A
:10312000804323F07003AFE70A784B7812B28BB17B
:1031300030F8223023F4E04323F040031B041B0C3F
:1031400083F0100343F4004343F0800320F822305F
:103150000020704730F8223023F4804323F07003BE
:103160001B041B0C83F48053ECE70A784B7812B2F3
:1031700023B330F822305B060DD530F8223023F42B
:10318000E04323F070031B041B0C43F4004343F0A3
:10319000C00320F822300A7830F8223023F4E043CC
:1031A00023F040031B041B0C83F0300343F4004363
:1031B00043F0800320F822300020704730F822309E
:1031C0005B040DD530F8223023F4E04323F0700384
:1031D0001B041B0C43F4404343F0800320F82230CF
:1031E0000A7830F8223023F4804323F070031B0464
:1031F0001B0C83F44053D9E711B98023A0F84C305D
:1032000000207047B0F858306FEA43436FEA5343E9
:103210009BB2A0F8583000207047B0F85830C3F384
:103220000E03A0F8583000207047B0F8440080B278
:1032300070470020704710B502F5806201331044DA
:1032400023F0010302460344141A9A420C4400D1AD
:1032500010BD248822F8024BF6E70000F8B50446BA
:1032600048788A690B690F7B01280D466BD19A4219
:1032700097BF0023D21A8B61134688BF8A619EB222
:103280000FBBCA88496933462046FFF7D4FFB4F81C
:1032900050302A7804F2024111FA83F323F83260A5
:1032A0002A7834F8223023F4E04323F040031B044F
:1032B0001B0C83F0300343F4004343F0800324F8F5
:1032C00022300020F8BD09780AB234F8222012F02A
:1032D000400FB4F8502015BF04F2064004F202403B
:1032E00010FA82F210FA82F215BF22F8313022F879
:1032F00031306A892A89696933462046FFF79BFF86
:103300006B782A787BB912B234F8223023F4E04388
:1033100023F070031B041B0C43F4004343F0C00371
:1033200024F82230BCE7012BBAD112B234F8223093
:1033300023F4E04323F070031B041B0C43F44043CD
:1033400043F08003ECE79A4295BF0023D21A8B61C9
:103350008A6198BF13460978A7B9B4F8502004F2DF
:10336000064010FA82F202EBC102002B37D113881B
:1033700023F440639B049B0C6FEA43436FEA53437F
:10338000138034E090B9B4F8502004F2024010FAEF
:1033900082F202EBC102ABB9118821F440618904C9
:1033A000890C6FEA41416FEA514111806A782878AF
:1033B00072BBB4F8502004F2064111FA82F202EB1B
:1033C000C002D2E73D2B05D85908D80748BF0131C4
:1033D0008902EAE71448590940EA8121E5E73D2BD3
:1033E00011D85908DB0748BF0131890211802A78BA
:1033F00034F8223023F4804323F070031B041B0CA9
:1034000083F4405357E75909074B43EA8123B7E751
:10341000012A01BFB4F8501004F2064212FA81F1F9
:1034200021F83030E3E700BF0080FFFF02F5806243
:10343000F0B510445D080A4607462E46023236B9FA
:10344000DB0744BF30F8153001F81530F0BD37F810
:10345000024B02F8024C240A02F8014C013EEDE74F
:10346000D0F8943210B5D0F890425BB194F80002D5
:10347000FF2807D09B6894F8012221469847FF2334
:1034800084F80032002010BD4323038000487047B9
:103490003800002043230380004870477C00002050
:1034A0004323038000487047CC0000200A23038098
:1034B00000487047C000002038B50546D0F890425B
:1034C00001F052FCD5F89032C4F80C024BB1D5F89B
:1034D0009432D4F80402DB6804F5037198470020A5
:1034E00038BD022038BDF8B5D0F89062CEB11423B3
:1034F00003FB0103DA6982B1D0F8984204EB41146E
:10350000A56BB2FBF5F405FB142434B9DC6122464B
:10351000234601F00DFC2046F8BD0020C6F8140239
:10352000F8BD0220F8BD2DE9F7430A78D0F8907273
:103530004FF0000812F0600405460E468DF8058035
:10354000ADF8068028D0202C47D1CC884B78E4B148
:10355000120611D5D0F894223946D2F808901846B0
:103560002246C847F2883946284600F03FFC4446C8
:10357000204603B0BDE8F08387F8003287F80142A7
:103580002246394600F047FCF1E7D0F8942218466D
:1035900095682246A847EBE74F780A2F0DD00B2FEE
:1035A00015D0D7B990F87432032B14D102220DF143
:1035B000060100F01BFC3C46DAE790F87432032B5E
:1035C00009D101220DF1050100F010FCD0E790F8BF
:1035D0007432032BCCD03146284600F0E0FB0224A5
:1035E000C6E738B504460025812101F059FB0121C9
:1035F000E562204601F054FBC4F858518221204670
:1036000001F04EFBD4F8903225644BB1D4F89432DB
:103610005B689847D4F8900201F0D4FBC4F890524C
:10362000002038BD037C2DE9F0410446CBBB4FF4AC
:10363000007302228121012501F022FBE5624FF493
:10364000007329460222204601F01AFBC4F85851A3
:103650000823032282212046012501F011FB256465
:103660004FF4077001F0AAFB0646C4F8900258B365
:10367000D4F894321B68984794F810800027C6F855
:103680001472C6F81872B8F1000F13D14FF400731A
:10369000D6F804222946204601F058FB4046BDE8F2
:1036A000F081402302228121012501F0E9FAE5623F
:1036B0004023C6E74023D6F804222946204601F0DD
:1036C00045FB3846BDE8F0812846BDE8F08119B1D8
:1036D000C0F894120020704702207047D0F8903252
:1036E0000020C3F80812C3F810227047D0F89032B7
:1036F0000020C3F804127047D0F8902210B582B1B0
:10370000D2F81442012374B9C2F81432D2F810323C
:103710000363D2F808229BB2812101F009FB204605
:1037200010BD022010BD184610BDD0F8902210B573
:1037300062B1047C44B94FF40073D2F80422012131
:1037400001F004FB002010BD4023F6E7022010BD6D
:1037500008B580B1D0F88C3213B10023C0F88C3298
:1037600009B1C0F88812012380F87432027001F0A8
:103770002DFA002008BD022008BD19B1C0F88C1236
:10378000002070470220704708B501F06BFA002056
:1037900008BD08B5D0F88C320BB9022008BD1B68F3
:1037A00098470028F9D108BD08B5D0F88C325B687D
:1037B0009847002008BD38B5044600F52075284616
:1037C00000F0D9FA012394F88012C4F86C32B4F8EE
:1037D0008632C4F8703201F01F03012B0ED007D3DC
:1037E000022B10D001F08001204601F067FA03E0BF
:1037F0002946204600F0F0F8002038BD2946204632
:1038000000F00CFAF8E72946204600F02CFAF3E71E
:1038100070B50546164639BBD0F86C32032B1ED165
:10382000D0F84C31D0F8502193420BD99B1A9A42D0
:10383000C0F84C318CBF9AB292B2314600F0FAFA1D
:10384000002070BDD0F88C321B6923B190F874222F
:10385000032A00D19847284600F0F4FAF0E7052B38
:10386000EED101F02BFAEBE7D0F88C329B692BB14B
:1038700090F87422032A01D19847E1E7022070BD35
:1038800070B5134604460E46002948D1D0F86C2284
:10389000022A3DD1056A426A954214D9AA1A0262E7
:1038A000194692B200F0AFFA33461A46194620463E
:1038B00001F04CFA94F87832012B4FF000003AD125
:1038C00084F8780270BDC369B3FBF2F502FB1535CD
:1038D00065B99A420AD8D0F87022934206D22A4695
:1038E00000F091FAC4F870522B46DEE7D4F88C321F
:1038F000DB682BB194F87422032A01D12046984743
:103900008021204601F0DAF9204600F0A6FAD1E73E
:1039100032F00403CED1802101F0D0F9CAE7D0F80B
:103920008C325B6933B190F87422032A02D1984734
:10393000002070BD022070BD70B500220446114603
:1039400001254026402301F09BF933468021C4F82D
:103950004451C4F850610022204601F091F9D4F896
:103960009032A5610021666284F87452C4F86C122A
:103970006160C4F87C1223B1D4F88C3220465B68B5
:103980009847002070BD01740020704790F8743291
:1039900080F87532042380F874320020704790F864
:1039A000753280F874320020704708B590F87422A0
:1039B000032A04D1D0F88C32DB6903B19847002088
:1039C00008BD10B58021044601F078F92046002199
:1039D000BDE8104001F072B937B50B7803F0600311
:1039E000202B04460D4614D0402B12D0002B40F063
:1039F00095804B78092B00F29080DFE813F0E70008
:103A000001018E00FA008E00820013008E00D200A9
:103A1000A000D4F88C3229469B68204698470020A5
:103A200003B030BD4B881A0A013A0E2A75D8DFE878
:103A300002F02428357474555E747474747474744C
:103A40000800D0F88832DB69207C0DF10601984728
:103A5000BDF8062052B1EB8843B19A4228BF1A46FE
:103A600001462046ADF8062000F0C0F9EB88002B97
:103A7000D5D1204600F0E6F9D1E7D0F888321B68AE
:103A8000E2E7027CD0F88C3232B99B6A0DF1060075
:103A9000984702234370DBE7DB6AF7E7DBB2052BCD
:103AA0003BD8DFE803F003070B0F1317D0F8883279
:103AB0005B68C9E7D0F888329B68C5E7D0F88832E0
:103AC000DB68C1E7D0F888321B69BDE7D0F88832DF
:103AD0005B69B9E7D0F888329B69B5E7037CE3B945
:103AE000D0F88C320DF106005B6B9847B0E7037C91
:103AF0009BB9D0F88C320DF106001B6B9847072359
:103B0000C8E78B884BB9CB883BB94D887F2D04D84B
:103B100090F87432032BE9B203D12046FFF751FF2E
:103B20007DE780F8761201F0F5F8204600F08AF97A
:103B30001DB1022384F8743271E70123FAE7897812
:103B4000354D01292970E8D890F87432022B08D03D
:103B5000032B14D0FFF735FF29782046FFF724FE0A
:103B60005DE7002985D001210323416080F874328C
:103B70002046FFF70EFE02287FF47BAFCDE731B978
:103B8000022380F874324160FFF70EFE71E741684E
:103B900001293FF46EAFC9B2FFF706FE29786160D4
:103BA000E6E7CA88012AB8D190F87432002BB4D065
:103BB000022B03D9032BB0D1011D03E001460023E2
:103BC00041F8083F204600F011F928E790F87432D8
:103BD000013B022BA1D8CB88022B9ED10123C360CD
:103BE000D0F87C320BB10323C360022204F10C0134
:103BF000E8E74B88012B7FF412AFC4F87C3238E73A
:103C000090F87432013B022B87D84B88012B7FF44C
:103C100006AF0023F1E700BF1808002038B50B7885
:103C200003F06003202B04460D4602D0402B00D049
:103C3000B3B994F87432013B022B10D82B79012BC5
:103C40000DD8D4F88C3229469B6820469847EB88DB
:103C50001BB910B9204600F0F5F8002038BD204609
:103C6000FFF7AFFEF9E738B50A7802F06002202AC4
:103C700004460B4613D0402A11D06AB95D788A8871
:103C8000012DD1B21FD035D3032D05D190F8742268
:103C9000022A26D0032A0AD0FFF793FE05E0D4F8C3
:103CA0008C221946926820469047002038BD5A88D9
:103CB0002AB94A0603D0DB880BB900F0FFFF204683
:103CC00000F0C0F8F1E790F87422022A09D0032A24
:103CD000E2D15B88002BE8D14D06F0D000F0FCFF6C
:103CE000EDE74B0617D000F0E9FF8021204600F0F9
:103CF000E5FFDAE790F87432022B0ED0032BCBD11C
:103D000012F0800F4FF0140301F00F0203FB0202C8
:103D100012D09269DAB92046BEE74906FBD11306F4
:103D20004CBF00F1140100F5A07100230B600222CA
:103D3000204600F05BF8B8E7D2F84421002AEAD028
:103D400001F07F0503FB050505F5A07504E001F012
:103D50007F0505FB0335054411F07F0303D12B607C
:103D600002222946E4E7204600F0C4FF08B10123FF
:103D7000F5E72860F4E70B7803704B784370CA7856
:103D80008B7803EB022343804A790B7903EB022300
:103D90008380CA798B7903EB0223C380704710B507
:103DA0008021044600F08AFF20460021BDE8104033
:103DB00000F084BF30B588B105462B1A15F8014BC9
:103DC000DBB2002CF9D101335B0013800B700323AD
:103DD0004B700138022310F8015F05B930BD5A1C41
:103DE000D2B2CD540233DBB28C54F4E710B5134693
:103DF0000222C0F86C22C3610A460362002100F06F
:103E000097FF002010BD08B513460A46002100F0B8
:103E10008FFF002008BD10B513460322C0F86C22A6
:103E2000C0F848310A46C0F84C31002100F08EFF3E
:103E3000002010BD08B513460A46002100F086FF99
:103E4000002008BD08B50423C0F86C3200231A46D0
:103E5000194600F06DFF002008BD08B50523C0F825
:103E60006C3200231A46194600F070FF002008BD8E
:103E7000F7B50024124F06462546B44201DB03B0D5
:103E8000F0BD002210214FF09040FDF7DFF9002235
:103E900010214FF090408DF804508DF80550FDF73B
:103EA000D5F96423012201A93846FEF7CCFC012292
:103EB00010214FF09040FDF7C9F90134DDE700BF54
:103EC000480C002010B508461446114600F000FECC
:103ED000204610BD70B5AEB0FDF7ECFD304AD2F80B
:103EE000903023F01803C2F8903014230593002378
:103EF0000C936023012402250D930726282305A88F
:103F000007940B940F951094119412931396149593
:103F10001595FDF7C5FE00B1FEE70F2203230290C1
:103F200003900490042168468DE80C00FEF716F912
:103F300000B1FEE71B4B16934FF480732D934FF0A7
:103F40008063289318231E902590199316A84FF488
:103F50008013179418941A961B951C951D93FEF7C1
:103F600021FA00B1FEE74FF40070FDF7B3FD0446FF
:103F700000B1FEE7FEF784F942F21073B0FBF3F0F4
:103F8000FDF774F80420FDF787F8FEF781FB224661
:103F900021464FF0FF30FDF729F82EB070BD00BF6D
:103FA00000100240012202000F4810494FF4E06265
:103FB00008B54FF48273C2604FF4007280E80A00C3
:103FC000826100233822836003614361C26103621E
:103FD00043628362072203630823C2624363FEF7DE
:103FE000E1FB00B1FEE708BD480C002000300140B5
:103FF000384BF0B5DA6C384F384D42F00402DA64D1
:10400000DA6C8BB002F004020192019ADA6C42F091
:104010008002DA64DA6C02F080020292029ADA6CB0
:1040200042F00102DA64DA6C02F001020392039AB0
:10403000DA6C42F00202DA64DB6C03F002030493F0
:10404000384600224FF40051049BFDF7FFF8002290
:1040500048F218014FF09040FDF7F8F8002228468A
:1040600041F2FC41FDF7F2F8002401264FF4005321
:1040700005A938460593069607940894FDF71EF89F
:1040800040F2071305A94FF090400593069407945A
:10409000FDF714F848F2180305A94FF09040059376
:1040A000069607940894FDF709F840F6030305A95E
:1040B0002846059306940794FDF700F841F2FC4367
:1040C00005A928460593069607940894FCF7F6FF81
:1040D0000BB0F0BD0010024000080048000400488A
:1040E00030B50A4D0C461023621AD2B2904202D863
:1040F000580080B230BD14F8012B82EAD312D2B23C
:1041000035F8122082EA03239BB2EDE7488A0008C3
:1041100030B585B0030A8DF80D0003A902208DF893
:104120000C30FFF7DDFF0022030A8DF80F0010218D
:104130004FF090408DF80E308DF808208DF8092052
:10414000FDF784F86423042203A91648FEF77BFBDD
:10415000012802D002D3032804D1FEE7042112482B
:10416000FDF779F800230F4D8DF80C3064249DF88D
:1041700008303BB1012210214FF09040FDF766F866
:1041800005B030BD0094012302AA03A92846FEF71A
:1041900018FC30B94FF400414FF09040FDF75BF848
:1041A000E5E7FEE7480C0020000400482DE9F04157
:1041B000CE000436F6B20746304690460D4600F073
:1041C000B1FE3B0A04460370477001460220FFF728
:1041D00087FF030AA370013D062303FB0585E070FA
:1041E000A8F106080427454511D1002210214FF0FF
:1041F0009040FDF72BF86423324621461648FEF71F
:1042000022FB012802D017D3032819D1FEE7002092
:104210003B182A5CDBB201300628E254F8D129466B
:10422000FFF75EFFBB1DDBB2020AE25423440837EE
:104230005870FFB2063DD6E704210848FDF70BF899
:104240004FF0904001221021FDF700F82046BDE814
:10425000F04100F06FBE00BF480C00200004004891
:104260001FB5FC238DF8003000238DF801308DF848
:1042700002308DF803308DF80A308DF80B308DF850
:104280000C308DF80D30C0F307238DF8040003F0D7
:104290000F020121C0F3014023F00F0343F00F038D
:1042A0008DF805208DF809006A4608468DF808301B
:1042B000FFF77CFF02AA01212420FFF777FF05B05A
:1042C0005DF804FB70B588B005AC030A8DF81500E5
:1042D0000E460220214615468DF81430FFF700FFE8
:1042E000030A8DF816308DF8170004230022E254DB
:1042F00001330C2BFBD1002210214FF09040FCF732
:10430000A5FF6422AB1D00929BB202AA21460F4872
:10431000FEF757FB012802D002D3032807D1FEE79E
:1043200004210B48FCF797FF0023AB4207DB012277
:1043300010214FF09040FCF789FF08B070BD02AA31
:104340001A441279F2540133EFE700BF480C002001
:1043500000040048000000002DE9F04F2DED028B15
:1043600089B0FCF709FEFFF7B5FDFFF741FEFFF747
:104370001BFE00F067FB012210214FF09040FCF77C
:1043800065FF01228021DA48DA4CDB4DFCF75EFF45
:104390000120FFF76DFD0320FCF708FE0120FFF769
:1043A00067FD0121FC238DF8103004AA0023084684
:1043B0008DF811308DF812308DF813308DF81430DF
:1043C0008DF81530FFF7F2FEFCF7EAFDAB462060F2
:1043D000CA4EFCF7E5FD2368C01A33689842F8D34B
:1043E000FCF7DEFD20600120FFF742FD0320FCF713
:1043F000DDFD0120FFF73CFD012140F26A50FFF78F
:1044000087FE0821BA48FCF726FF0020FFF728FFA7
:10441000012140F27750FFF77BFE04238DF818301E
:1044200008238DF81A300A238DF81B30092306273C
:104430008DF81C300B238DF819708DF81D30002677
:1044400006AB0622985D5946FFF73CFFAC4A07FBD6
:1044500006F00023591903EB020E91F801C0595DD3
:10446000023341EA0C21062B2EF80010F2D101365E
:10447000062EE5D11088A34E07EE900AF8EE677A73
:10448000002717EE900AFCF75FF891A3D3E9002309
:10449000FCF7AEF8FCF784FB9B4B306018609B4B3D
:1044A000019308EE100A08EE900A9A46B946B846FB
:1044B000974B934A18F8033032F8130007EE900A2E
:1044C000F8EE677A08F1010817EE900AFCF73CF85D
:1044D0007FA3D3E90023FCF78BF8FCF761FB07EE21
:1044E000900AF4EEC87AF1EE10FAF4EEE87AC4BF5E
:1044F000B0EE678A4FF00109F1EE10FA44BFF0EE1A
:10450000678A0127B8F10F0F4AF8040BD0D10FB119
:10451000C6ED008AB9F1000F02D07B4B83ED008A13
:104520007C4F96ED007A3B687848DFED7B6A9FED23
:104530007B6A0021764AF0EC015A525C4FF0010E82
:104540000EFA02F21A420CBFF0EE467AF0EE667AEC
:1045500077EE877A0131F4EEE75AF1EE10FACCBF2C
:10456000134393430F29E5D10622294610203B60CF
:10457000FFF7A8FEBBF8020007EE900AF8EEE77A14
:1045800017EE900AFBF7E0FF53A3D3E90023FCF7F3
:104590002FF8634B0022FBF777FEFCF701FBD6ED0B
:1045A000006A604BB0EE087AF4EE476AF1EE10FA5A
:1045B00007EE900A186040F304819FED5B7AF4EEF9
:1045C000477AF1EE10FA40F1FC803868FFF748FEB8
:1045D00001214FF4AC60FFF79BFD0C238DF80C30EC
:1045E0000E238DF80D300D238DF80E30DFF840814D
:1045F0000F238DF80F3000274FF0060903AB294633
:10460000D85D0622FFF75EFE09FB07F100230BEBE6
:10461000030203EB080092F801E01BF803200233C9
:1046200042EA0E22062B4252F1D10137042FE5D186
:104630003E4F4FF00008BA46B9463D4B33F81800DC
:1046400007EE900AF8EE677A08F1010817EE900A73
:10465000FBF77AFF1EA3D3E90023FBF7C9FFFCF7A2
:104660009FFAB8F10C0F4AF8040BE6D199ED007AE5
:10467000D9ED017ADFF8C080DFF8C090DFF8C0A084
:1046800077EE677A17EE900AFBF75EFF14A3D3E983
:104690000023FBF7FBFD14A3D3E90023FBF7A8FFDE
:1046A000FCF77EFA0A222168C8F800004FF47A73FA
:1046B000B1FBF3F3B3FBF2F002FB103242F21073E2
:1046C0001C48B1FBF3F100F06BFE3BE0AFF3008060
:1046D0002D431CEBE2361A3F20E9787187F28A3FBE
:1046E0002F6EA301BC05523F4A47F60C44A53F403C
:1046F0000004004828080020380C00202001002079
:10470000880A00202C01002024010020E40B002056
:104710000F010020200800206F12033B0AD7A33BA3
:10472000004071402408002000008242AC0C0020B0
:10473000200C0020488C00081C080020200C0020C1
:104740005B8C0008019B4B453ED15148DFF85C91E2
:10475000DFF85CA100F024FE57F8040BFBF7F4FE31
:1047600002460B46504600F01BFEB945F4D1D8F87E
:104770000000FBF7E9FE02460B46464800F010FE3B
:1047800096ED007A444A454EF0EE047AB4EEE77AAC
:10479000F1EE10FA24DD03231370414B1868FBF788
:1047A000D3FE37A3D3E90023FCF794F93D4AE8B1DF
:1047B000032313703378032B5FD8DFE803F01D3D2C
:1047C0004B5500233B6003E7019B53F8040B019317
:1047D000FBF7BAFE02460B46504600F0E1FDB1E79A
:1047E00013780BB1013BD7E73370D6E713780BB1E1
:1047F000013BDEE73370DDE700224FF400414FF06C
:104800009040FCF723FD002220212748FCF71EFDE5
:10481000002210212448FCF719FD214B1868FBF7F2
:1048200093FE19A3D3E90023FCF754F900283FF4C1
:10483000CFAD03233370CBE502211B48FCF700FD0D
:1048400008B90223F6E701211748FCF7F9FC002814
:10485000EFD0BDE501224FF400414FF09040FCF74E
:10486000F5FC4FF00103E5E7012220210E48FCF79B
:10487000EDFC012210210C48F1E70023DAE700BF2C
:104880003D0AD7A3703D0D40295C8FC2F5280D402D
:10489000628C0008688C0008300100203101002083
:1048A000240100202801002000040048DC0C002026
:1048B0005B8C0008FEE70000214B07B51A6E42F042
:1048C00001021A661A6E02F001020092009A9A6DB5
:1048D00042F080529A659B6D03F080530193032050
:1048E000019BFCF771FB002211466FF00B00FCF7F7
:1048F0007DFB002211466FF00A00FCF777FB0022D7
:1049000011466FF00900FCF771FB002211466FF0B1
:104910000400FCF76BFB002211466FF00300FCF76C
:1049200065FB002211466FF00100FCF75FFB0022DF
:1049300011464FF0FF30FCF759FB03B05DF804FB64
:104940000010024000B503681D4A934289B01BD194
:104950001C4B1A6E42F480521A661B6E03F480538D
:104960000193019BE0230393022304930023059307
:10497000032306930523079303A94FF09040FCF708
:104980009DFB09B05DF804FB0F4A9342F9D10D4B32
:104990000E489A6D42F480429A659B6D03F4804301
:1049A0000293029B4FF4604303930223049300237A
:1049B0000593032306930523079303A9DFE700BFAD
:1049C0000030014000100240003800400004004860
:1049D0007047FEE7FEE7FEE7FEE770477047704767
:1049E00008B5FCF7D5FABDE80840FCF762BB00004B
:1049F0000148FCF769BD00BF801700200F49D1F8BE
:104A0000883043F47003C1F888300D4B1A680020D9
:104A100042F001021A6098601A6822F0A85222F44B
:104A200010221A604FF48052DA601A6822F4802251
:104A30001A6098614FF000638B60704700ED00E0F2
:104A40000010024008B500220A490B48FEF780FE1C
:104A50000A490948FEF791FE09490748FEF737FE63
:104A6000054800F0B0F920B10348BDE80840FEF762
:104A70008BBE08BD48010020140D0020000000205E
:104A800038010020002070470020704710B5054C09
:104A900001462046FEF72AFE2046FEF746FE00208D
:104AA00010BD00BF140D002010B5064C06490022B1
:104AB0002046FEF713FE05492046FEF717FE0020AC
:104AC00010BD00BF140D002098130020B00F00206F
:104AD00010B5094CD4F89032D3F814320A4643B9D1
:104AE00001462046FEF7FAFD2046BDE81040FEF7DD
:104AF00003BE012010BD00BF140D002007B50D4BF3
:104B000002689A4212D103F5D43343209A6D42F0E1
:104B100080629A659B6D002203F0806301931146C9
:104B2000019BFCF763FA4320FCF794FA03B05DF8AD
:104B300004FB00BF0068004000F58661D0F87004F7
:104B4000FEF739BE00EB4113D0F87004D3F83C22D5
:104B5000FEF75EBE00EB4113D0F87004DA6BFEF78F
:104B60008FBED0F87004FEF720BF10B504460121B7
:104B7000D0F87004FEF707FFD4F87004BDE81040C9
:104B8000FEF7DABE10B50446D0F87004FEF7FEFE5C
:104B9000A36923B1024A136943F00603136110BDF0
:104BA00000ED00E0836910B5044633B1064A13698D
:104BB00023F006031361FFF78DF9D4F87004BDE804
:104BC0001040FEF7ECBE00BF00ED00E010B504465B
:104BD000FCF7B4FF2048214AC0F87044082380E85D
:104BE0000C00C4F89802002302228260C3600261B4
:104BF00043618361C3610362FCF731FB20B140F282
:104C00003D111748FFF756FE002211461823D4F82D
:104C10009802FCF70DFF582300228021D4F8980257
:104C2000FCF706FFC02300228121D4F89802FCF78C
:104C3000FFFE4FF4887300220121D4F89802FCF79C
:104C4000F7FE4FF4807300228221D4F89802FCF71B
:104C5000EFFE002010BD00BF80170020006800405C
:104C6000C08C000808B5D0F89802FCF76CFB03284C
:104C70009ABF024B185C022008BD00BFBC8C000824
:104C800010B51C46D0F8980213462246FCF784FB68
:104C900003289ABF014B185C022010BDBC8C000891
:104CA00008B5D0F89802FCF7ACFB03289ABF024B7A
:104CB000185C022008BD00BFBC8C000808B5D0F805
:104CC0009802FCF749FE03289ABF024B185C0220A9
:104CD00008BD00BFBC8C000808B5D0F89802FCF7EE
:104CE00074FE03289ABF024B185C022008BD00BF67
:104CF000BC8C00080A06D0F8983245BF01F07F014D
:104D000003EB411303EB411393F82A0058BF93F8C8
:104D10002A02704708B5D0F89802FCF729FB03284F
:104D20009ABF024B185C022008BD00BFBC8C000873
:104D300008B5D0F89802FCF7AFFB03289ABF024BE6
:104D4000185C022008BD00BFBC8C000808B5D0F874
:104D50009802FCF781FB03289ABF024B185C0220E3
:104D600008BD00BFBC8C000808B5D0F89802FCF75D
:104D70008CFB08BD10B5044611B101290FD010BD40
:104D8000836933B1FFF7A6F80B4A136923F00603D2
:104D90001361D4F87004BDE81040FEF700BED0F8EF
:104DA0007004FEF7F3FDA36923B1034A136943F0CE
:104DB0000603136110BD00BF00ED00E0004870471E
:104DC0002C0800207047D0F898321B6A012B14BFC2
:104DD000022000207047000012230B80004870471B
:104DE0007401002004230B800048704788010020D4
:104DF0000C230B80004870476801002010B5044C5C
:104E000004480A462146FEF7D5FF204610BD00BFE4
:104E1000F41B0020EC8C000810B5044C04480A4632
:104E20002146FEF7C7FF204610BD00BFF41B00203F
:104E3000FF8C000810B5044C04480A462146FEF7D2
:104E4000B9FF204610BD00BFF41B0020158D0008DF
:104E500010B5044C04480A462146FEF7ABFF204635
:104E600010BD00BFF41B0020D38C000810B5044C0B
:104E700004480A462146FEF79DFF204610BD00BFAC
:104E8000F41B0020DE8C0008DFF834D0002103E0A2
:104E90000C4B5B58435004310B480C4B42189A4260
:104EA000F6D30B4A02E0002342F8043B094B9A4236
:104EB000F9D3FFF7A3FD00F011F8FFF74DFAFEE775
:104EC000000001200090000800000020FC070020E6
:104ED000FC070020041E0020FEE7000070B50D4E08
:104EE0000D4CA41BA4100025A54209D10B4E0C4C5F
:104EF00003F09EFDA41BA4100025A54205D170BDA2
:104F000056F8253098470135EEE756F82530984792
:104F10000135F2E7F88F0008F88F0008F88F0008D5
:104F2000FC8F0008024B0146186800F00BB800BF68
:104F30009C050020024B0146186802F09BBB00BF95
:104F40009C0500202DE9F74F01F10B04162C81463A
:104F500007D934F0070405D50C23C9F80030002622
:104F600031E110248C42F7D3484600F00DFAB4F535
:104F7000FC7F9C4D36D204F108022A44A2F10801BC
:104F800056688E424FEAD40302D1D668B24210D09E
:104F90007368F268B16823F00303CA603344916018
:104FA0005A6842F001025A60484600F0F3F90836A8
:104FB00009E102338C4A2E69964211466DD0706821
:104FC00020F00300071B0F2F47DD331944F00104C5
:104FD00074606B612B61DA609A6047F001025A607D
:104FE0003750E1E7630A2AD0042B12D8A3093833DB
:104FF0005A1C05EBC202A2F108005668864206D090
:10500000726822F00302111B0F291CDD013B0133E2
:10501000D0E7142B01D85B33EAE7542B02D8230BDB
:105020006E33E5E7B3F5AA7F02D8E30B7733DFE70A
:1050300040F25452934204D8A30C7C33D8E73F2368
:10504000D6E77E23D4E70029F16804DBB368D96092
:105050008B60B318A4E70E46D0E7002F6A612A617F
:1050600005DB3044436843F0010343609CE7B0F53F
:10507000007F44D2C0088710012202FA07F76A684D
:1050800001303A436A6005EBC00255F83070B760F2
:10509000083AF26045F83060FE6001209A1000FA8C
:1050A00002F26868824200F2A180024206D123F037
:1050B00003035200024203F10403FAD005EBC30CD0
:1050C000E0469E46D8F80C60464553D10EF1010EDD
:1050D0001EF0030F08F10808F4D1980779D16B6826
:1050E00023EA02036B606868520082427ED8002A7D
:1050F0007CD073460242E1D104335200FAE7420AFF
:10510000042A15D882093832571C05EBC20E55F80F
:105110003770BE4526D10120921000FA02F268686D
:1051200010436860C6F80CE0B760CEF80860B3E7DB
:10513000142A01D85B32E7E7542A02D8020B6E32F8
:10514000E2E7B2F5AA7F02D8C20B7732DCE740F281
:105150005457BA429ABF820C7C327E22D4E7BF6891
:10516000BE4504D07A6822F003029042F7D3D7F804
:105170000CE0D7E77068F76820F00300A0EB040AA2
:10518000BAF10F0F10DDB268331944F001047460F6
:10519000D760BA604AF001026B612B61D9609960F7
:1051A0005A6046F800A0FFE6BAF1000F0FDB30446A
:1051B000436843F00103436056F8083F4846DF6008
:1051C000BB6000F0E7F8304603B0BDE8F08F3E4624
:1051D0007AE75CF80809844503F1FF333FF47DAFBB
:1051E00081E700BF8C01002094010020D5F808B0B1
:1051F000DBF8046026F00306B44203D8331B0F2B00
:1052000000F396804F4A17684F4A116810370131F2
:105210000BEB0603274405D04C4901390F440131FB
:1052200049420F40394648460192009300F0D0F8B9
:10523000B0F1FF3F804656D0009B019A834201D9CE
:10524000AB4550D142480168434507EB010EC0F819
:1052500000E04049824613D10B4211D1AB683E4475
:1052600046F001065E603C4ADAF8003011688B4275
:1052700088BF1360394A11688B4288BF136032E0DF
:10528000106801301BBFA8EB03037344C2F8008011
:10529000CAF8003018F007001CBFC0F108008044B5
:1052A0002A4B474418440F40C71B3946484600F074
:1052B0008FF8431C08BF4046DAF80030C5F8088074
:1052C00008BF0027A0EB08003B44074447F0010754
:1052D000AB45CAF80030C8F80470C4D00F2E10D8FF
:1052E0000123C8F80430AB685A6822F003029442E4
:1052F000A2EB040301D80F2B1ADC484600F04AF851
:105300002DE6DBF804300C3E26F0070603F001031F
:105310003343CBF804300BEB060305220F2E5A6003
:105320009A60A0D90BF10801484602F0A3F99AE768
:10533000AE6844F00102344443F001037260AC6093
:10534000636031E67C0A00209405002080000000A4
:105350004C0A00207F000000740A0020780A002018
:1053600010B5431E0A44914200D110BD11F8014B03
:1053700003F8014FF7E702440346934200D1704718
:1053800003F8011BF9E70000014802F05DBA00BF15
:10539000F81D0020014802F058BA00BFF81D002097
:1053A0000FB40A4B13B51C6824B1A36913B9204686
:1053B00002F08AF805AB049AA1680193204600F038
:1053C00017F802B0BDE8104004B070479C050020FB
:1053D00038B5064C002305460846236003F01AFB47
:1053E000431C02D1236803B12B6038BD001E00208E
:1053F0002DE9F04FBDB0884615461C461F46834632
:1054000002F012FA03680D931846FAF731FF09907B
:10541000BBF1000F05D0DBF8183013B9584602F085
:1054200053F8994B984537D1DBF80480D8F86430AD
:10543000D80707D4B8F80C30990503D4D8F8580029
:1054400002F002FAB8F90C309A0409D443F400537C
:10545000A8F80C30D8F8643023F40053C8F864304E
:10546000B8F80C301E0702D5D8F8103003BB4146FF
:10547000584601F039F8D8B1D8F86430DD0707D4C0
:10548000B8F80C309C0503D4D8F8580002F0DDF9C8
:105490004FF0FF330A9326E07C4B984502D1DBF8AE
:1054A0000880C3E77A4B984508BFDBF80C80BDE75E
:1054B000B8F80C3003F01A020A2A18D1B8F90E20F5
:1054C000002A14DBD8F86420D00705D4990503D44A
:1054D000D8F8580002F0B9F923462A464146584602
:1054E00000F0C2FF0A900A983DB0BDE8F08F9FED32
:1054F000647B8DED067B00232CAC1F9421932093BD
:1055000005950393119310930A93059D2B4613F869
:10551000012B12B1252A40F08380059BEE1A0DD095
:1055200084E84800219B33442193209B0133072BBF
:10553000209377DC08340A9B33440A932B78002BA2
:1055400000F039870023691C8DF85F301A464FF050
:10555000FF3A0B931D460A204E1C097805960291CE
:1055600002992039582900F21D84DFE811F0B300B8
:105570001B041B04B8001B041B041B041B041B049A
:105580001B04BB0065001B04C400C7001B04E4002F
:10559000E700E700E700E700E700E700E700E700D3
:1055A000E7001B041B041B041B041B041B041B043B
:1055B0001B041B041B041B0131011B0431011B04D0
:1055C0001B041B041B04FA001B041B0446031B04DE
:1055D0001B041B041B041B04AD031B041B049300CE
:1055E0001B041B041B041B041B041B041B041B04C3
:1055F0001B041B040D016B00310131013101FD0061
:105600006B001B041B0400011B04280348037C03DC
:1056100007011B048D031B04AF031B041B04C703FA
:105620001D4673E71FAA4146584602F08EFC00282B
:1056300040F099862CAC7EE701232B2205998BE75D
:105640000F46FBE70BB18DF85F20AA0640F1B08052
:10565000073727F0070707F10803D7E90067049326
:10566000002E77F1000306DA76424FF02D0367EB48
:1056700047078DF85F300123D0E200BFAFF3008011
:105680000000000000000000A48D0008C48D000888
:10569000848D00080BB18DF85F20A24B1193A906F1
:1056A00040F13183073727F0070707F10803D7E9EF
:1056B00000670493EB070BD556EA070308D03023A5
:1056C0008DF860309DF808308DF8613045F00205A6
:1056D0000223A0E2002AB1D101232022AEE745F047
:1056E0000105ABE73E680B96002E07F10401A7DA2F
:1056F00076420B960F4645F004059FE705994E1C30
:10570000097802912A2910D04FF0000A05960299D3
:10571000303909293FF624AF00FB0A1A05990E46D5
:1057200016F8011B02910596F1E73968059641EAE2
:10573000E17A043782E745F080057FE700210B918D
:1057400002990B9E303900FB06110B9105990E460C
:1057500016F8011B02910299059630390929EFD9F3
:10576000FEE645F0080569E745F0400566E705995E
:1057700009786C2905D105990131059145F020057D
:105780005CE745F0100559E73B1D049300263B6894
:105790008DF888308DF85F604FF0010A08960DF1A2
:1057A00088091EE10BB18DF85F2045F010054CE72C
:1057B00015F0100F07F1040303D03E680493F717A8
:1057C0004EE73E68049315F0400F18BF36B2F6E777
:1057D0000BB18DF85F20073727F0070707F10803A3
:1057E000049397ED007B8DED067B069B1293079B40
:1057F00023F0004313934FF0FF324B4BDDE91201CE
:10580000FBF790F9002840F0E3854FF0FF32464B5C
:10581000DDE91201FBF768F9002840F0D985002284
:105820000023DDE90601FBF755F910B12D238DF8B2
:105830005F303E4B3E4A029925F080054729CCBF98
:10584000914699464FF0030A00260896C9E0BAF13E
:10585000FF3F22D0029B23F02003472B04D1BAF153
:10586000000F08BF4FF0010A45F480731493079BA3
:10587000002B15DA069B0E93079B03F100430F9351
:105880002D230C93029B23F02007462F0ED0452F8B
:1058900046D10AF1010602210AE04FF0060AE3E7C9
:1058A0009DED067B00238DED0E7BEAE75646032136
:1058B0001DAB01931AAB0093324619AB9DED0E0B55
:1058C000584600F00DFF472F814602D1EB0740F10B
:1058D0008C8509EB0603462F039311D199F800300C
:1058E000302B09D100220023DDE90E01FBF7E8F897
:1058F00010B9C6F101061996039A199B1A4403922E
:1059000000220023DDE90E01FBF7DAF890B930221E
:105910001D9B039999420FD9591C1D911A70F7E7E5
:105920005646B8E7328D0008FFFFEF7F228D000852
:10593000268D0008039B1D931D9B472FA3EB090396
:10594000039340F0F880199BDF1C02DB9A4580F23C
:105950001F81029B023B0293199A9DF808108DF853
:105960006C10531E002B1993B6BFC2F101032B22FA
:105970002D22092B8DF86D2040F3FA800DF17B026A
:105980000A2693FBF6F006FB10333033092802F8A1
:10599000013C02F1FF31034600F3E380303301F8AC
:1059A000013C023A0DF16E030DF17B008242194673
:1059B000C0F0D980039A1BABCB1A012A109303EBDA
:1059C000020A03DC15F00103089303D0099B9A44F3
:1059D000002308930C9B13B12D238DF85F30149D89
:1059E000002656453346B8BF53460C939DF85F30AA
:1059F00013B10C9B01330C9315F0020314931EBFDB
:105A00000C9B02330C9315F08403159314D10B9B5C
:105A10000C9A9F1A002F0FDDA84B2360102F00F364
:105A2000D381219B67601F44209B21970133072B63
:105A3000209300F3E08108349DF85F3073B10DF1DD
:105A40005F03236001236360219B01332193209B2B
:105A50000133072B209300F3D8810834149B6BB1DA
:105A600018AB236002236360219B02332193209BA8
:105A70000133072B209300F3D2810834159B802B30
:105A800014D10B9B0C9A9F1A002F0FDD8C4B2360B7
:105A9000102F00F3CE81219B67601F44209B21972C
:105AA0000133072B209300F3DD810834A6EB0A06AF
:105AB000002E0FDD824F2760102E00F3DD81209B2A
:105AC0002198666001330644072B2196209300F34A
:105AD000EA810834E90500F1F081219B84E80006A1
