:020000040800F2
:10000000000001209D380008113400081334000856
:1000100015340008173400081934000800000000E7
:100020000000000000000000000000001B34000879
:100030001D340008000000001F34000821340008AF
:10004000ED380008ED380008ED380008ED380008FC
:10005000ED380008ED380008ED380008ED380008EC
:10006000ED380008ED380008ED380008ED380008DC
:10007000ED380008ED380008ED380008ED380008CC
:10008000ED380008ED380008ED380008ED380008BC
:10009000ED380008ED380008ED380008ED380008AC
:1000A000ED380008ED380008ED380008ED3800089C
:1000B000ED3800080000000000000000ED380008E6
:1000C000ED380008ED380008ED380008ED3800087C
:1000D000ED380008ED380008ED380008ED3800086C
:1000E000ED380008ED3800080000000000000000B6
:1000F0000000000000000000000000000000000000
:1001000000000000ED38000800000000ED38000895
:100110000000000000000000ED380008ED38000885
:10012000ED380008ED380008ED380008ED3800081B
:10013000ED38000800000000000000000000000092
:10014000ED380008ED380008ED38000831340008BB
:10015000ED380008ED380008ED380008ED380008EB
:10016000ED380008ED380008ED3800080000000008
:10017000ED380008ED380008ED380008ED380008CB
:0C018000ED380008ED380008ED380008EC
:10018C0010B5054C237833B9044B13B10448AFF3C5
:10019C0000800123237010BD6C06002000000000BD
:1001AC00F03F000808B5034B1BB103490348AFF3FC
:1001BC00008008BD0000000070060020F03F000821
:1001CC0010B5084B044618684FF47A73B0FBF3F083
:1001DC0000F084F8002221464FF0FF3000F03EF88A
:1001EC00002010BD1001002008B5032000F024F8F9
:1001FC000020FFF7E5FF03F079F8002008BD0000B0
:10020C00024A136801331360704700BFE4080020F2
:10021C00014B1868704700BFE408002038B504464D
:10022C00FFF7F6FF631C054618BF0134FFF7F0FF1C
:10023C00401B8442FAD838BD074AD36823F4E063E4
:10024C001B041B0C43F0BF63000243F4003300F4A7
:10025C00E0600343D360704700ED00E0174B30B50E
:10026C00DC68C4F30224C4F10703251D042B28BF4A
:10027C000423062D4FF0010505FA03F303F1FF33B8
:10028C008CBF033C00241940A14005FA04F4013C46
:10029C002240002842EA01024FEA0212AFBF00F1ED
:1002AC00604000F00F00064BD2B2A5BF00F56140D4
:1002BC00D2B21A5480F8002330BD00BF00ED00E02C
:1002CC0014ED00E04209012300F01F0003FA00F0D6
:1002DC00014B43F82200704700E100E00138B0F117
:1002EC00807F0AD2064B074A5860F02182F823100F
:1002FC000020072298601A6070470120704700BFE9
:10030C0010E000E000ED00E0044B1A6804280CBF7C
:10031C0042F0040222F004021A60704710E000E080
:10032C00704708B5FFF7FCFF08BD00002DE9F74F3B
:10033C00D1F80080DFF874915A4A002338FA03F49C
:10034C0002D103B0BDE8F08F012404FA03FA18EAD5
:10035C000A0500F09C804C6824F0100BBBF1020FD6
:10036C0014D14FEAD30E00EB8E0E03F0070CDEF81F
:10037C0020604FEA8C0C0F2707FA0CF726EA0707C8
:10038C000E6906FA0CF63E43CEF820604FEA430C99
:10039C000327066807FA0CF7FF4304F0030E3E40F0
:1003AC000EFA0CFE0BF1FF3B4EEA0606BBF1010FF9
:1003BC00066011D8866806EA070BCE6806FA0CFEB2
:1003CC004EEA0B068660466826EA0A0AC4F3001653
:1003DC009E4046EA0A064660C66837408E6806FAB2
:1003EC000CF63743E600C76051D5D9F8606046F08B
:1003FC000106C9F86060D9F8606023F0030707F1C3
:10040C00804706F0010607F58037019603F0030CD0
:10041C00019EBE684FEA8C0C4FF00F0E0EFA0CFECC
:10042C00B0F1904F26EA0E0E33D01F4EB04232D0B0
:10043C0006F58066B04230D006F58066B0422ED00C
:10044C0006F58066B04214BF0726042606FA0CF6A1
:10045C0046EA0E06BE601668EF4314F4803F0CBFEC
:10046C003E402E431660566814F4003F0CBF3E40CD
:10047C002E435660966814F4801F0CBF3E402E43EA
:10048C009660D668A40254BF3E402E43D66001331A
:10049C0054E70026DAE70126D8E70226D6E703263A
:1004AC00D4E700BF000401400004004800100240E3
:1004BC000AB181617047816270474369594041615B
:1004CC0070472DE9F041044686B000286BD090F8B7
:1004DC00293403F0FF021BB980F8282403F012F82A
:1004EC002546032355F8100B84F8293401F0ADFB95
:1004FC000FCD6E460FC62B68336004F1040898E8E4
:10050C000E00206801F08FFB0021206801F0A7FB92
:10051C0000212246234604F110050126084683F8E3
:10052C002810D98601310F2983F8296083F82B0014
:10053C009863D863186403F12003F0D100231F469D
:10054C0082F8283201330F2B82F8297282F82B7231
:10055C00C2F83872C2F83C72C2F8407202F1200242
:10056C00EED10FCD6E460FC62B68336098E80E00A7
:10057C00206801F076FB012384F8247084F8293478
:10058C00E369012B02D1204600F0B0FB236A012B5A
:10059C0002D1204600F096FB206801F04EFE0020B0
:1005AC0006B0BDE8F0810120FAE790F82834012B61
:1005BC0010B504460CD0012380F82834006801F0F3
:1005CC0031FE206801F036FB002084F8280410BDB1
:1005DC00022010BD90F82824012A10B504460BD037
:1005EC00012280F8282484F82410006801F014FEFD
:1005FC00002084F8280410BD022010BD70B50446FC
:10060C0001F00F0011F0800FC5B24FF0200101FB7B
:10061C00054115BF04EB451504EB4515283101F5D3
:10062C000A7115BF0126002685F8296085F8296214
:10063C000A614A78CB70C0B2087002B1C881022B33
:10064C0004BF00230B7194F82834012B09D001232B
:10065C0084F82834206801F021FB002084F8280459
:10066C0070BD022070BD01F00F0311F0800FDAB2E3
:10067C004FF0200101FB020110B5044619BF00EB3D
:10068C004212283101F50A7104EB421215BF012008
:10069C00002082F8290082F829020B7094F8283483
:1006AC00012B09D0012384F82834206801F06CFC5C
:1006BC00002084F8280410BD022010BD70B501F094
:1006CC000F0100EB41164C01002586F8281204F5A9
:1006DC000A710144C6F83C22C6F84032C6F84452AE
:1006EC0086F82952006801F0C9FD284670BD01F05A
:1006FC000F0100EB4111B1F84402704770B501F0E5
:10070C000F0100EB41154C012B640026012385F8E9
:10071C00281004F128010144EA636E6485F829303D
:10072C00006801F0ABFD304670BD00002DE9F84FBC
:10073C000446006801F089FD000400F13082206855
:10074C0001F083FD41050FD52268B2F8443023F443
:10075C0080631B041B0C2046A2F8443002F009FFF6
:10076C0000212046FFF736FF206801F06EFD4304A0
:10077C0008D52268B2F8443023F480431B041B0CC8
:10078C00A2F84430206801F060FD870408D5226887
:10079C00B2F8443023F400531B041B0CA2F8443071
:1007AC00206801F052FDC60426D52268B2F840300C
:1007BC0023F004031B041B0CA2F84030B2F84030A9
:1007CC0023F008031B041B0CA2F8403094F860348F
:1007DC00012B05D1002184F86014204602F0CEFFD5
:1007EC00204602F0E3FE2268B2F8443023F4805332
:1007FC001B041B0CA2F84430206801F026FD0505F3
:10080C001DD52068B0F840309BB243F00803A0F827
:10081C004030B0F8443023F400631B041B0CA0F8E8
:10082C004430B0F840309BB243F00403A0F84030A1
:10083C0001F00BFDC00402D4204602F0A7FE206894
:10084C0001F003FD010629D52368B3F8442022F0FA
:10085C0080021204120CA3F8442094F86024002A9D
:10086C0040F0A281B3F8402092B242F00402A3F807
:10087C004020B3F8402092B242F00802A3F8402086
:10088C00B3F85430C3F38D03012103F03C0384F817
:10089C006014C4F86434204602F070FF206801F044
:1008AC00D4FC82050BD52268B2F8443023F40073D3
:1008BC001B041B0CA2F84430204602F056FE2068A4
:1008CC0001F0C3FCC30508D52268B2F8443023F408
:1008DC0080731B041B0CA2F84430BDE8F88FB0F8F1
:1008EC00441089B211F00F0740F0A580038811F075
:1008FC0010019BB229D103EA0A030380B0F85030EF
:10090C0094F8282000F2024010FA83F030F83230CC
:10091C00E26BC3F3090363641344E363204602F000
:10092C001DFE94F8243053B1226C42B994F8243053
:10093C00216843F08003A1F84C3084F8242020680F
:10094C00B0F844301A04CAD4F9E61A051ED5B0F82A
:10095C00503094F8282200F2064111FA83F304F582
:10096C00866133F83230B4F82E22C3F30903C4F88D
:10097C00443201F06BFD2268138823F070031B05D1
:10098C001B0D1380204602F0DBFDD8E71F04D6D5E3
:10099C00038823F070031B051B0D0380B0F8503047
:1009AC0094F8282200F2064111FA83F333F832301E
:1009BC00C3F30903C4F8443263B1B4F82E22D4F85B
:1009CC003C1201F043FDD4F83C32D4F844221344D9
:1009DC00C4F83C320021204602F0B8FD2268D4F85D
:1009EC003832B2F8501002F2064589B253B96B5A3C
:1009FC0023F440639B049B0C6FEA43436FEA53431D
:100A0C006B5207E03D2B11D85808DE0748BF013068
:100A1C008002685213889BB203EA0B0383F44053A1
:100A2C0043F4004343F08003138088E760485B097C
:100A3C0040EA8323E4E73EB230F826901FFA89F9A6
:100A4C0019F4004F3ED030F8263023F070031B050C
:100A5C001B0D4FEA471820F8263004EB080191F8DB
:100A6C003432002B57D1B0F8503091F8282200F2D4
:100A7C00064515FA83F333F83250C5F3090535B141
:100A8C00B1F82E22D1F83C122B4601F0DFFC04EB1E
:100A9C00461304EB0801D3F844222A44C3F8442239
:100AAC00D1F83C222A44C1F83C22D3F840321BB185
:100ABC00D1F83802854269D2A044204698F8281211
:100ACC0002F044FD19F0800F3FF439AF236833F87E
:100ADC00262092B202EA0A0223F8262004EB4717DA
:100AEC00B3F8502097F8281003F2024313FA82F35C
:100AFC0004EB461633F83120C2F309027264FB6B27
:100B0C0097F828101A44FA63336C2046002B43D113
:100B1C0002F024FD13E791F8282213B230F82330A9
:100B2C0013F4804FB0F8503022D000F2024515FA81
:100B3C0083F333F83250C5F3090535B1B1F83022DF
:100B4C002B46D1F83C1201F081FC04EB080322681F
:100B5C0093F8281232F821309BB223F4E04323F0AF
:100B6C00700343F4004343F0C00322F821308EE7B6
:100B7C0000F2064515FA83F333F83250C5F3090534
:100B8C00002DE2D02B46B1F83222DAE791F8281288
:100B9C002046FFF793FD95E7FFF7B0FDCFE6DFF8B2
:100BAC0014A0DFF814B0CAE6204602F0EFFC75E69C
:100BBC000080FFFF0F8FFFFF8FBFFFFF38B543682B
:100BCC0001F00F059D4204462DD811F0800F4FF017
:100BDC0020031ED000EB451203FB05030121283333
:100BEC0082F8291001229A701D7094F828149142F1
:100BFC001BD084F828241946206801F0A5FA25B9E1
:100C0C0004F58661206801F024FB002084F8280498
:100C1C0038BD03FB010300EB4111002203F50A73FD
:100C2C0081F82922DEE7012038BD022038BD38B515
:100C3C00436801F00F029A42044627D811F0800F46
:100C4C004FF0200101FB02014FEA421319BF1B18A0
:100C5C00283101F50A711B1914BF012000204FF037
:100C6C00000514BF83F8290083F829028D700A70DF
:100C7C0094F82834012B0BD0012384F828342068F5
:100C8C0001F083FA84F82854284638BD012038BD79
:100C9C00022038BD11F0800F1BBF01F00F0100EBDB
:100CAC00411000EB4110283008BF00F50A701AB94A
:100CBC000273C38000207047012203811B0C027356
:100CCC004381F7E702680123C0F86C34B2F858305E
:100CDC009BB243F00103A2F85830B2F858309BB2E3
:100CEC0043F00203A2F85830002070470268034614
:100CFC000121C0F86814002083F86004B2F8543065
:100D0C009BB20B43A2F85430B2F854309BB243F070
:100D1C000203A2F854307047024A136843F48073FC
:100D2C001360704700700040024B186800F4C060FC
:100D3C00704700BF00700040164B1A68B0F5007F7A
:100D4C0002F4C0621AD1B2F5007F13D01A681249AE
:100D5C0022F4C06242F400721A60104A1268B2FBAC
:100D6C00F1F132224A4312B15969490504D45B6945
:100D7C005B050DD400207047013AF4E7B2F5806FA3
:100D8C001FBF1A6822F4C06242F480621A60F1E755
:100D9C00032070470070004040420F0010010020FB
:100DAC00024A536843F480635360704700700040FC
:100DBC0037B51E4DAB6DDA00044618D5FFF7B4FFFE
:100DCC00B0F5007F23D1802C29D9A02C8CBF022018
:100DDC000120174A136823F00703034313601368B9
:100DEC0003F00703181A18BF012003B030BDAB6D18
:100DFC0043F08053AB65AB6D03F080530193019BC3
:100E0C00FFF792FFAB6D23F08053AB65D8E7802CD6
:100E1C0007D808D0A4F1700358425841D9E70020F4
:100E2C00D7E70320D5E70220D3E700BF001002402C
:100E3C00002002402F4B9A6812F00C0F10B509D00D
:100E4C009A6802F00C020C2A2DD1DA6802F0030227
:100E5C00012A28D11A682849120755BFD3F89420C3
:100E6C001A68C2F30322C2F3031251F822209968C4
:100E7C0011F00C0F0CBF10460020996801F00C010A
:100E8C000C2930D1DC68D868C0F30210411C04F086
:100E9C000300022819D0032826D0B2FBF1F2D8683F
:100EAC00C0F3062017E09A6802F00C02042A07D05F
:100EBC009A6802F00C02082A04D110480022DCE7E0
:100ECC000F48FBE700200246D7E7DA680C48C2F36C
:100EDC000622B0FBF1F0DB68C3F3416301335043EE
:100EEC005B00B0FBF3F010BDDA680448C2F30622D5
:100EFC00EFE700BF001002401842000800127A0011
:100F0C000024F4002DE9F341054608B901208DE0D9
:100F1C000368D80638D5AB4CA36813F00C0F61D11D
:100F2C002368990702D5AB69002BEFD02368286A98
:100F3C001A0756BFD4F8943023681B0903F0F0034A
:100F4C0083423AD2FFF734FF0028DFD1236843F005
:100F5C000803236023682A6A23F0F00313432360F9
:100F6C006368EA6923F47F4343EA02236360FFF773
:100F7C0061FFA368944AC3F30313D35CD840934B2B
:100F8C0018600020FFF71CF92B68D80761D42B6878
:100F9C00990700F1A9802B681A0700F1E7802B68EC
:100FAC005B0700F115812B689A0600F17C81AA6A17
:100FBC00002A40F0A381002038E0236843F00803A6
:100FCC002360236823F0F003034323606368EA691A
:100FDC0023F47F4343EA02236360FFF7E9FE002812
:100FEC00C5D093E7AB6923B3236843F001032360B7
:100FFC00FFF70EF9064623689B0711D5236843F0CB
:10100C000803236023682A6A23F0F0031343236048
:10101C006368EA6923F47F4343EA02236360B3E71E
:10102C00FFF7F6F8801B0228E5D9032002B0BDE8D3
:10103C00F081236823F001032360FFF7E9F80646EB
:10104C0023689F07A0D5FFF7E3F8801B0228F7D988
:10105C00EBE75C4CA36803F00C03082B09D0A368E6
:10106C0003F00C030C2B0BD1E36803F00303032BED
:10107C0006D123689A038AD56B68002B87D145E784
:10108C006B68B3F5803F10D1236843F48033236041
:10109C00FFF7BEF8064623689B033FF578AFFFF7D2
:1010AC00B7F8801B6428F6D9BFE7B3F5A02F04D19D
:1010BC00236843F480232360E6E7226822F480321D
:1010CC002260226822F480222260002BE0D1FFF7FC
:1010DC009FF8064623689F037FF559AFFFF798F8F2
:1010EC00801B6428F6D9A0E7364CA36803F00C03E8
:1010FC00042B09D0A36803F00C030C2B13D1E36869
:10110C0003F00303022B0ED123685E0503D5EB68B5
:10111C00002B3FF4FBAE63682A6923F0F85343EAD3
:10112C000263636037E7EB687BB1236843F4807339
:10113C002360FFF76DF8064623685805EBD4FFF7DC
:10114C0067F8801B0228F7D96FE7236823F48073B4
:10115C002360FFF75DF80646236859057FF51BAF42
:10116C00FFF756F8801B0228F6D95EE76B69154C21
:10117C009BB1D4F8943043F00103C4F89430FFF7DA
:10118C0047F80646D4F894309F073FF508AFFFF7B1
:10119C003FF8801B0228F5D947E7D4F8943023F0A8
:1011AC000103C4F89430FFF733F80646D4F89430B2
:1011BC0098077FF5F4AEFFF72BF8801B0228F5D9C2
:1011CC0033E700BF00100240084200081001002065
:1011DC00794CA36DD90027D4A36D43F08053A3653C
:1011EC00A36D03F080530193019B0127734E336869
:1011FC00DA051BD5AB68012B29D1D4F8903043F01C
:10120C000103C4F89030FFF703F841F28838064622
:10121C00D4F89030980740D5002F3FF4C4AEA36D9E
:10122C0023F08053A365BEE60027DFE7336843F461
:10123C0080733360FEF7ECFF80463368DB05D9D44E
:10124C00FEF7E6FFA0EB08000228F6D9EDE6052B29
:10125C0006D1D4F8903043F00403C4F89030CCE7B6
:10126C00D4F8902022F00102C4F89020D4F89020F9
:10127C0022F00402C4F89020002BC4D1FEF7C8FF62
:10128C0041F288380646D4F890309907C4D5FEF759
:10129C00BFFF801B4045F6D9C7E6FEF7B9FF801BA0
:1012AC004045B5D9C1E66B6A434C9BB1D4F8983034
:1012BC0043F00103C4F89830FEF7AAFF0646D4F8B1
:1012CC0098309B073FF573AEFEF7A2FF801B0228F8
:1012DC00F5D9AAE6D4F8983023F00103C4F8983075
:1012EC00FEF796FF0646D4F898309F077FF55FAE61
:1012FC00FEF78EFF801B0228F5D996E62E4CA368CC
:10130C0003F00C030C2B3FF401AE2368022A23F0EC
:10131C008073236036D1FEF77BFF06462368980165
:10132C002AD4AB6B6A6BDB0643EA0223EA6A1343EB
:10133C002A6B013A43EA0213EA6B5208013A43EA78
:10134C0042532A6C5208013A43EA4263E360236831
:10135C0043F080732360E36843F08073E360FEF72F
:10136C0057FF0546236899013FF525AEFEF750FF60
:10137C00401B0228F6D958E6FEF74AFF801B0228CC
:10138C00CCD952E623681A015EBFE36823F003034D
:10139C00E360E36823F0887323F48033E360FEF7A3
:1013AC0037FF054623689B017FF505AEFEF730FF3E
:1013BC00401B0228F6D938E60010024000700040AD
:1013CC002DE9F0410E46044610B90120BDE8F0812C
:1013DC00404A136803F007038B4228D32368D907CC
:1013EC0030D421688A075AD43A4A136803F00703A9
:1013FC009E425CD311F0040F374D63D10B0706D519
:10140C00AB68226923F4605343EAC203AB60FFF775
:10141C0011FDAB68314AC3F30313D35CD840304B96
:10142C0018600020FEF7CCFE0020BDE8F0811368A8
:10143C0023F007030B431360136803F0070399426F
:10144C00C3D1CBE76268244D032A2B681BD113F060
:10145C00007FBAD0AB6823F003031343AB60FEF7F5
:10146C00D7FE41F288380746AB68626803F00C037C
:10147C00B3EB820FB5D0FEF7CBFEC01B4045F3D9C2
:10148C000320BDE8F081022A02D113F4003FE0E70B
:10149C0012B913F0020FDCE713F4806FD9E70E4A90
:1014AC00A068936823F0F003034393609CE71368F0
:1014BC0023F0070333431360136803F007039E42C2
:1014CC0083D197E7AB68E26823F4E0631343AB6026
:1014DC0094E700BF002002400010024008420008C0
:1014EC0010010020014B1868704700BF100100204C
:1014FC00F8B5444BDA6812F0030F05460E461C464D
:10150C00006839D0DA6802F0030282424BD1002A1B
:10151C0049D0DB686A68C3F302130133934242D1AA
:10152C00236823F080632360FEF772FE074623686E
:10153C001A0141D4AF68002E45D0012E4FD122693B
:10154C00286922F4C002400822F4FE42013842EA23
:10155C00072242EA40522261236843F080632360F1
:10156C00FEF756FE064623681B0145D52369AA697A
:10157C00134323610020F8BD022810D0032814D097
:10158C00012810D11B689F07F5D5E3686A6823F022
:10159C007303013A184340EA0210E060C0E71B688D
:1015AC0013F4806FF1D10120F8BD1A689103ECD4CB
:1015BC001B6813F4802FF5E7FEF72AFEC01B0228E8
:1015CC00B5D90320F8BD2269E96822F07842C90632
:1015DC0041EA072322F4FE4213432361BCE723694B
:1015EC00686923F0C063400823F4FE43013843EAE2
:1015FC00072343EA4063F0E7FEF70AFE801B02284C
:10160C00B1D9DEE7001002402DE9F743056815F467
:10161C00006504460ED0416CB1F5000F5BD0B1F5FE
:10162C00400F5DD0002966D10430FFF761FF0546FD
:10163C00002855D023689E036DD5AC4EB36DD800F1
:10164C005BD4B36D43F08053B365B36D03F080533B
:10165C000193019B0127DFF89882D8F8003043F4FE
:10166C008073C8F80030FEF7D3FD8146D8F80030FF
:10167C00D90544D5002D49D1D6F8903013F44073D8
:10168C0014D0E26D934211D0D6F89030D6F8902059
:10169C0042F48032C6F89020D6F8902023F44073A0
:1016AC0022F48032C6F89020C6F89030DA0709D5BB
:1016BC00FEF7AEFD41F288398046D6F890309B0794
:1016CC0040F1EB80D6F89030E26D23F44073134375
:1016DC00C6F890301AE0854AD36843F48033D3605F
:1016EC00824A616CD2F8883023F440030B43C2F871
:1016FC00883000259EE701259CE70027ABE7FEF725
:10170C0087FDA0EB09000228B0D903251FB1B36DEA
:10171C0023F08053B3652368D80708D57349206A32
:10172C00D1F8882022F003020243C1F888209907DF
:10173C0008D56E49606AD1F8882022F00C02024369
:10174C00C1F888205A0708D56849A06AD1F88820C2
:10175C0022F030020243C1F888209F0608D5634965
:10176C00E06AD1F8882022F440620243C1F8882054
:10177C009E0508D55D49E06BD1F8882022F4402203
:10178C000243C1F88820580508D55849206CD1F877
:10179C00882022F440120243C1F88820590608D54B
:1017AC005249206BD1F8882022F440520243C1F8F0
:1017BC0088201A0608D54D49606BD1F8882022F490
:1017CC0040420243C1F88820DF0508D54749A06B89
:1017DC00D1F8882022F440320243C1F888209E04BC
:1017EC000FD5424AA16CD2F8883023F040630B43EA
:1017FC00B1F1006FC2F8883057D1D36843F480132D
:10180C00D360236818030FD5384AE16CD2F88830BE
:10181C0023F040630B43B1F1006FC2F888304FD115
:10182C00D36843F48013D360236859030FD52F4A30
:10183C00216DD2F8883023F040630B43B1F1006F77
:10184C00C2F8883047D1D36843F48013D36023683F
:10185C005A0412D52549626DD1F8883023F04053D3
:10186C001343B2F1805FC1F8883006D10221201DEC
:10187C00FFF73EFE002818BF054623681B0408D559
:10188C001A4AA16DD2F8883023F080430B43C2F87A
:10189C008830284603B0BDE8F083FEF7B9FCA0EB16
:1018AC00080048457FF609AF2FE7B1F1806FA8D14A
:1018BC000121201DFFF71CFE002818BF0546A0E7DC
:1018CC00B1F1806FB0D10121201DFFF711FE00286E
:1018DC0018BF0546A8E7B1F1806FB8D10121201DD2
:1018EC00FFF706FE002818BF0546B0E700100240BF
:1018FC0000700040024A136843F004031360704701
:10190C000010024003685A6822F0E0025A604268F4
:10191C00B2F5827F0AD18268B2F5004F02D0B2F5DF
:10192C00806F03D11A6822F040021A60826AB2F505
:10193C00005F07D11A6822F400521A601A6842F448
:10194C0000521A60012380F85D30002380F85C306F
:10195C000320704770B505460C4616462B689868F0
:10196C0010F080000DD0621CF9D024B92846BDE8D7
:10197C007040FFF7C7BFFEF74BFC801B8442EDD8CD
:10198C00F4E770BDF7B506460C4615461F463168A0
:10199C00886820400ED0B4F5C06F01BF0A7BD2B26C
:1019AC008DF807209DF807306B1CF1D025B9304617
:1019BC00FFF7A8FF03B0F0BDFEF72AFCC01B854261
:1019CC00E5D8F4E770B513460D4616460A464FF4B3
:1019DC00C0510446FFF7D6FF28B1236E43F0200315
:1019EC00236603200FE0324629462046FFF7B2FF5C
:1019FC000028F2D133462A464FF4C0612046FFF747
:101A0C00C1FF0028E9D170BD70B5044600284AD04A
:101A1C000023836290F85D3003F0FF021BB980F85D
:101A2C005C2001F0A9FC0223216884F85D300B686E
:101A3C00E26823F04003B2F5E06F0B604FF0000357
:101A4C002ED91846B2F5706F18BFA362236B2BB951
:101A5C00B2F5E06F8CBF022301232363A668636891
:101A6C00A56933432669334366693343E6693343D7
:101A7C00266A3343A66A334305F4007633430B607E
:101A8C00636A1A43636B2D0C1A4305F004052A4351
:101A9C000243012300204A60206684F85D3070BD4B
:101AAC004FF48050D0E7012070BD2DE9F3411E4664
:101ABC0090F85C30012B04460D46904600F0B18046
:101ACC00012380F85C30FEF7A3FB074694F85D0019
:101ADC00C0B2012840F0A380002D57D0B8F1000F00
:101AEC0054D0032384F85D30002323662364A4F8C8
:101AFC003E80A4F84430A4F846302365E364A36820
:101B0C002068A563B3F5004F08BF0368A4F83C80B8
:101B1C0004BF43F48043036003685B065EBF036845
:101B2C0043F040030360E368B3F5E06F63683ED9AC
:101B3C001BB1E38F9BB2012B06D135F8023BC3607E
:101B4C00E38F013B9BB2E387E38F9BB2A3B93A4689
:101B5C0031462046FFF736FF00285DD1A36833B924
:101B6C0001932368DA6801929B680193019B206EB4
:101B7C00003018BF012009E023689A68900703D54C
:101B8C0035F8022BDA60DBE74EB90320012384F829
:101B9C005D30002384F85C3002B0BDE8F081711C2C
:101BAC00D2D0FEF735FBC01B8642CDD8EDE71BB17A
:101BBC00E38F9BB2012B0AD1E38F9BB2012B16D979
:101BCC0035F8023BC360E38F023B9BB2E387E38FA4
:101BDC009BB2002BBBD023689A68920712D5E28F78
:101BEC0092B2012A0BD935F8022BDA60EBE72B788D
:101BFC000373E38F013B9BB2E3870135E7E72A7858
:101C0C001A73F6E7002EC0D0731CE0D0FEF700FB71
:101C1C00C01B8642DBD8B8E7202323669EE7022050
:101C2C00B4E70220B8E784B001A880E80E0004B045
:101C3C0000207047B0F840309BB243F43F4343F070
:101C4C008003A0F8403000207047B0F8403023F4F7
:101C5C007E535B045B0CA0F84030002070470020E2
:101C6C00704784B010B503AC84E80E000022012349
:101C7C00A0F84030A0F84020A0F84420A0F8502054
:101C8C00B0F84030BDE810409BB243F43F4343F002
:101C9C008003A0F8403004B010467047F0B50C78C3
:101CAC0030F8242022F4EC42034622F07002C8786B
:101CBC001204120C032850D8DFE800F0024C04493F
:101CCC0042F40072002023F824200E78AB4C35B27D
:101CDC0033F8252092B22240324342F4004242F0C3
:101CEC00800223F825200D7B0A78002D40F082809D
:101CFC004F78CE88082597B3B3F8507015FB023295
:101D0C0012FA87F226F00106A2F800640D7833F877
:101D1C002520560609D533F8252092B2144044F4F8
:101D2C00004444F0C00423F82540CA780978944C48
:101D3C0009B2012A33F8212092B202EA040201D03E
:101D4C0082F0200242F4004242F08002C5E042F4EC
:101D5C00C062B7E742F48062B4E70120B3E7B3F89E
:101D6C00504015FB023212FA84F226F00106A2F85A
:101D7C0004640A78B3F850600C6915FB0232B6B2F1
:101D8C0002F2064254B9945B24F44064A404A40CFB
:101D9C006FEA44446FEA5444945307E03D2C24D832
:101DAC006508E40748BF0135AD0295530C7833F84C
:101DBC00242052040DD533F8242022F4E04222F0E2
:101DCC0070021204120C42F4404242F0800223F8DA
:101DDC002420097833F8212022F4804222F070026A
:101DEC001204120C82F44052ACE7664D640945EAC9
:101DFC008424D1E712B233F82250ADB2254045F419
:101E0C00014545F0800523F822500E78B3F8505068
:101E1C00082212FB063616FA85F50E8926F0010605
:101E2C00A5F800640E78B3F8505012FB063212FA83
:101E3C0085F24D8925F00105A2F804540A784D78F5
:101E4C0012B2002D4CD133F822506F0409D533F85F
:101E5C002250ADB22C4044F4404444F0800423F8AA
:101E6C0022400C7833F8242056060DD533F8242064
:101E7C0022F4E04222F070021204120C42F40042EE
:101E8C0042F0C00223F824200C7833F8242022F4EA
:101E9C00E04222F070021204120C42F4004242F0B2
:101EAC00C00223F824200D7833F8252022F4804238
:101EBC0022F070021204120C48F2800482F4405298
:101ECC00224323F82520097833F8212022F4E0421C
:101EDC0022F040021204120C224323F82120F0BD00
:101EEC0033F822506D0409D533F82250ADB22C4092
:101EFC0044F4404444F0800423F822400C7833F836
:101F0C00242052060DD533F8242022F4E04222F08E
:101F1C0070021204120C42F4004242F0C00223F888
:101F2C0024200C78164D33F8242022F4E04222F0C1
:101F3C0070021204120C42F4404242F0800223F868
:101F4C0024200C78CA7824B2012A33F8242092B2C7
:101F5C0002EA050218BF82F0200242F4004242F06D
:101F6C00800223F82420097833F8212022F48042BF
:101F7C0022F070021204120CE4E600BF8F8FFFFFF8
:101F8C00BF8FFFFF0080FFFF10B50B780C7B4A78EA
:101F9C001BB2002C3DD112B330F8232052060DD5C4
:101FAC0030F8232022F4E04222F070021204120CCA
:101FBC0042F4004242F0C00220F823200A7830F8A4
:101FCC00223023F4E04323F040031B041B0C43F4A6
:101FDC00004343F0800320F82230002010BD30F87D
:101FEC00232054040DD530F8232022F4E04222F0B3
:101FFC0070021204120C42F4404242F0800220F8AB
:10200C0023200A7830F8223023F4804323F0700325
:10201C00DBE7002A4ED130F8232052040DD530F8DE
:10202C00232022F4E04222F070021204120C42F43B
:10203C00404242F0800220F823200A7830F8223007
:10204C005C060DD530F8223023F4E04323F0700306
:10205C001B041B0C43F4004343F0C00320F8223054
:10206C000A7830F8223023F4E04323F070031B0489
:10207C001B0C43F4004343F0C00320F822300C78CF
:10208C0030F8243023F4804323F070031B041B0C22
:10209C0048F28002134320F82430097830F82130BC
:1020AC0023F4E04323F040031B041B0C134320F8E0
:1020BC00213092E730F8232052040DD530F823203C
:1020CC0022F4E04222F070021204120C42F440425C
:1020DC0042F0800220F823200A7830F822305B0688
:1020EC000DD530F8223023F4E04323F070031B04A9
:1020FC001B0C43F4004343F0C00320F822300A7851
:10210C0030F8223023F4E04323F070031B041B0C43
:10211C0043F4404343F0800320F822300C7830F82D
:10212C00243023F4E04323F040031B041B0C48F23F
:10213C008002134320F82430097830F8213023F43E
:10214C00804323F07003AFE70A784B7812B28BB15F
:10215C0030F8223023F4E04323F040031B041B0C23
:10216C0083F0100343F4004343F0800320F8223043
:10217C000020704730F8223023F4804323F07003A2
:10218C001B041B0C83F48053ECE70A784B7812B2D7
:10219C0023B330F822305B060DD530F8223023F40F
:1021AC00E04323F070031B041B0C43F4004343F087
:1021BC00C00320F822300A7830F8223023F4E043B0
:1021CC0023F040031B041B0C83F0300343F4004347
:1021DC0043F0800320F822300020704730F8223082
:1021EC005B040DD530F8223023F4E04323F0700368
:1021FC001B041B0C43F4404343F0800320F82230B3
:10220C000A7830F8223023F4804323F070031B0447
:10221C001B0C83F44053D9E711B98023A0F84C3040
:10222C0000207047B0F858306FEA43436FEA5343CD
:10223C009BB2A0F8583000207047B0F85830C3F368
:10224C000E03A0F8583000207047B0F8440080B25C
:10225C0070470020704710B502F5806201331044BE
:10226C0023F0010302460344141A9A420C4400D191
:10227C0010BD248822F8024BF6E70000F8B504469E
:10228C0048788A690B690F7B01280D466BD19A42FD
:10229C0097BF0023D21A8B61134688BF8A619EB206
:1022AC000FBBCA88496933462046FFF7D4FFB4F800
:1022BC0050302A7804F2024111FA83F323F8326089
:1022CC002A7834F8223023F4E04323F040031B0433
:1022DC001B0C83F0300343F4004343F0800324F8D9
:1022EC0022300020F8BD09780AB234F8222012F00E
:1022FC00400FB4F8502015BF04F2064004F202401F
:10230C0010FA82F210FA82F215BF22F8313022F85C
:10231C0031306A892A89696933462046FFF79BFF69
:10232C006B782A787BB912B234F8223023F4E0436C
:10233C0023F070031B041B0C43F4004343F0C00355
:10234C0024F82230BCE7012BBAD112B234F8223077
:10235C0023F4E04323F070031B041B0C43F44043B1
:10236C0043F08003ECE79A4295BF0023D21A8B61AD
:10237C008A6198BF13460978A7B9B4F8502004F2C3
:10238C00064010FA82F202EBC102002B37D11388FF
:10239C0023F440639B049B0C6FEA43436FEA534363
:1023AC00138034E090B9B4F8502004F2024010FAD3
:1023BC0082F202EBC102ABB9118821F440618904AD
:1023CC00890C6FEA41416FEA514111806A78287893
:1023DC0072BBB4F8502004F2064111FA82F202EBFF
:1023EC00C002D2E73D2B05D85908D80748BF0131A8
:1023FC008902EAE71448590940EA8121E5E73D2BB7
:10240C0011D85908DB0748BF0131890211802A789D
:10241C0034F8223023F4804323F070031B041B0C8C
:10242C0083F4405357E75909074B43EA8123B7E735
:10243C00012A01BFB4F8501004F2064212FA81F1DD
:10244C0021F83030E3E700BF0080FFFF02F5806227
:10245C00F0B510445D080A4607462E46023236B9DE
:10246C00DB0744BF30F8153001F81530F0BD37F8F4
:10247C00024B02F8024C240A02F8014C013EEDE733
:10248C00D0F8943210B5D0F890425BB194F80002B9
:10249C00FF2807D09B6894F8012221469847FF2318
:1024AC0084F80032002010BD43230380004870479D
:1024BC003800002043230380004870477C00002034
:1024CC004323038000487047CC0000200A2303807C
:1024DC0000487047C000002038B50546D0F890423F
:1024EC0001F046F9D5F89032C4F80C024BB1D5F88E
:1024FC009432D4F80402DB6804F503719847002089
:10250C0038BD022038BDF8B5D0F89062CEB1142396
:10251C0003FB0103DA6982B1D0F8984204EB411451
:10252C00A56BB2FBF5F405FB142434B9DC6122462F
:10253C00234601F001F92046F8BD0020C6F814022C
:10254C00F8BD0220F8BD2DE9F7430A78D0F8907257
:10255C004FF0000812F0600405460E468DF8058019
:10256C00ADF8068028D0202C47D1CC884B78E4B12C
:10257C00120611D5D0F894223946D2F80890184694
:10258C002246C847F2883946284600F027FC4446C4
:10259C00204603B0BDE8F08387F8003287F801428B
:1025AC002246394600F02FFCF1E7D0F89422184669
:1025BC0095682246A847EBE74F780A2F0DD00B2FD2
:1025CC0015D0D7B990F87432032B14D102220DF127
:1025DC00060100F003FC3C46DAE790F87432032B5A
:1025EC0009D101220DF1050100F0F8FBD0E790F8BC
:1025FC007432032BCCD03146284600F0C8FB0224A1
:10260C00C6E738B504460025812101F04DF80121BB
:10261C00E562204601F048F8C4F858518221204662
:10262C0001F042F8D4F8903225644BB1D4F89432CE
:10263C005B689847D4F8900201F0C8F8C4F890523F
:10264C00002038BD037C2DE9F0410446CBBB4FF490
:10265C00007302228121012501F016F8E5624FF486
:10266C00007329460222204601F00EF8C4F8585196
:10267C000823032282212046012501F005F8256458
:10268C004FF4077001F09EF80646C4F8900258B358
:10269C00D4F894321B68984794F810800027C6F839
:1026AC001472C6F81872B8F1000F13D14FF40073FE
:1026BC00D6F804222946204601F04CF84046BDE8E5
:1026CC00F081402302228121012500F0DDFFE5622B
:1026DC004023C6E74023D6F804222946204601F0C1
:1026EC0039F83846BDE8F0812846BDE8F08119B1CB
:1026FC00C0F894120020704702207047D0F8903236
:10270C000020C3F80812C3F810227047D0F890329A
:10271C000020C3F804127047D0F8902210B562B1B3
:10272C00047C44B94FF40073D2F80422012101F067
:10273C0011F8002010BD4023F6E7022010BD08B5AB
:10274C0080B1D0F88C3213B10023C0F88C3209B1AF
:10275C00C0F88812012380F87432027000F03AFF3E
:10276C00002008BD022008BD19B1C0F88C12002051
:10277C0070470220704708B500F078FF002008BDB4
:10278C0008B5D0F88C320BB9022008BD1B689847ED
:10279C000028F9D108BD08B5D0F88C325B68984791
:1027AC00002008BD38B5044600F52075284600F019
:1027BC00DAFA012394F88012C4F86C32B4F8863239
:1027CC00C4F8703201F01F03012B0ED007D3022B7B
:1027DC0010D001F08001204600F074FF03E0294680
:1027EC00204600F0F1F8002038BD2946204600F0C4
:1027FC000DFAF8E72946204600F02DFAF3E770B5FC
:10280C000546164639BBD0F86C32032B1ED1D0F8D6
:10281C004C31D0F8502193420BD99B1A9A42C0F8F4
:10282C004C318CBF9AB292B2314600F0FBFA0020C8
:10283C0070BDD0F88C321B6923B190F87422032A36
:10284C0000D19847284600F0F5FAF0E7052BEED1B9
:10285C0000F038FFEBE7D0F88C329B692BB190F885
:10286C007422032A01D19847E1E7022070BD70B5AC
:10287C00134604460E46002948D1D0F86C22022A91
:10288C003DD1056A426A954214D9AA1A02621946C8
:10289C0092B200F0B0FA33461A461946204600F0C0
:1028AC0059FF94F87832012B4FF000003AD184F89C
:1028BC00780270BDC369B3FBF2F502FB153565B93F
:1028CC009A420AD8D0F87022934206D22A4600F0D7
:1028DC0092FAC4F870522B46DEE7D4F88C32DB68DF
:1028EC002BB194F87422032A01D1204698478021F9
:1028FC00204600F0E7FE204600F0A7FAD1E732F0C0
:10290C000403CED1802100F0DDFECAE7D0F88C3272
:10291C005B6933B190F87422032A02D198470020E6
:10292C0070BD022070BD70B5002204461146012511
:10293C004026402300F0A8FE33468021C4F84451C1
:10294C00C4F850610022204600F09EFED4F890326C
:10295C00A5610021666284F87452C4F86C1261603F
:10296C00C4F87C1223B1D4F88C3220465B689847AB
:10297C00002070BD01740020704790F8743280F80C
:10298C007532042380F874320020704790F8753249
:10299C0080F874320020704708B590F87422032A2E
:1029AC0004D1D0F88C32DB6903B19847002008BD04
:1029BC0010B58021044600F085FE20460021BDE8BC
:1029CC00104000F07FBE000037B50B7803F06003B9
:1029DC00202B04460D4614D0402B12D0002B40F077
:1029EC0095804B78092B00F29080DFE813F0E7001C
:1029FC0001018E00FA008E00820013008E00D200BE
:102A0C00A000D4F88C3229469B68204698470020B9
:102A1C0003B030BD4B881A0A013A0E2A75D8DFE88C
:102A2C0002F02428357474555E7474747474747460
:102A3C000800D0F88832DB69207C0DF1060198473C
:102A4C00BDF8062052B1EB8843B19A4228BF1A4612
:102A5C0001462046ADF8062000F0C0F9EB88002BAB
:102A6C00D5D1204600F0E6F9D1E7D0F888321B68C2
:102A7C00E2E7027CD0F88C3232B99B6A0DF1060089
:102A8C00984702234370DBE7DB6AF7E7DBB2052BE1
:102A9C003BD8DFE803F003070B0F1317D0F888328D
:102AAC005B68C9E7D0F888329B68C5E7D0F88832F4
:102ABC00DB68C1E7D0F888321B69BDE7D0F88832F3
:102ACC005B69B9E7D0F888329B69B5E7037CE3B959
:102ADC00D0F88C320DF106005B6B9847B0E7037CA5
:102AEC009BB9D0F88C320DF106001B6B984707236D
:102AFC00C8E78B884BB9CB883BB94D887F2D04D860
:102B0C0090F87432032BE9B203D12046FFF750FF43
:102B1C007DE780F8761200F001FE204600F08AF97D
:102B2C001DB1022384F8743271E70123FAE7897826
:102B3C00354D01292970E8D890F87432022B08D051
:102B4C00032B14D0FFF734FF29782046FFF723FE20
:102B5C005DE7002985D001210323416080F87432A0
:102B6C002046FFF70DFE02287FF47BAFCDE731B98D
:102B7C00022380F874324160FFF70DFE71E7416863
:102B8C0001293FF46EAFC9B2FFF705FE29786160E9
:102B9C00E6E7CA88012AB8D190F87432002BB4D079
:102BAC00022B03D9032BB0D1011D03E001460023F6
:102BBC0041F8083F204600F011F928E790F87432EC
:102BCC00013B022BA1D8CB88022B9ED10123C360E1
:102BDC00D0F87C320BB10323C360022204F10C0148
:102BEC00E8E74B88012B7FF412AFC4F87C3238E74E
:102BFC0090F87432013B022B87D84B88012B7FF461
:102C0C0006AF0023F1E700BF8806002038B50B782B
:102C1C0003F06003202B04460D4602D0402B00D05D
:102C2C00B3B994F87432013B022B10D82B79012BD9
:102C3C000DD8D4F88C3229469B6820469847EB88EF
:102C4C001BB910B9204600F0F5F8002038BD20461D
:102C5C00FFF7AEFEF9E738B50A7802F06002202AD9
:102C6C0004460B4613D0402A11D06AB95D788A8885
:102C7C00012DD1B21FD035D3032D05D190F874227C
:102C8C00022A26D0032A0AD0FFF792FE05E0D4F8D8
:102C9C008C221946926820469047002038BD5A88ED
:102CAC002AB94A0603D0DB880BB900F00BFD20468D
:102CBC0000F0C0F8F1E790F87422022A09D0032A38
:102CCC00E2D15B88002BE8D14D06F0D000F008FD76
:102CDC00EDE74B0617D000F0F5FC8021204600F004
:102CEC00F1FCDAE790F87432022B0ED0032BCBD127
:102CFC0012F0800F4FF0140301F00F0203FB0202DD
:102D0C0012D09269DAB92046BEE74906FBD1130608
:102D1C004CBF00F1140100F5A07100230B600222DE
:102D2C00204600F05BF8B8E7D2F84421002AEAD03C
:102D3C0001F07F0503FB050505F5A07504E001F026
:102D4C007F0505FB0335054411F07F0303D12B6090
:102D5C0002222946E4E7204600F0D0FC08B101230A
:102D6C00F5E72860F4E70B7803704B784370CA786A
:102D7C008B7803EB022343804A790B7903EB022314
:102D8C008380CA798B7903EB0223C380704710B51B
:102D9C008021044600F096FC20460021BDE810403E
:102DAC0000F090BC30B588B105462B1A15F8014BD4
:102DBC00DBB2002CF9D101335B0013800B700323C1
:102DCC004B700138022310F8015F05B930BD5A1C55
:102DDC00D2B2CD540233DBB28C54F4E710B51346A7
:102DEC000222C0F86C22C3610A460362002100F083
:102DFC00A3FC002010BD08B513460A46002100F0C4
:102E0C009BFC002008BD10B513460322C0F86C22B1
:102E1C00C0F848310A46C0F84C31002100F09AFC49
:102E2C00002010BD08B513460A46002100F092FCA4
:102E3C00002008BD08B50423C0F86C3200231A46E4
:102E4C00194600F079FC002008BD08B50523C0F830
:102E5C006C3200231A46194600F07CFC002008BD99
:102E6C00F7B50024124F06462546B44201DB03B0E9
:102E7C00F0BD002210214FF09040FDF719FB00220D
:102E8C0010214FF090408DF804508DF80550FDF74F
:102E9C000FFB6423012201A93846FEF706FE01222E
:102EAC0010214FF09040FDF703FB0134DDE700BF2C
:102EBC00240B002070B5AEB0FDF72EFF304AD2F8CF
:102ECC00903023F01803C2F890301423059300239C
:102EDC000C936023012402250D930726282305A8B3
:102EEC0007940B940F9510941194129313961495B8
:102EFC001595FEF707F800B1FEE70F2203230290A9
:102F0C0003900490042168468DE80C00FEF758FAF3
:102F1C0000B1FEE71B4B16934FF480732D934FF0CB
:102F2C008063289318231E902590199316A84FF4AC
:102F3C008013179418941A961B951C951D93FEF7E5
:102F4C0063FB00B1FEE74FF40070FDF7F5FE04469D
:102F5C0000B1FEE7FEF7C6FA42F21073B0FBF3F0D5
:102F6C00FDF7BCF90420FDF7CFF9FEF7C3FC2246B0
:102F7C0021464FF0FF30FDF771F92EB070BD00BF48
:102F8C0000100240012202000F4810494FF4E06289
:102F9C0008B54FF48273C2604FF4007280E80A00E7
:102FAC00826100233822836003614361C261036242
:102FBC0043628362072203630823C2624363FEF702
:102FCC0023FD00B1FEE708BD240B002000300140BA
:102FDC00384BF0B5DA6C384F384D42F00402DA64F5
:102FEC00DA6C8BB002F004020192019ADA6C42F0B6
:102FFC008002DA64DA6C02F080020292029ADA6CD5
:10300C0042F00102DA64DA6C02F001020392039AD4
:10301C00DA6C42F00202DA64DB6C03F00203049314
:10302C00384600224FF40051049BFDF741FA002270
:10303C0048F218014FF09040FDF73AFA002228466A
:10304C0041F2FC41FDF734FA002401264FF4005301
:10305C0005A938460593069607940894FDF766F97A
:10306C0040F2071305A94FF090400593069407947E
:10307C00FDF75CF948F2180305A94FF09040059351
:10308C00069607940894FDF751F940F6030305A939
:10309C002846059306940794FDF748F941F2FC4342
:1030AC0005A928460593069607940894FDF73EF962
:1030BC000BB0F0BD001002400008004800040048AE
:1030CC0030B50A4D0C461023621AD2B2904202D887
:1030DC00580080B230BD14F8012B82EAD312D2B260
:1030EC0035F8122082EA03239BB2EDE70840000872
:1030FC002DE9F041CE000436F6B207463046904634
:10310C000D4600F013FC3B0A044603704770014661
:10311C000220FFF7D5FF030AA370013D062303FB32
:10312C000585E070A8F106080427454511D1002259
:10313C0010214FF09040FDF7BBF964233246214635
:10314C001648FEF7B2FC012802D017D3032819D178
:10315C00FEE700203B182A5CDBB201300628E25463
:10316C00F8D12946FFF7ACFFBB1DDBB2020AE254D3
:10317C00234408375870FFB2063DD6E704210848AF
:10318C00FDF79BF94FF0904001221021FDF790F9CB
:10319C002046BDE8F04100F0D1BB00BF240B00205D
:1031AC00000400482DE9F84301EB41046400054696
:1031BC0020460E4600F0BAFB8146204600F0B6FBD6
:1031CC000624804606FB0444281F4B4609EB0405E5
:1031DC0041464FF0FC0E00240633AB4201F10601D0
:1031EC000BD14A4631460120FFF782FF4246314659
:1031FC002420BDE8F843FFF77BBF50F8047F03F8A9
:10320C00027CC7F3072202F00F0CC7F3014742F010
:10321C000F0203F806EC03F8054C03F8044C03F812
:10322C00034C03F801CC01F8062C01F8057C01F8DD
:10323C00044C01F8034C01F8024C01F8014CCBE7AB
:10324C0008B5FCF7D1FFFFF735FEFFF7C1FEFFF71E
:10325C009BFE00F011F9012210214FF09040FDF778
:10326C0027F9012280211E481E4CFDF721F902206E
:10327C00FFF7F6FD0320FCF7D1FF0220FFF7F0FD6E
:10328C0000230221174823606360FFF78BFF4FF484
:10329C007A70FCF7C3FF4AF6AA2302211148236077
:1032AC006360FFF77FFF4FF47A70FCF7B7FF45F2CE
:1032BC00555302210B4823606360FFF773FF4FF4F3
:1032CC007A70FCF7ABFF4FF6FF73022105482360C1
:1032DC006360FFF767FF4FF47A70FCF79FFFCFE74F
:1032EC0000040048100C0020FEE70000214B07B53D
:1032FC001A6E42F001021A661A6E02F00102009276
:10330C00009A9A6D42F080529A659B6D03F080533F
:10331C0001930320019BFCF78FFF002211466FF0F5
:10332C000B00FCF79BFF002211466FF00A00FCF724
:10333C0095FF002211466FF00900FCF78FFF002269
:10334C0011466FF00400FCF789FF002211466FF064
:10335C000300FCF783FF002211466FF00100FCF71D
:10336C007DFF002211464FF0FF30FCF777FF03B0D2
:10337C005DF804FB0010024000B503681D4A93423F
:10338C0089B01BD11C4B1A6E42F480521A661B6E0C
:10339C0003F480530193019BE023039302230493D2
:1033AC0000230593032306930523079303A94FF0EA
:1033BC009040FCF7BBFF09B05DF804FB0F4A934249
:1033CC00F9D10D4B0E489A6D42F480429A659B6D73
:1033DC0003F480430293029B4FF460430393022354
:1033EC00049300230593032306930523079303A952
:1033FC00DFE700BF00300140001002400038004001
:10340C00000400487047FEE7FEE7FEE7FEE7704762
:10341C007047704708B5FCF7F3FEBDE80840FCF7B1
:10342C0080BF00000148FDF781B900BF9416002051
:10343C000F49D1F8883043F47003C1F888300D4B34
:10344C001A68002042F001021A6098601A6822F093
:10345C00A85222F410221A604FF48052DA601A68D3
:10346C0022F480221A6098614FF000638B607047E1
:10347C0000ED00E00010024008B500220A490B489C
:10348C00FFF75DF90A490948FFF76EF90949074842
:10349C00FFF72DF9054800F09AF920B10348BDE873
:1034AC000840FFF768B908BD24010020280C002053
:1034BC0000000020140100200020704700207047FD
:1034CC0010B5054C01462046FFF720F92046FFF7C2
:1034DC0023F9002010BD00BF280C002010B5064CAD
:1034EC00064900222046FFF709F905492046FFF757
:1034FC000DF9002010BD00BF280C0020AC120020DC
:10350C00C40E002007B50D4B02689A4212D103F588
:10351C00D43343209A6D42F080629A659B6D0022F1
:10352C0003F0806301931146019BFCF797FE432047
:10353C00FCF7C8FE03B05DF804FB00BF0068004058
:10354C0000F58661D0F87004FFF72CB900EB41133D
:10355C00D0F87004D3F83C22FFF751B900EB4113BB
:10356C00D0F87004DA6BFFF782B9D0F87004FFF76B
:10357C0013BA10B504460121D0F87004FFF7FAF91C
:10358C00D4F87004BDE81040FFF7CDB910B504466F
:10359C00D0F87004FFF7F1F9A36923B1024A13695B
:1035AC0043F00603136110BD00ED00E0836910B514
:1035BC00044633B1064A136923F006031361FFF77F
:1035CC0079FCD4F87004BDE81040FFF7DFB900BFF8
:1035DC0000ED00E010B50446FDF7E2FB2048214A5F
:1035EC00C0F87044082380E80C00C4F8980200234B
:1035FC0002228260C360026143618361C361036222
:10360C00FCF75FFF20B140F23D111748FFF76CFE4D
:10361C00002211461823D4F89802FDF73BFB5823DF
:10362C0000228021D4F89802FDF734FBC02300223D
:10363C008121D4F89802FDF72DFB4FF488730022FA
:10364C000121D4F89802FDF725FB4FF4807300227A
:10365C008221D4F89802FDF71DFB002010BD00BF9D
:10366C0094160020006800404C42000808B5D0F8C1
:10367C009802FCF79AFF03289ABF024B185C0220B1
:10368C0008BD00BF4842000810B51C46D0F898028F
:10369C0013462246FCF7B2FF03289ABF014B185C75
:1036AC00022010BD4842000808B5D0F89802FCF77B
:1036BC00DAFF03289ABF024B185C022008BD00BF3A
:1036CC004842000808B5D0F89802FDF777FA0328AD
:1036DC009ABF024B185C022008BD00BF484200088C
:1036EC0008B5D0F89802FDF7A2FA03289ABF024B4E
:1036FC00185C022008BD00BF484200080A06D0F83A
:10370C00983245BF01F07F0103EB411303EB4113EA
:10371C0093F82A0058BF93F82A02704708B5D0F8DE
:10372C009802FCF757FF03289ABF024B185C022043
:10373C0008BD00BF4842000808B5D0F89802FCF755
:10374C00DDFF03289ABF024B185C022008BD00BFA6
:10375C004842000808B5D0F89802FCF7AFFF0328E0
:10376C009ABF024B185C022008BD00BF48420008FB
:10377C0008B5D0F89802FCF7BAFF08BD10B504469E
:10378C0011B101290FD010BD836933B1FFF792FB42
:10379C000B4A136923F006031361D4F87004BDE8D7
:1037AC001040FFF7F3B8D0F87004FFF7E6F8A36900
:1037BC0023B1034A136943F00603136110BD00BF24
:1037CC0000ED00E0004870478C0600207047D0F8F0
:1037DC0098321B6A012B14BF022000207047000096
:1037EC0012230B80004870475001002004230B80EB
:1037FC0000487047640100200C230B800048704780
:10380C004401002010B5044C04480A462146FFF739
:10381C00C9FA204610BD00BF081B002078420008E2
:10382C0010B5044C04480A462146FFF7BBFA204663
:10383C0010BD00BF081B00208B42000810B5044CC3
:10384C0004480A462146FFF7ADFA204610BD00BFDA
:10385C00081B0020A142000810B5044C04480A467D
:10386C002146FFF79FFA204610BD00BF081B002021
:10387C005F42000810B5044C04480A462146FFF785
:10388C0091FA204610BD00BF081B00206A420008B8
:10389C00DFF834D0002103E00C4B5B58435004316B
:1038AC000B480C4B42189A42F6D30B4A02E0002309
:1038BC0042F8043B094B9A42F9D3FFF7B9FD00F0EB
:1038CC0011F8FFF7BDFCFEE700000120B84200082C
:1038DC00000000206C0600206C060020181D002043
:1038EC00FEE7000070B50D4E0D4CA41BA410002576
:1038FC00A54209D10B4E0C4C00F074FBA41BA41078
:10390C000025A54205D170BD56F8253098470135E4
:10391C00EEE756F8253098470135F2E7B04200083B
:10392C00B0420008B0420008B4420008024B014605
:10393C00186800F00BB800BF78050020024B014658
:10394C00186800F083BA00BF780500202DE9F74F06
:10395C0001F10B04162C814607D934F0070405D568
:10396C000C23C9F80030002631E110248C42F7D327
:10397C00484600F0F9F9B4F5FC7F9C4D36D204F1C1
:10398C0008022A44A2F1080156688E424FEAD40379
:10399C0002D1D668B24210D07368F268B16823F0D5
:1039AC000303CA60334491605A6842F001025A60C2
:1039BC00484600F0DFF9083609E102338C4A2E69DB
:1039CC00964211466DD0706820F00300071B0F2F34
:1039DC0047DD331944F0010474606B612B61DA60CC
:1039EC009A6047F001025A603750E1E7630A2AD027
:1039FC00042B12D8A30938335A1C05EBC202A2F1CE
:103A0C0008005668864206D0726822F00302111B29
:103A1C000F291CDD013B0133D0E7142B01D85B339C
:103A2C00EAE7542B02D8230B6E33E5E7B3F5AA7FF4
:103A3C0002D8E30B7733DFE740F25452934204D8B9
:103A4C00A30C7C33D8E73F23D6E77E23D4E70029A9
:103A5C00F16804DBB368D9608B60B318A4E70E4639
:103A6C00D0E7002F6A612A6105DB3044436843F0DC
:103A7C00010343609CE7B0F5007F44D2C008871077
:103A8C00012202FA07F76A6801303A436A6005EBD3
:103A9C00C00255F83070B760083AF26045F83060F3
:103AAC00FE6001209A1000FA02F26868824200F26D
:103ABC00A180024206D123F003035200024203F11B
:103ACC000403FAD005EBC30CE0469E46D8F80C6014
:103ADC00464553D10EF1010E1EF0030F08F10808F4
:103AEC00F4D1980779D16B6823EA02036B6068689C
:103AFC00520082427ED8002A7CD073460242E1D129
:103B0C0004335200FAE7420A042A15D882093832E3
:103B1C00571C05EBC20E55F83770BE4526D1012057
:103B2C00921000FA02F2686810436860C6F80CE064
:103B3C00B760CEF80860B3E7142A01D85B32E7E728
:103B4C00542A02D8020B6E32E2E7B2F5AA7F02D8F1
:103B5C00C20B7732DCE740F25457BA429ABF820C60
:103B6C007C327E22D4E7BF68BE4504D07A6822F04E
:103B7C0003029042F7D3D7F80CE0D7E77068F768E8
:103B8C0020F00300A0EB040ABAF10F0F10DDB268AD
:103B9C00331944F001047460D760BA604AF0010232
:103BAC006B612B61D96099605A6046F800A0FFE602
:103BBC00BAF1000F0FDB3044436843F0010343605C
:103BCC0056F8083F4846DF60BB6000F0D3F830463B
:103BDC0003B0BDE8F08F3E467AE75CF808098445EF
:103BEC0003F1FF333FF47DAF81E700BF6801002094
:103BFC0070010020D5F808B0DBF8046026F003064D
:103C0C00B44203D8331B0F2B00F396804F4A17682E
:103C1C004F4A1168103701310BEB0603274405D0CE
:103C2C004C4901390F44013149420F40394648464D
:103C3C000192009300F0A4F8B0F1FF3F804656D0FB
:103C4C00009B019A834201D9AB4550D1424801688F
:103C5C00434507EB010EC0F800E04049824613D102
:103C6C000B4211D1AB683E4446F001065E603C4A03
:103C7C00DAF8003011688B4288BF1360394A11683A
:103C8C008B4288BF136032E0106801301BBFA8EB79
:103C9C0003037344C2F80080CAF8003018F0070020
:103CAC001CBFC0F1080080442A4B474418440F4005
:103CBC00C71B3946484600F063F8431C08BF404612
:103CCC00DAF80030C5F8088008BF0027A0EB080020
:103CDC003B44074447F00107AB45CAF80030C8F82D
:103CEC000470C4D00F2E10D80123C8F80430AB6870
:103CFC005A6822F003029442A2EB040301D80F2B62
:103D0C001ADC484600F036F82DE6DBF804300C3EA1
:103D1C0026F0070603F001033343CBF804300BEB1A
:103D2C00060305220F2E5A609A60A0D90BF10801E8
:103D3C00484600F08BF89AE7AE6844F00102344430
:103D4C0043F001037260AC60636031E6DC08002074
:103D5C007005002080000000AC0800207F000000EF
:103D6C00D4080020D8080020014800F02BB900BF6F
:103D7C000C1D0020014800F026B900BF0C1D0020CE
:103D8C0038B5064C002305460846236000F01CF9A4
:103D9C00431C02D1236803B12B6038BD141D0020D5
:103DAC002DE9F843254FDFF8A08089460646FFF73A
:103DBC00DBFFBB685D68A8F1110425F00305A4EBDB
:103DCC0009042C44B4FBF8F4013C08FB04F444450E
:103DDC0005DA3046FFF7CEFF0020BDE8F88300215E
:103DEC003046FFF7CDFFBB682B449842F1D16142BE
:103DFC003046FFF7C5FF013010D100213046FFF7E8
:103E0C00BFFFBA68831A0F2BE3DD0D490968401A0E
:103E1C000C4943F0010308605360DAE7BB68094AB8
:103E2C002D1B45F001055D60136830461C1B1460AA
:103E3C00FFF7A0FF0120BDE8F88300BF6801002058
:103E4C0070050020AC080020800000002DE9F04136
:103E5C0004468846002900F0AB80FFF785FF58F830
:103E6C00042C544D22F00100A8F108031F18A96876
:103E7C007E688F4226F0030602F001021BD130440B
:103E8C003AB958F8082C9B1A10449968DA68CA6039
:103E9C00916040F001025A60AB60474B1B6898423E
:103EAC0004D3464B20461968FFF77AFF2046BDE83D
:103EBC00F041FFF75FBF7E60002A39D158F8081C2B
:103ECC005B1A0844996805F1080E714532D0D3F895
:103EDC000CE0C1F80CE0CEF80810B9194968C90714
:103EEC000AD43044B9683ABB354EB14224D16B6127
:103EFC002B610122D960996040F001015960185082
:103F0C00002AD3D1B0F5007F1AD2C008811001224B
:103F1C008A40696801300A436A6005EBC00255F8B3
:103F2C0030109960083ADA6045F83030CB60BDE764
:103F3C000022D2E70122D0E7FE68CE60B160DBE759
:103F4C00420A042A13D882093832511C05EBC206E6
:103F5C0055F831108E4224D10120921000FA02F251
:103F6C00686802436A60DE609960B360DEE7142A19
:103F7C0001D85B32E9E7542A02D8020B6E32E4E72F
:103F8C00B2F5AA7F02D8C20B7732DEE740F2545169
:103F9C008A429ABF820C7C327E22D6E789688E4296
:103FAC0004D04A6822F003029042F7D3CE68DAE7D5
:103FBC00BDE8F0816801002074050020DC080020B9
:103FCC007001002070477047044B1968024609B90C
:103FDC0003491960186802441A607047E008002011
:103FEC00181D0020F8B500BFF8BC08BC9E467047F1
:0C3FFC00F8B500BFF8BC08BC9E4670473A
:10400800000099C5ABCE320BCFD8561D6416FDD330
:1040180007F49E31AC3A35FFC82C51E963E2FA2720
:1040280097AD0E683C63A5A65875C1B0F3BB6A7E10
:104038009059099C3B97A2525F81C644F44F6D8A00
:104048002E5BB79E85951C50E18378464A4DD388F0
:1040580029AFB06A82611BA4E6777FB24DB9D47CE0
:10406800B9F6203312388BFD762EEFEBDDE04425D0
:10407800BE0227C715CC8C0971DAE81FDA1443D1C0
:10408800C5F35C366E3DF7F80A2B93EEA1E53820B0
:10409800C2075BC269C9F00C0DDF941AA6113FD4A0
:1040A800525ECB9BF99060559D8604433648AF8D90
:1040B80055AACC6FFE6467A19A7203B731BCA87980
:1040C800EBA8726D4066D9A32470BDB58FBE167B70
:1040D800EC5C75994792DE572384BA41884A118F60
:1040E8007C05E5C0D7CB4E0EB3DD2A18181381D650
:1040F8007BF1E234D03F49FAB4292DEC1FE7862240
:1041080013A28A67B86C21A9DC7A45BF77B4EE712F
:1041180014568D93BF98265DDB8E424B7040E9851F
:10412800840F1DCA2FC1B6044BD7D212E01979DC0F
:1041380083FB1A3E2835B1F04C23D5E6E7ED7E28FF
:104148003DF9A43C96370FF2F2216BE459EFC02AEF
:104158003A0DA3C891C30806F5D56C105E1BC7DEDF
:10416800AA543391019A985F658CFC49CE425787CF
:10417800ADA03465066E9FAB6278FBBDC9B65073BF
:10418800D6514F947D9FE45A1989804CB2472B82AF
:10419800D1A548607A6BE3AE1E7D87B8B5B32C769F
:1041A80041FCD839EA3273F78E2417E125EABC2F8F
:1041B8004608DFCDEDC6740389D01015221EBBDB7F
:1041C800F80A61CF53C4CA0137D2AE179C1C05D96F
:1041D800FFFE663B5430CDF53026A9E39BE8022D5F
:1041E8006FA7F662C4695DACA07F39BA0BB192744F
:1041F8006853F196C39D5A58A78B3E4E0C4595803F
:10420800000000000000000001020304060708097E
:10421800A0860100400D0300801A060000350C003E
:1042280040420F0080841E0000093D0000127A0001
:104238000024F40000366E010048E801006CDC023E
:10424800000201022E2E5C5372635C757362645F18
:10425800636F6E662E630043444320436F6E666946
:10426800670043444320496E746572666163650064
:1042780053544D6963726F656C656374726F6E69D0
:1042880063730053544D3332205669727475616CF0
:1042980020436F6D506F72740030303030303030E2
:0842A80030303031410000000C
:0442B000B101000850
:0442B4008D01000870
:1042B800512600080F2600085325000800000000BA
:1042C8008D24000813250008E524000800000000DC
:1042D8000000000000000000C1240008B524000808
:1042E800CD240008D924000809024300020100C0B7
:1042F8003209040000010202010005240010010532
:104308002401000104240202052406000107058295
:104318000308001009040100020A00000007050153
:104328000240000007058102400000000902430026
:10433800020100C032090400000102020100052444
:1043480000100105240100010424020205240600CE
:10435800010705820308001009040100020A000091
:1043680000070501020002000705810200020000A3
:104378000A0600020000004001000000090743008F
:10438800020104C0320904000001020201000524F0
:10439800001001052401000104240202052406007E
:1043A800010705820308001009040100020A000041
:1043B80000070501024000000705810240000000D7
:1043C80000093D00E9340008C5340008C934000874
:1043D800CD340008ED370008F93700081138000817
:1043E8002D38000849380008653800088138000869
:1043F80005380008050F0C00010710020200000034
:104408001201010202020040830440570002010227
:10441800030100000403090400000000000000007C
:104428006801002068010020700100207001002050
:104438007801002078010020800100208001002000
:1044480088010020880100209001002090010020B0
:104458009801002098010020A0010020A001002060
:10446800A8010020A8010020B0010020B001002010
:10447800B8010020B8010020C0010020C0010020C0
:10448800C8010020C8010020D0010020D001002070
:10449800D8010020D8010020E0010020E001002020
:1044A800E8010020E8010020F0010020F0010020D0
:1044B800F8010020F801002000020020000200207E
:1044C800080200200802002010020020100200202C
:1044D80018020020180200202002002020020020DC
:1044E800280200202802002030020020300200208C
:1044F800380200203802002040020020400200203C
:1045080048020020480200205002002050020020EB
:10451800580200205802002060020020600200209B
:10452800680200206802002070020020700200204B
:1045380078020020780200208002002080020020FB
:1045480088020020880200209002002090020020AB
:104558009802002098020020A0020020A00200205B
:10456800A8020020A8020020B0020020B00200200B
:10457800B8020020B8020020C0020020C0020020BB
:10458800C8020020C8020020D0020020D00200206B
:10459800D8020020D8020020E0020020E00200201B
:1045A800E8020020E8020020F0020020F0020020CB
:1045B800F8020020F8020020000300200003002079
:1045C8000803002008030020100300201003002027
:1045D80018030020180300202003002020030020D7
:1045E8002803002028030020300300203003002087
:1045F8003803002038030020400300204003002037
:1046080048030020480300205003002050030020E6
:104618005803002058030020600300206003002096
:104628006803002068030020700300207003002046
:1046380078030020780300208003002080030020F6
:1046480088030020880300209003002090030020A6
:104658009803002098030020A0030020A003002056
:10466800A8030020A8030020B0030020B003002006
:10467800B8030020B8030020C0030020C0030020B6
:10468800C8030020C8030020D0030020D003002066
:10469800D8030020D8030020E0030020E003002016
:1046A800E8030020E8030020F0030020F0030020C6
:1046B800F8030020F8030020000400200004002074
:1046C8000804002008040020100400201004002022
:1046D80018040020180400202004002020040020D2
:1046E8002804002028040020300400203004002082
:1046F8003804002038040020400400204004002032
:1047080048040020480400205004002050040020E1
:104718005804002058040020600400206004002091
:104728006804002068040020700400207004002041
:1047380078040020780400208004002080040020F1
:1047480088040020880400209004002090040020A1
:104758009804002098040020A0040020A004002051
:10476800A8040020A8040020B0040020B004002001
:10477800B8040020B8040020C0040020C0040020B1
:10478800C8040020C8040020D0040020D004002061
:10479800D8040020D8040020E0040020E004002011
:1047A800E8040020E8040020F0040020F0040020C1
:1047B800F8040020F804002000050020000500206F
:1047C800080500200805002010050020100500201D
:1047D80018050020180500202005002020050020CD
:1047E800280500202805002030050020300500207D
:1047F800380500203805002040050020400500202D
:1048080048050020480500205005002050050020DC
:10481800580500205805002060050020600500208C
:10482800FFFFFFFF000002007C05002000000000E1
:104838000000000000000000000000000000000070
:104848000000000000000000000000000000000060
:104858000000000000000000000000000000000050
:104868000000000000000000000000000000000040
:104878000000000000000000000000000000000030
:104888000000000000000000000000000000000020
:104898000000000000000000000000000000000010
:1048A8000000000000000000000000000000000000
:1048B80000000000000000000000000000000000F0
:1048C80000000000000000000000000000000000E0
:1048D80000000000000000000000000000000000D0
:1048E80000000000000000000000000000000000C0
:1048F80000000000000000000000000000000000B0
:10490800000000000000000000000000000000009F
:0C49180000000000000000000000000093
:040000050800389D1A
:00000001FF
