:020000040800F2
:1000000000000120E53A0008C9380008CB38000894
:10001000CD380008CF380008D138000800000000B3
:10002000000000000000000000000000D3380008BD
:10003000D538000800000000D7380008D93800087B
:10004000353B0008353B0008353B0008353B0008D0
:10005000353B0008353B0008353B0008353B0008C0
:10006000353B0008353B0008353B0008353B0008B0
:10007000353B0008353B0008353B0008353B0008A0
:10008000353B0008353B0008353B0008353B000890
:10009000353B0008353B0008353B0008353B000880
:1000A000353B0008353B0008353B0008353B000870
:1000B000353B00080000000000000000353B000850
:1000C000353B0008353B0008353B0008353B000850
:1000D000353B0008353B0008353B0008353B000840
:1000E000353B0008353B0008000000000000000020
:1000F0000000000000000000000000000000000000
:1001000000000000353B000800000000353B0008FF
:100110000000000000000000353B0008353B0008EF
:10012000353B0008353B0008353B0008353B0008EF
:10013000353B000800000000000000000000000047
:10014000353B0008353B0008353B0008E93800081E
:10015000353B0008353B0008353B0008353B0008BF
:10016000353B0008353B0008353B00080000000027
:10017000353B0008353B0008353B0008353B00089F
:0C018000353B0008353B0008353B00080B
:1001900010B5054C237833B9044B13B10448AFF3C1
:1001A00000800123237010BD6800002000000000C3
:1001B000383D000808B5034B1BB103490348AFF3B2
:1001C000008008BD000000006C000020383D0008E1
:1001D00081F0004102E000BF83F0004330B54FEAF8
:1001E00041044FEA430594EA050F08BF90EA020F65
:1001F0001FBF54EA000C55EA020C7FEA645C7FEAF8
:10020000655C00F0E2804FEA5454D4EB5555B8BF1A
:100210006D420CDD2C4480EA020281EA030382EA8B
:10022000000083EA010180EA020281EA0303362D1D
:1002300088BF30BD11F0004F4FEA01314FF4801CF0
:100240004CEA113102D0404261EB410113F0004F02
:100250004FEA03334CEA133302D0524263EB4303B9
:1002600094EA050F00F0A780A4F10104D5F1200E57
:100270000DDB02FA0EFC22FA05F2801841F10001B2
:1002800003FA0EF2801843FA05F359410EE0A5F186
:1002900020050EF1200E012A03FA0EFC28BF4CF0B7
:1002A000020C43FA05F3C01851EBE37101F000456D
:1002B00007D54FF0000EDCF1000C7EEB00006EEB7A
:1002C0000101B1F5801F1BD3B1F5001F0CD3490804
:1002D0005FEA30004FEA3C0C04F101044FEA44525B
:1002E00012F5800F80F09A80BCF1004F08BF5FEAE2
:1002F000500C50F1000041EB045141EA050130BDC2
:100300005FEA4C0C404141EB010111F4801FA4F164
:100310000104E9D191F0000F04BF01460020B1FAB9
:1003200081F308BF2033A3F10B03B3F120020CDAF1
:100330000C3208DD02F1140CC2F10C0201FA0CF0CF
:1003400021FA02F10CE002F11402D8BFC2F1200C34
:1003500001FA02F120FA0CFCDCBF41EA0C019040EA
:10036000E41AA2BF01EB0451294330BD6FEA040433
:100370001F3C1CDA0C340EDC04F11404C4F120021E
:1003800020FA04F001FA02F340EA030021FA04F330
:1003900045EA030130BDC4F10C04C4F1200220FA87
:1003A00002F001FA04F340EA0300294630BD21FAC5
:1003B00004F0294630BD94F0000F83F4801306BF8B
:1003C00081F480110134013D4EE77FEA645C18BF7F
:1003D0007FEA655C29D094EA050F08BF90EA020F16
:1003E00005D054EA000C04BF1946104630BD91EA0E
:1003F000030F1EBF0021002030BD5FEA545C05D111
:100400004000494128BF41F0004130BD14F580044F
:100410003CBF01F5801130BD01F0004545F0FE41C3
:1004200041F470014FF0000030BD7FEA645C1ABFF8
:10043000194610467FEA655C1CBF0B46024650EA2F
:10044000013406BF52EA033591EA030F41F400215B
:1004500030BD00BF90F0000F04BF0021704730B5E1
:100460004FF4806404F132044FF000054FF00001B6
:1004700050E700BF90F0000F04BF0021704730B577
:100480004FF4806404F1320410F0004548BF40424C
:100490004FF000013EE700BF42004FEAE2014FEAA1
:1004A00031014FEA02701FBF12F07F4393F07F4F7C
:1004B00081F06051704792F0000F14BF93F07F4FAE
:1004C000704730B54FF4607401F0004521F00041F1
:1004D00020E700BF50EA010208BF704730B54FF077
:1004E00000050AE050EA010208BF704730B511F07C
:1004F000004502D5404261EB41014FF4806404F1B4
:1005000032045FEA915C3FF4DCAE4FF003025FEA35
:10051000DC0C18BF03325FEADC0C18BF033202EBBD
:10052000DC02C2F1200300FA03FC20FA02F001FA17
:1005300003FE40EA0E0021FA02F11444C1E600BFB6
:1005400070B54FF0FF0C4CF4E06C1CEA11541DBF69
:100550001CEA135594EA0C0F95EA0C0F00F0DEF834
:100560002C4481EA030621EA4C5123EA4C5350EA19
:10057000013518BF52EA033541F4801143F480136A
:1005800038D0A0FB02CE4FF00005E1FB02E506F0FB
:100590000042E0FB03E54FF00006E1FB03569CF050
:1005A000000F18BF4EF0010EA4F1FF04B6F5007F56
:1005B00064F5407404D25FEA4E0E6D4146EB0606C8
:1005C00042EAC62141EA55514FEAC52040EA5E5051
:1005D0004FEACE2EB4F1FD0C88BFBCF5E06F1ED8FB
:1005E000BEF1004F08BF5FEA500E50F1000041EB32
:1005F000045170BD06F0004646EA010140EA0200DF
:1006000081EA0301B4EB5C04C2BFD4EB0C0541EA00
:10061000045170BD41F480114FF0000E013C00F315
:10062000AB8014F1360FDEBF002001F0004170BD39
:10063000C4F10004203C35DA0C341BDC04F1140452
:10064000C4F1200500FA05F320FA04F001FA05F2DE
:1006500040EA020001F0004221F0004110EBD370AB
:1006600021FA04F642EB06015EEA430E08BF20EAD7
:10067000D37070BDC4F10C04C4F1200500FA04F37A
:1006800020FA05F001FA04F240EA020001F000410C
:1006900010EBD37041F100015EEA430E08BF20EA7F
:1006A000D37070BDC4F1200500FA05F24EEA020EC7
:1006B00020FA04F301FA05F243EA020321FA04F0F6
:1006C00001F0004121FA04F220EA020000EBD370AD
:1006D0005EEA430E08BF20EAD37070BD94F0000FAD
:1006E0000FD101F00046400041EB010111F4801FE1
:1006F00008BF013CF7D041EA060195F0000F18BF92
:10070000704703F00046520043EB030313F4801FCD
:1007100008BF013DF7D043EA0603704794EA0C0F87
:100720000CEA135518BF95EA0C0F0CD050EA41069D
:1007300018BF52EA4306D1D181EA030101F000411A
:100740004FF0000070BD50EA410606BF1046194642
:1007500052EA430619D094EA0C0F02D150EA01364E
:1007600013D195EA0C0F05D152EA03361CBF10468F
:1007700019460AD181EA030101F0004141F0FE412E
:1007800041F470014FF0000070BD41F0FE4141F4B2
:10079000780170BD70B54FF0FF0C4CF4E06C1CEAB2
:1007A00011541DBF1CEA135594EA0C0F95EA0C0F67
:1007B00000F0A7F8A4EB050481EA030E52EA033522
:1007C0004FEA013100F088804FEA03334FF0805543
:1007D00045EA131343EA12634FEA022245EA111570
:1007E00045EA10654FEA00260EF000419D4208BF21
:1007F000964244F1FD0404F5407402D25B084FEACE
:100800003202B61A65EB03055B084FEA32024FF479
:1008100080104FF4002CB6EB020E75EB030E22BFD6
:10082000B61A754640EA0C005B084FEA3202B6EB96
:10083000020E75EB030E22BFB61A754640EA5C0045
:100840005B084FEA3202B6EB020E75EB030E22BFD5
:10085000B61A754640EA9C005B084FEA3202B6EBD6
:10086000020E75EB030E22BFB61A754640EADC0095
:1008700055EA060E18D04FEA051545EA16754FEAF7
:1008800006164FEAC30343EA52734FEAC2025FEA15
:100890001C1CC0D111F4801F0BD141EA00014FF0A4
:1008A00000004FF0004CB6E711F4801F04BF014375
:1008B0000020B4F1FD0C88BFBCF5E06F3FF6AFAE91
:1008C000B5EB030C04BFB6EB020C5FEA500C50F121
:1008D000000041EB045170BD0EF0004E4EEA1131A4
:1008E00014EB5C04C2BFD4EB0C0541EA045170BDAB
:1008F00041F480114FF0000E013C90E645EA060EEF
:100900008DE60CEA135594EA0C0F08BF95EA0C0F1C
:100910003FF43BAF94EA0C0F0AD150EA01347FF464
:1009200034AF95EA0C0F7FF425AF104619462CE73B
:1009300095EA0C0F06D152EA03353FF4FDAE10469E
:10094000194622E750EA410618BF52EA43067FF4EF
:10095000C5AE50EA41047FF40DAF52EA43057FF47F
:10096000EBAE12E74FEA4102B2F1E04324BFB3F528
:10097000001CDCF1FE5C0DD901F0004C4FEAC00216
:100980004CEA5070B2F1004F40EB830008BF20F0FA
:100990000100704711F0804F21D113F13872BCBFB4
:1009A00001F00040704741F480114FEA5252C2F109
:1009B0001802C2F1200C10FA0CF320FA02F018BF52
:1009C00040F001004FEAC1234FEAD32303FA0CFCA5
:1009D00040EA0C0023FA02F34FEA4303CCE77FEA34
:1009E000625307D150EA01331EBF4FF0FE4040F47E
:1009F0004000704701F0004040F0FE4040F400002D
:100A0000704700BF10B5084B044618684FF47A735E
:100A1000B0FBF3F000F078F8002221464FF0FF30F1
:100A200000F03EF8002010BD0000002008B50320B3
:100A300000F024F80020FFF7E5FF02F0B9FE0020E7
:100A400008BD0000024A136801331360704700BFFD
:100A500094000020014B1868704700BF94000020EC
:100A600038B50446FFF7F6FF631C054618BF01348E
:100A7000FFF7F0FF401B8442FAD838BD074AD3681D
:100A800023F4E0631B041B0C43F0BF63000243F438
:100A9000003300F4E0600343D360704700ED00E0F2
:100AA000174B30B5DC68C4F30224C4F10703251DDD
:100AB000042B28BF0423062D4FF0010505FA03F38C
:100AC00003F1FF338CBF033C00241940A14005FA19
:100AD00004F4013C2240002842EA01024FEA0212DB
:100AE000AFBF00F1604000F00F00064BD2B2A5BFCF
:100AF00000F56140D2B21A5480F8002330BD00BF27
:100B000000ED00E014ED00E00138B0F1807F0AD282
:100B1000064B074A5860F02182F823100020072274
:100B200098601A6070470120704700BF10E000E035
:100B300000ED00E0044B1A6804280CBF42F00402E8
:100B400022F004021A60704710E000E0704708B518
:100B5000FFF7FCFF08BD00002DE9F74FD1F800803A
:100B6000DFF874915A4A002338FA03F402D103B033
:100B7000BDE8F08F012404FA03FA18EA0A0500F030
:100B80009C804C6824F0100BBBF1020F14D14FEA8B
:100B9000D30E00EB8E0E03F0070CDEF820604FEA58
:100BA0008C0C0F2707FA0CF726EA07070E6906FADE
:100BB0000CF63E43CEF820604FEA430C032706684C
:100BC00007FA0CF7FF4304F0030E3E400EFA0CFE4A
:100BD0000BF1FF3B4EEA0606BBF1010F066011D890
:100BE000866806EA070BCE6806FA0CFE4EEA0B068C
:100BF0008660466826EA0A0AC4F300169E4046EA62
:100C00000A064660C66837408E6806FA0CF6374317
:100C1000E600C76051D5D9F8606046F00106C9F812
:100C20006060D9F8606023F0030707F1804706F0A1
:100C3000010607F58037019603F0030C019EBE689C
:100C40004FEA8C0C4FF00F0E0EFA0CFEB0F1904FE5
:100C500026EA0E0E33D01F4EB04232D006F5806623
:100C6000B04230D006F58066B0422ED006F58066E0
:100C7000B04214BF0726042606FA0CF646EA0E0612
:100C8000BE601668EF4314F4803F0CBF3E402E4315
:100C90001660566814F4003F0CBF3E402E43566069
:100CA000966814F4801F0CBF3E402E439660D668B1
:100CB000A40254BF3E402E43D660013354E70026C1
:100CC000DAE70126D8E70226D6E70326D4E700BFF5
:100CD0000004014000040048001002400AB1816194
:100CE000704781627047436959404161704790F88D
:100CF0002824012A10B504460BD0012280F82824AC
:100D000084F82410006801F09FFD002084F8280476
:100D100010BD022010BD70B5044601F00F0011F0A7
:100D2000800FC5B24FF0200101FB054115BF04EB58
:100D3000451504EB4515283101F50A7115BF01264B
:100D4000002685F8296085F829620A614A78CB7007
:100D5000C0B2087002B1C881022B04BF00230B711E
:100D600094F82834012B09D0012384F82834206812
:100D700001F08CFB002084F8280470BD022070BDB7
:100D800070B501F00F0100EB41164C01002586F80B
:100D9000281204F50A710144C6F83C22C6F8403214
:100DA000C6F8445286F82952006801F06BFD2846C7
:100DB00070BD70B501F00F0100EB41154C012B64C3
:100DC0000026012385F8281004F128010144EA6374
:100DD0006E6485F82930006801F054FD304670BD1E
:100DE0002DE9F84F0446006801F034FD000400F1DD
:100DF0003082206801F02EFD41050FD52268B2F83F
:100E0000443023F480631B041B0C2046A2F84430BA
:100E100002F0ADFD00212046FFF769FF206801F0D8
:100E200019FD430408D52268B2F8443023F4804306
:100E30001B041B0CA2F84430206801F00BFD870452
:100E400008D52268B2F8443023F400531B041B0C6D
:100E5000A2F84430206801F0FDFCC60426D52268C3
:100E6000B2F8403023F004031B041B0CA2F84030FE
:100E7000B2F8403023F008031B041B0CA2F84030EA
:100E800094F86034012B05D1002184F860142046C9
:100E900002F004FE204602F087FD2268B2F84430DA
:100EA00023F480531B041B0CA2F84430206801F08B
:100EB000D1FC05051DD52068B0F840309BB243F049
:100EC0000803A0F84030B0F8443023F400631B045A
:100ED0001B0CA0F84430B0F840309BB243F0040340
:100EE000A0F8403001F0B6FCC00402D4204602F065
:100EF0004BFD206801F0AEFC010629D52368B3F84C
:100F0000442022F080021204120CA3F8442094F82A
:100F10006024002A40F0A281B3F8402092B242F04F
:100F20000402A3F84020B3F8402092B242F0080235
:100F3000A3F84020B3F85430C3F38D03012103F02C
:100F40003C0384F86014C4F86434204602F0A6FD23
:100F5000206801F07FFC82050BD52268B2F844308E
:100F600023F400731B041B0CA2F84430204602F04B
:100F7000FAFC206801F06EFCC30508D52268B2F8BF
:100F8000443023F480731B041B0CA2F84430BDE8EA
:100F9000F88FB0F8441089B211F00F0740F0A58027
:100FA000038811F010019BB229D103EA0A030380E0
:100FB000B0F8503094F8282000F2024010FA83F084
:100FC00030F83230E26BC3F3090363641344E36324
:100FD000204602F0C1FC94F8243053B1226C42B98F
:100FE00094F82430216843F08003A1F84C3084F851
:100FF00024202068B0F844301A04CAD4F9E61A054F
:101000001ED5B0F8503094F8282200F2064111FAAB
:1010100083F304F5866133F83230B4F82E22C3F33B
:101020000903C4F8443201F015FD2268138823F047
:1010300070031B051B0D1380204602F07FFCD8E7D0
:101040001F04D6D5038823F070031B051B0D0380F6
:10105000B0F8503094F8282200F2064111FA83F3D8
:1010600033F83230C3F30903C4F8443263B1B4F83F
:101070002E22D4F83C1201F0EDFCD4F83C32D4F826
:1010800044221344C4F83C320021204602F05CFCA8
:101090002268D4F83832B2F8501002F2064589B20C
:1010A00053B96B5A23F440639B049B0C6FEA434390
:1010B0006FEA53436B5207E03D2B11D85808DE0707
:1010C00048BF01308002685213889BB203EA0B03C9
:1010D00083F4405343F4004343F08003138088E7D4
:1010E00060485B0940EA8323E4E73EB230F826908B
:1010F0001FFA89F919F4004F3ED030F8263023F05A
:1011000070031B051B0D4FEA471820F8263004EB2F
:10111000080191F83432002B57D1B0F8503091F8D3
:10112000282200F2064515FA83F333F83250C5F34E
:10113000090535B1B1F82E22D1F83C122B4601F049
:1011400089FC04EB461304EB0801D3F844222A443B
:10115000C3F84422D1F83C222A44C1F83C22D3F8F7
:1011600040321BB1D1F83802854269D2A0442046F2
:1011700098F8281202F0E8FB19F0800F3FF439AF1D
:10118000236833F8262092B202EA0A0223F82620C6
:1011900004EB4717B3F8502097F8281003F20243E6
:1011A00013FA82F304EB461633F83120C2F3090236
:1011B0007264FB6B97F828101A44FA63336C20466C
:1011C000002B43D102F0C8FB13E791F8282213B299
:1011D00030F8233013F4804FB0F8503022D000F2B2
:1011E000024515FA83F333F83250C5F3090535B1DA
:1011F000B1F830222B46D1F83C1201F02BFC04EB65
:101200000803226893F8281232F821309BB223F4A5
:10121000E04323F0700343F4004343F0C00322F89B
:1012200021308EE700F2064515FA83F333F8325089
:10123000C5F30905002DE2D02B46B1F83222DAE7DA
:1012400091F828122046FFF79BFD95E7FFF7B1FDC7
:10125000CFE6DFF814A0DFF814B0CAE6204602F0AB
:1012600093FB75E60080FFFF0F8FFFFF8FBFFFFF2F
:1012700038B5436801F00F059D4204462DD811F0A2
:10128000800F4FF020031ED000EB451203FB050337
:101290000121283382F8291001229A701D7094F8D8
:1012A000281491421BD084F828241946206801F0A4
:1012B00063FA25B904F58661206801F0CFFA0020B1
:1012C00084F8280438BD03FB010300EB4111002220
:1012D00003F50A7381F82922DEE7012038BD0220D8
:1012E00038BD38B5436801F00F029A42044627D84A
:1012F00011F0800F4FF0200101FB02014FEA421371
:1013000019BF1B18283101F50A711B1914BF0120E0
:1013100000204FF0000514BF83F8290083F829024C
:101320008D700A7094F82834012B0BD0012384F8B7
:101330002834206801F041FA84F82854284638BD42
:10134000012038BD022038BD024A136843F480737F
:101350001360704700700040024B186800F4C060D2
:10136000704700BF00700040164B1A68B0F5007F50
:1013700002F4C0621AD1B2F5007F13D01A68124984
:1013800022F4C06242F400721A60104A1268B2FB82
:10139000F1F132224A4312B15969490504D45B691B
:1013A0005B050DD400207047013AF4E7B2F5806F79
:1013B0001FBF1A6822F4C06242F480621A60F1E72B
:1013C000032070470070004040420F0000000020E2
:1013D00037B51E4DAB6DDA00044618D5FFF7BCFFDC
:1013E000B0F5007F23D1802C29D9A02C8CBF0220FE
:1013F0000120174A136823F007030343136013689F
:1014000003F00703181A18BF012003B030BDAB6DFD
:1014100043F08053AB65AB6D03F080530193019BA8
:10142000FFF79AFFAB6D23F08053AB65D8E7802CB4
:1014300007D808D0A4F1700358425841D9E70020DA
:10144000D7E70320D5E70220D3E700BF0010024012
:10145000002002402F4B9A6812F00C0F10B509D0F3
:101460009A6802F00C020C2A2DD1DA6802F003020D
:10147000012A28D11A682849120755BFD3F89420A9
:101480001A68C2F30322C2F3031251F822209968AA
:1014900011F00C0F0CBF10460020996801F00C01F0
:1014A0000C2930D1DC68D868C0F30210411C04F06C
:1014B0000300022819D0032826D0B2FBF1F2D86825
:1014C000C0F3062017E09A6802F00C02042A07D045
:1014D0009A6802F00C02082A04D110480022DCE7C6
:1014E0000F48FBE700200246D7E7DA680C48C2F352
:1014F0000622B0FBF1F0DB68C3F3416301335043D4
:101500005B00B0FBF3F010BDDA680448C2F30622BA
:10151000EFE700BF00100240603F000800127A00B1
:101520000024F4002DE9F341054608B901208DE0BF
:101530000368D80638D5AB4CA36813F00C0F61D103
:101540002368990702D5AB69002BEFD02368286A7E
:101550001A0756BFD4F8943023681B0903F0F00330
:1015600083423AD2FFF734FF0028DFD1236843F0EB
:101570000803236023682A6A23F0F00313432360DF
:101580006368EA6923F47F4343EA02236360FFF759
:1015900061FFA368944AC3F30313D35CD840934B11
:1015A00018600020FFF72EFA2B68D80761D42B684B
:1015B000990700F1A9802B681A0700F1E7802B68D2
:1015C0005B0700F115812B689A0600F17C81AA6AFD
:1015D000002A40F0A381002038E0236843F008038C
:1015E0002360236823F0F003034323606368EA6900
:1015F00023F47F4343EA02236360FFF7E9FE0028F8
:10160000C5D093E7AB6923B3236843F0010323609C
:10161000FFF720FA064623689B0711D5236843F09D
:101620000803236023682A6A23F0F003134323602E
:101630006368EA6923F47F4343EA02236360B3E704
:10164000FFF708FA801B0228E5D9032002B0BDE8A5
:10165000F081236823F001032360FFF7FBF90646BE
:1016600023689F07A0D5FFF7F5F9801B0228F7D95B
:10167000EBE75C4CA36803F00C03082B09D0A368CC
:1016800003F00C030C2B0BD1E36803F00303032BD3
:1016900006D123689A038AD56B68002B87D145E76A
:1016A0006B68B3F5803F10D1236843F48033236027
:1016B000FFF7D0F9064623689B033FF578AFFFF7A5
:1016C000C9F9801B6428F6D9BFE7B3F5A02F04D170
:1016D000236843F480232360E6E7226822F4803203
:1016E0002260226822F480222260002BE0D1FFF7E2
:1016F000B1F9064623689F037FF559AFFFF7AAF9B2
:10170000801B6428F6D9A0E7364CA36803F00C03CD
:10171000042B09D0A36803F00C030C2B13D1E3684E
:1017200003F00303022B0ED123685E0503D5EB689B
:10173000002B3FF4FBAE63682A6923F0F85343EAB9
:101740000263636037E7EB687BB1236843F480731F
:101750002360FFF77FF9064623685805EBD4FFF7AF
:1017600079F9801B0228F7D96FE7236823F4807387
:101770002360FFF76FF90646236859057FF51BAF15
:10178000FFF768F9801B0228F6D95EE76B69154CF4
:101790009BB1D4F8943043F00103C4F89430FFF7C0
:1017A00059F90646D4F894309F073FF508AFFFF784
:1017B00051F9801B0228F5D947E7D4F8943023F07B
:1017C0000103C4F89430FFF745F90646D4F8943085
:1017D00098077FF5F4AEFFF73DF9801B0228F5D995
:1017E00033E700BF00100240503F00080000002017
:1017F000794CA36DD90027D4A36D43F08053A36522
:10180000A36D03F080530193019B0127734E33684E
:10181000DA051BD5AB68012B29D1D4F8903043F001
:101820000103C4F89030FFF715F941F288380646F5
:10183000D4F89030980740D5002F3FF4C4AEA36D84
:1018400023F08053A365BEE60027DFE7336843F447
:1018500080733360FFF7FEF880463368DB05D9D428
:10186000FFF7F8F8A0EB08000228F6D9EDE6052B03
:1018700006D1D4F8903043F00403C4F89030CCE79C
:10188000D4F8902022F00102C4F89020D4F89020DF
:1018900022F00402C4F89020002BC4D1FFF7DAF83C
:1018A00041F288380646D4F890309907C4D5FFF73E
:1018B000D1F8801B4045F6D9C7E6FFF7CBF8801B6F
:1018C0004045B5D9C1E66B6A434C9BB1D4F898301A
:1018D00043F00103C4F89830FFF7BCF80646D4F88B
:1018E00098309B073FF573AEFFF7B4F8801B0228D2
:1018F000F5D9AAE6D4F8983023F00103C4F898305B
:10190000FFF7A8F80646D4F898309F077FF55FAE3A
:10191000FFF7A0F8801B0228F5D996E62E4CA368A5
:1019200003F00C030C2B3FF401AE2368022A23F0D2
:101930008073236036D1FFF78DF80646236898013F
:101940002AD4AB6B6A6BDB0643EA0223EA6A1343D1
:101950002A6B013A43EA0213EA6B5208013A43EA5E
:1019600042532A6C5208013A43EA4263E360236817
:1019700043F080732360E36843F08073E360FFF714
:1019800069F80546236899013FF525AEFFF762F82F
:10199000401B0228F6D958E6FFF75CF8801B0228A6
:1019A000CCD952E623681A015EBFE36823F0030333
:1019B000E360E36823F0887323F48033E360FFF788
:1019C00049F8054623689B017FF505AEFFF742F80D
:1019D000401B0228F6D938E6001002400070004093
:1019E0002DE9F0410E46044610B90120BDE8F08112
:1019F000404A136803F007038B4228D32368D907B2
:101A000030D421688A075AD43A4A136803F007038E
:101A10009E425CD311F0040F374D63D10B0706D5FE
:101A2000AB68226923F4605343EAC203AB60FFF75B
:101A300011FDAB68314AC3F30313D35CD840304B7C
:101A400018600020FEF7DEFF0020BDE8F08113687B
:101A500023F007030B431360136803F00703994255
:101A6000C3D1CBE76268244D032A2B681BD113F046
:101A7000007FBAD0AB6823F003031343AB60FEF7DB
:101A8000E9FF41F288380746AB68626803F00C034F
:101A9000B3EB820FB5D0FEF7DDFFC01B4045F3D995
:101AA0000320BDE8F081022A02D113F4003FE0E7F1
:101AB00012B913F0020FDCE713F4806FD9E70E4A76
:101AC000A068936823F0F003034393609CE71368D6
:101AD00023F0070333431360136803F007039E42A8
:101AE00083D197E7AB68E26823F4E0631343AB600C
:101AF00094E700BF0020024000100240503F000861
:101B000000000020014B1868704700BF0000002053
:101B1000F8B5444BDA6812F0030F05460E461C4632
:101B2000006839D0DA6802F0030282424BD1002A01
:101B300049D0DB686A68C3F302130133934242D190
:101B4000236823F080632360FEF784FF0746236841
:101B50001A0141D4AF68002E45D0012E4FD1226921
:101B6000286922F4C002400822F4FE42013842EA09
:101B7000072242EA40522261236843F080632360D7
:101B8000FEF768FF064623681B0145D52369AA694D
:101B9000134323610020F8BD022810D0032814D07D
:101BA000012810D11B689F07F5D5E3686A6823F008
:101BB0007303013A184340EA0210E060C0E71B6873
:101BC00013F4806FF1D10120F8BD1A689103ECD4B1
:101BD0001B6813F4802FF5E7FEF73CFFC01B0228BB
:101BE000B5D90320F8BD2269E96822F07842C90618
:101BF00041EA072322F4FE4213432361BCE7236931
:101C0000686923F0C063400823F4FE43013843EAC7
:101C1000072343EA4063F0E7FEF71CFF801B02281E
:101C2000B1D9DEE7001002402DE9F743056815F44D
:101C3000006504460ED0416CB1F5000F5BD0B1F5E4
:101C4000400F5DD0002966D10430FFF761FF0546E3
:101C5000002855D023689E036DD5AC4EB36DD800D7
:101C60005BD4B36D43F08053B365B36D03F0805321
:101C70000193019B0127DFF89882D8F8003043F4E4
:101C80008073C8F80030FEF7E5FE8146D8F80030D2
:101C9000D90544D5002D49D1D6F8903013F44073BE
:101CA00014D0E26D934211D0D6F89030D6F890203F
:101CB00042F48032C6F89020D6F8902023F4407386
:101CC00022F48032C6F89020C6F89030DA0709D5A1
:101CD000FEF7C0FE41F288398046D6F890309B0767
:101CE00040F1EB80D6F89030E26D23F4407313435B
:101CF000C6F890301AE0854AD36843F48033D36045
:101D0000824A616CD2F8883023F440030B43C2F856
:101D1000883000259EE701259CE70027ABE7FEF70A
:101D200099FEA0EB09000228B0D903251FB1B36DBD
:101D300023F08053B3652368D80708D57349206A18
:101D4000D1F8882022F003020243C1F888209907C5
:101D500008D56E49606AD1F8882022F00C0202434F
:101D6000C1F888205A0708D56849A06AD1F88820A8
:101D700022F030020243C1F888209F0608D563494B
:101D8000E06AD1F8882022F440620243C1F888203A
:101D90009E0508D55D49E06BD1F8882022F44022E9
:101DA0000243C1F88820580508D55849206CD1F85D
:101DB000882022F440120243C1F88820590608D531
:101DC0005249206BD1F8882022F440520243C1F8D6
:101DD00088201A0608D54D49606BD1F8882022F476
:101DE00040420243C1F88820DF0508D54749A06B6F
:101DF000D1F8882022F440320243C1F888209E04A2
:101E00000FD5424AA16CD2F8883023F040630B43CF
:101E1000B1F1006FC2F8883057D1D36843F4801312
:101E2000D360236818030FD5384AE16CD2F88830A4
:101E300023F040630B43B1F1006FC2F888304FD1FB
:101E4000D36843F48013D360236859030FD52F4A16
:101E5000216DD2F8883023F040630B43B1F1006F5D
:101E6000C2F8883047D1D36843F48013D360236825
:101E70005A0412D52549626DD1F8883023F04053B9
:101E80001343B2F1805FC1F8883006D10221201DD2
:101E9000FFF73EFE002818BF054623681B0408D53F
:101EA0001A4AA16DD2F8883023F080430B43C2F860
:101EB0008830284603B0BDE8F083FEF7CBFDA0EBE9
:101EC000080048457FF609AF2FE7B1F1806FA8D130
:101ED0000121201DFFF71CFE002818BF0546A0E7C2
:101EE000B1F1806FB0D10121201DFFF711FE002854
:101EF00018BF0546A8E7B1F1806FB8D10121201DB8
:101F0000FFF706FE002818BF0546B0E700100240A4
:101F100000700040024A136843F0040313607047E6
:101F20000010024003685A6822F0E0025A604268DA
:101F3000B2F5827F0AD18268B2F5004F02D0B2F5C5
:101F4000806F03D11A6822F040021A60826AB2F5EB
:101F5000005F07D11A6822F400521A601A6842F42E
:101F600000521A60012380F85D30002380F85C3055
:101F70000320704770B505460C4616462B689868D6
:101F800010F080000DD0621CF9D024B92846BDE8BD
:101F90007040FFF7C7BFFEF75DFD801B8442EDD8A0
:101FA000F4E770BDF7B506460C4615461F46316886
:101FB000886820400ED0B4F5C06F01BF0A7BD2B252
:101FC0008DF807209DF807306B1CF1D025B93046FD
:101FD000FFF7A8FF03B0F0BDFEF73CFDC01B854234
:101FE000E5D8F4E770B513460D4616460A464FF499
:101FF000C0510446FFF7D6FF28B1236E43F02003FB
:10200000236603200FE0324629462046FFF7B2FF41
:102010000028F2D133462A464FF4C0612046FFF72C
:10202000C1FF0028E9D170BD70B5044600284AD030
:102030000023836290F85D3003F0FF021BB980F843
:102040005C2001F0FBFB0223216884F85D300B6803
:10205000E26823F04003B2F5E06F0B604FF000033D
:102060002ED91846B2F5706F18BFA362236B2BB937
:10207000B2F5E06F8CBF022301232363A668636877
:10208000A56933432669334366693343E6693343BD
:10209000266A3343A66A334305F4007633430B6064
:1020A000636A1A43636B2D0C1A4305F004052A4337
:1020B0000243012300204A60206684F85D3070BD31
:1020C0004FF48050D0E7012070BD2DE9F3411E464A
:1020D00090F85C30012B04460D46904600F0B1802C
:1020E000012380F85C30FEF7B5FC074694F85D00EC
:1020F000C0B2012840F0A380002D57D0B8F1000FE6
:1021000054D0032384F85D30002323662364A4F8AD
:102110003E80A4F84430A4F846302365E364A36805
:102120002068A563B3F5004F08BF0368A4F83C809E
:1021300004BF43F48043036003685B065EBF03682B
:1021400043F040030360E368B3F5E06F63683ED992
:102150001BB1E38F9BB2012B06D135F8023BC36064
:10216000E38F013B9BB2E387E38F9BB2A3B93A466F
:1021700031462046FFF736FF00285DD1A36833B90A
:1021800001932368DA6801929B680193019B206E9A
:10219000003018BF012009E023689A68900703D532
:1021A00035F8022BDA60DBE74EB90320012384F80F
:1021B0005D30002384F85C3002B0BDE8F081711C12
:1021C000D2D0FEF747FCC01B8642CDD8EDE71BB14D
:1021D000E38F9BB2012B0AD1E38F9BB2012B16D95F
:1021E00035F8023BC360E38F023B9BB2E387E38F8A
:1021F0009BB2002BBBD023689A68920712D5E28F5E
:1022000092B2012A0BD935F8022BDA60EBE72B7872
:102210000373E38F013B9BB2E3870135E7E72A783D
:102220001A73F6E7002EC0D0731CE0D0FEF712FC44
:10223000C01B8642DBD8B8E7202323669EE7022036
:10224000B4E70220B8E72DE9F8431F4690F85C3068
:10225000DDF82080012B04460D46164600F0128161
:10226000012380F85C30FEF7F5FB94F85D3061687F
:10227000DBB2012B81460AD0B1F5827F40F00081AC
:10228000A268002A40F0FC80042B40F0F980002D69
:102290004BD0002E49D0002F47D094F85D30E06835
:1022A0002664042B1CBF052384F85D300023B0F5A1
:1022B000E06F2366E364A4F846702365A4F84470D5
:1022C000A563E787A787236804D8B4F8462092B2AD
:1022D000012A2CD95A6822F480525A601A6857068B
:1022E0005EBF1A6842F040021A60B0F5E06F56D93E
:1022F00019B1E28F92B2012A06D135F8022BDA60C9
:10230000E38F013B9BB2E3870127E38F9BB293B935
:10231000B4F846309BB273B94A4641462046FFF7AF
:1023200061FE002833D02023236601202FE05A6865
:1023300042F48052D1E777B1E38F9BB25BB123685F
:102340009A68920707D535F8022BDA60E38F013BD4
:102350009BB2E3870027B4F846309BB26BB1236889
:102360009A68D00709D5DB6826F8023BB4F84630F6
:10237000013B9BB2A4F846300127B8F1FF3FC4D01F
:10238000FEF768FBA0EB09008045BED803200123BF
:1023900084F85D30002384F85C30BDE8F88319B11F
:1023A000E28F92B2012A0AD1E28F92B2012A4DD96C
:1023B00035F8022BDA60E38F023B9BB2E3870127FB
:1023C000E38F9BB223B9B4F846309BB2002BA3D065
:1023D00097B1E38F9BB27BB123689A6891070BD5C5
:1023E000E28F92B2012A39D935F8022BDA60E38FF5
:1023F000023B9BB2E3870027B4F846309BB2DBB1C7
:1024000023689A68D20717D5B4F8462092B2012AF9
:102410002CD9DA6826F8022BB4F84620023A92B298
:10242000A4F84620B4F8462092B2012A03D85A688C
:1024300042F480525A600127B8F1FF3FC0D0FEF746
:1024400009FBA0EB09008045BAD89FE72A781A73E8
:10245000E38F013B9BB2E3870135B0E72A781A731B
:10246000E38F013B9BB2E3870135C4E71B7B3370ED
:10247000B4F84630013B9BB2A4F846300136DAE7A7
:10248000022084E70220BDE8F8830000F0B50C7854
:1024900030F8242022F4EC42034622F07002C8787F
:1024A0001204120C032850D8DFE800F0024C044953
:1024B00042F40072002023F824200E78AB4C35B291
:1024C00033F8252092B22240324342F4004242F0D7
:1024D000800223F825200D7B0A78002D40F08280B1
:1024E0004F78CE88082597B3B3F8507015FB0232A9
:1024F00012FA87F226F00106A2F800640D7833F88C
:102500002520560609D533F8252092B2144044F40C
:10251000004444F0C00423F82540CA780978944C5C
:1025200009B2012A33F8212092B202EA040201D052
:1025300082F0200242F4004242F08002C5E042F400
:10254000C062B7E742F48062B4E70120B3E7B3F8B2
:10255000504015FB023212FA84F226F00106A2F86E
:1025600004640A78B3F850600C6915FB0232B6B205
:1025700002F2064254B9945B24F44064A404A40C0F
:102580006FEA44446FEA5444945307E03D2C24D846
:102590006508E40748BF0135AD0295530C7833F860
:1025A000242052040DD533F8242022F4E04222F0F6
:1025B00070021204120C42F4404242F0800223F8EE
:1025C0002420097833F8212022F4804222F070027E
:1025D0001204120C82F44052ACE7664D640945EADD
:1025E0008424D1E712B233F82250ADB2254045F42D
:1025F000014545F0800523F822500E78B3F850507D
:10260000082212FB063616FA85F50E8926F0010619
:10261000A5F800640E78B3F8505012FB063212FA97
:1026200085F24D8925F00105A2F804540A784D7809
:1026300012B2002D4CD133F822506F0409D533F873
:102640002250ADB22C4044F4404444F0800423F8BE
:1026500022400C7833F8242056060DD533F8242078
:1026600022F4E04222F070021204120C42F4004202
:1026700042F0C00223F824200C7833F8242022F4FE
:10268000E04222F070021204120C42F4004242F0C6
:10269000C00223F824200D7833F8252022F480424C
:1026A00022F070021204120C48F2800482F44052AC
:1026B000224323F82520097833F8212022F4E04230
:1026C00022F040021204120C224323F82120F0BD14
:1026D00033F822506D0409D533F82250ADB22C40A6
:1026E00044F4404444F0800423F822400C7833F84A
:1026F000242052060DD533F8242022F4E04222F0A3
:1027000070021204120C42F4004242F0C00223F89C
:1027100024200C78164D33F8242022F4E04222F0D5
:1027200070021204120C42F4404242F0800223F87C
:1027300024200C78CA7824B2012A33F8242092B2DB
:1027400002EA050218BF82F0200242F4004242F081
:10275000800223F82420097833F8212022F48042D3
:1027600022F070021204120CE4E600BF8F8FFFFF0C
:10277000BF8FFFFF0080FFFF0A784B7812B28BB14A
:1027800030F8223023F4E04323F040031B041B0CF9
:1027900083F0100343F4004343F0800320F8223019
:1027A0000020704730F8223023F4804323F0700378
:1027B0001B041B0C83F48053ECE70A784B7812B2AD
:1027C00023B330F822305B060DD530F8223023F4E5
:1027D000E04323F070031B041B0C43F4004343F05D
:1027E000C00320F822300A7830F8223023F4E04386
:1027F00023F040031B041B0C83F0300343F400431D
:1028000043F0800320F822300020704730F8223057
:102810005B040DD530F8223023F4E04323F070033D
:102820001B041B0C43F4404343F0800320F8223088
:102830000A7830F8223023F4804323F070031B041D
:102840001B0C83F44053D9E711B98023A0F84C3016
:1028500000207047B0F8440080B2704700207047F5
:1028600010B502F580620133104423F001030246E3
:102870000344141A9A420C4400D110BD248822F853
:10288000024BF6E7F8B5044648788A690B690F7B76
:1028900001280D466BD19A4297BF0023D21A8B6153
:1028A000134688BF8A619EB20FBBCA884969334606
:1028B0002046FFF7D5FFB4F850302A7804F20241E1
:1028C00011FA83F323F832602A7834F8223023F4A3
:1028D000E04323F040031B041B0C83F0300343F45C
:1028E000004343F0800324F822300020F8BD09782B
:1028F0000AB234F8222012F0400FB4F8502015BF6D
:1029000004F2064004F2024010FA82F210FA82F257
:1029100015BF22F8313022F831306A892A89696975
:1029200033462046FFF79CFF6B782A787BB912B2BA
:1029300034F8223023F4E04323F070031B041B0C13
:1029400043F4004343F0C00324F82230BCE7012BDA
:10295000BAD112B234F8223023F4E04323F07003EA
:102960001B041B0C43F4404343F08003ECE79A4202
:1029700095BF0023D21A8B618A6198BF13460978EC
:10298000A7B9B4F8502004F2064010FA82F202EB24
:10299000C102002B37D1138823F440639B049B0CA6
:1029A0006FEA43436FEA5343138034E090B9B4F8BD
:1029B000502004F2024010FA82F202EBC102ABB9DD
:1029C000118821F440618904890C6FEA41416FEA62
:1029D000514111806A78287872BBB4F8502004F213
:1029E000064111FA82F202EBC002D2E73D2B05D874
:1029F0005908D80748BF01318902EAE71448590944
:102A000040EA8121E5E73D2B11D85908DB0748BF93
:102A10000131890211802A7834F8223023F480436E
:102A200023F070031B041B0C83F4405357E7590930
:102A3000074B43EA8123B7E7012A01BFB4F85010DE
:102A400004F2064212FA81F121F83030E3E700BFC8
:102A50000080FFFF02F58062F0B510445D080A4671
:102A600007462E46023236B9DB0744BF30F8153030
:102A700001F81530F0BD37F8024B02F8024C240A79
:102A800002F8014C013EEDE708B5D0F88C320BB9E5
:102A9000022008BD1B6898470028F9D108BD08B579
:102AA000D0F88C325B689847002008BD38B50446E2
:102AB00000F52075284600F0DAFA012394F8801218
:102AC000C4F86C32B4F88632C4F8703201F01F03D7
:102AD000012B0ED007D3022B10D001F0800120462D
:102AE00000F086FF03E02946204600F0F1F80020C0
:102AF00038BD2946204600F00DFAF8E72946204661
:102B000000F02DFAF3E770B50546164639BBD0F84C
:102B10006C32032B1ED1D0F84C31D0F850219342A7
:102B20000BD99B1A9A42C0F84C318CBF9AB292B220
:102B3000314600F0C5FA002070BDD0F88C321B6918
:102B400023B190F87422032A00D19847284600F058
:102B5000BFFAF0E7052BEED100F04AFFEBE7D0F823
:102B60008C329B692BB190F87422032A01D19847CB
:102B7000E1E7022070BD70B5134604460E460029F9
:102B800048D1D0F86C22022A3DD1056A426A9542AA
:102B900014D9AA1A0262194692B200F089FA334691
:102BA0001A461946204600F06BFF94F87832012B44
:102BB0004FF000003AD184F8780270BDC369B3FBCE
:102BC000F2F502FB153565B99A420AD8D0F87022A1
:102BD000934206D22A4600F06BFAC4F870522B4694
:102BE000DEE7D4F88C32DB682BB194F87422032A28
:102BF00001D1204698478021204600F0F9FE20466A
:102C000000F071FAD1E732F00403CED1802100F058
:102C1000EFFECAE7D0F88C325B6933B190F87422CA
:102C2000032A02D19847002070BD022070BD70B504
:102C300000220446114601254026402300F0C8FE2C
:102C400033468021C4F84451C4F850610022204624
:102C500000F0BEFED4F89032A5610021666284F8CF
:102C60007452C4F86C126160C4F87C1223B1D4F8B9
:102C70008C3220465B689847002070BD01740020AC
:102C8000704790F8743280F87532042380F87432FB
:102C90000020704790F8753280F874320020704739
:102CA00008B590F87422032A04D1D0F88C32DB697D
:102CB00003B19847002008BD10B58021044600F0FC
:102CC00097FE20460021BDE8104000F091BE0000B4
:102CD00037B50B7803F06003202B04460D4614D063
:102CE000402B12D0002B40F095804B78092B00F23E
:102CF0009080DFE813F0E70001018E00FA008E00FB
:102D0000820013008E00D200A000D4F88C32294635
:102D10009B6820469847002003B030BD4B881A0AB4
:102D2000013A0E2A75D8DFE802F02428357474556C
:102D30005E747474747474740800D0F88832DB693B
:102D4000207C0DF106019847BDF8062052B1EB88B2
:102D500043B19A4228BF1A4601462046ADF80620E4
:102D600000F099F9EB88002BD5D1204600F0B0F99E
:102D7000D1E7D0F888321B68E2E7027CD0F88C32C9
:102D800032B99B6A0DF10600984702234370DBE7D6
:102D9000DB6AF7E7DBB2052B3BD8DFE803F003077C
:102DA0000B0F1317D0F888325B68C9E7D0F8883268
:102DB0009B68C5E7D0F88832DB68C1E7D0F8883275
:102DC0001B69BDE7D0F888325B69B9E7D0F8883273
:102DD0009B69B5E7037CE3B9D0F88C320DF10600AE
:102DE0005B6B9847B0E7037C9BB9D0F88C320DF150
:102DF00006001B6B98470723C8E78B884BB9CB8825
:102E00003BB94D887F2D04D890F87432032BE9B27A
:102E100003D12046FFF750FF7DE780F8761200F0DF
:102E200013FE204600F054F91DB1022384F87432D9
:102E300071E70123FAE78978354D01292970E8D82F
:102E400090F87432022B08D0032B14D0FFF734FF14
:102E500029782046FFF723FE5DE7002985D0012170
:102E60000323416080F874322046FFF70DFE0228EC
:102E70007FF47BAFCDE731B9022380F87432416033
:102E8000FFF70DFE71E7416801293FF46EAFC9B24B
:102E9000FFF705FE29786160E6E7CA88012AB8D104
:102EA00090F87432002BB4D0022B03D9032BB0D18D
:102EB000011D03E00146002341F8083F204600F0D1
:102EC000EAF828E790F87432013B022BA1D8CB88AE
:102ED000022B9ED10123C360D0F87C320BB10323B7
:102EE000C360022204F10C01E8E74B88012B7FF458
:102EF00012AFC4F87C3238E790F87432013B022BF1
:102F000087D84B88012B7FF406AF0023F1E700BF81
:102F10008400002038B50B7803F06003202B0446B2
:102F20000D4602D0402B00D0B3B994F87432013B67
:102F3000022B10D82B79012B0DD8D4F88C322946CE
:102F40009B6820469847EB881BB910B9204600F0D3
:102F5000BFF8002038BD2046FFF7AEFEF9E738B5D0
:102F60000A7802F06002202A04460B4613D0402A59
:102F700011D06AB95D788A88012DD1B21FD035D3BE
:102F8000032D05D190F87422022A26D0032A0AD0F4
:102F9000FFF792FE05E0D4F88C221946926820468D
:102FA0009047002038BD5A882AB94A0603D0DB88EA
:102FB0000BB900F01DFD204600F08AF8F1E790F80B
:102FC0007422022A09D0032AE2D15B88002BE8D1BF
:102FD0004D06F0D000F01AFDEDE74B0617D000F0DB
:102FE00007FD8021204600F003FDDAE790F87432F7
:102FF000022B0ED0032BCBD112F0800F4FF0140315
:1030000001F00F0203FB020212D09269DAB92046E6
:10301000BEE74906FBD113064CBF00F1140100F5D1
:10302000A07100230B600222204600F034F8B8E7BC
:10303000D2F84421002AEAD001F07F0503FB050500
:1030400005F5A07504E001F07F0505FB0335054497
:1030500011F07F0303D12B6002222946E4E72046CA
:1030600000F0E2FC08B10123F5E72860F4E70B78F3
:1030700003704B784370CA788B7803EB022343804C
:103080004A790B7903EB02238380CA798B7903EBAE
:103090000223C380704710B513460222C0F86C2289
:1030A000C3610A460362002100F0DCFC002010BD71
:1030B00008B513460A46002100F0D4FC002008BDE4
:1030C00008B513460A46002100F0DAFC002008BDCE
:1030D00008B50423C0F86C3200231A46194600F0E4
:1030E000C1FC002008BD08B50523C0F86C320023E0
:1030F0001A46194600F0C4FC002008BDF7B50024AC
:10310000124F06462546B44201DB03B0F0BD002253
:1031100010214FF09040FDF7E1FD002210214FF00B
:1031200090408DF804508DF80550FDF7D7FD6423CD
:10313000012201A93846FEF7C8FF012210214FF0F5
:103140009040FDF7CBFD0134DDE700BF64020020B5
:1031500070B5AEB0FEF7F8F83A4AD2F8903023F0E6
:103160001803C2F890301423059300230C936023B6
:10317000012402250D930726282305A807940B9404
:103180000F95109411941293139614951595FEF7BC
:10319000C9F928B12C4C10212046FDF7A4FDFAE70F
:1031A0000F220323029003900490042168468DE8C7
:1031B0000C00FEF715FC28B1234C10212046FDF72A
:1031C00092FDFAE7214B16934FF480732D934FF045
:1031D0008063289318231E902590199316A84FF406
:1031E0008013179418941A961B951C951D93FEF73F
:1031F0001BFD28B1144C10212046FDF774FDFAE7A1
:103200004FF40070FEF7B0F8044628B10E4C1021C0
:103210002046FDF768FDFAE7FEF774FC42F21073F2
:10322000B0FBF3F0FDF770FC0420FDF783FCFEF724
:1032300071FE224621464FF0FF30FDF731FC2EB0E3
:1032400070BD00BF001002400004004801220200CF
:103250001248134A4FF4827310B580E80C004FF403
:10326000E062C2604FF40072002382613822836002
:1032700003614361C26103624362836207220363A5
:103280000823C2624363FEF7CFFE28B1054C10212C
:103290002046FDF728FDFAE710BD00BF64020020BC
:1032A0000030014000040048384BF0B5DA6C384F6C
:1032B000384D42F00402DA64DA6C8BB002F004029A
:1032C0000192019ADA6C42F08002DA64DA6C02F060
:1032D00080020292029ADA6C42F00102DA64DA6C3D
:1032E00002F001020392039ADA6C42F00202DA64FD
:1032F000DB6C03F002030493384600224FF40051C4
:10330000049BFDF7EBFC002248F218014FF09040BF
:10331000FDF7E4FC0022284641F2FC41FDF7DEFC0B
:10332000002401264FF4005305A93846059306965C
:1033300007940894FDF710FC40F2071305A94FF01D
:103340009040059306940794FDF706FC48F2180395
:1033500005A94FF090400593069607940894FDF751
:10336000FBFB40F6030305A9284605930694079442
:10337000FDF7F2FB41F2FC4305A9284605930696AA
:1033800007940894FDF7E8FB0BB0F0BD0010024075
:10339000000800480004004830B50A4D0C461023D0
:1033A000621AD2B2904202D8580080B230BD14F8EE
:1033B000012B82EAD312D2B235F8122082EA03231B
:1033C0009BB2EDE7503D000830B585B0030A8DF89B
:1033D0000D0003A902208DF80C30FFF7DDFF00225D
:1033E000030A8DF80F0010214FF090408DF80E3039
:1033F0008DF808208DF80920FDF770FC6423042265
:1034000003A91B48FEF761FE012802D007D3032859
:1034100009D1184C10212046FDF765FCFAE704217C
:103420001448FDF760FC0023114D8DF80C30642426
:103430009DF808303BB1012210214FF09040FDF77C
:103440004DFC05B030BD0094012302AA03A9284613
:10345000FEF7F9FE28B1074C10212046FDF743FC8A
:10346000FAE74FF400414FF09040FDF73CFCDFE7F6
:1034700064020020000400482DE9F041CE0004362B
:10348000F6B20746304690460D4600F079FB3B0AFF
:1034900004460370477001460220FFF77DFF030AD0
:1034A000A370013D062303FB0585E070A8F1060823
:1034B0000427454516D1002210214FF09040FDF71A
:1034C0000DFC6423324621461848FEF7FEFD012814
:1034D00002D01CD303281ED1154C10212046FDF725
:1034E00002FCFAE700203B182A5CDBB20130062818
:1034F000E254F8D12946FFF74FFFBB1DDBB2020AA9
:10350000E254234408375870FFB2063DD1E7042146
:103510000748FDF7E8FB4FF0904001221021FDF72E
:10352000DDFB2046BDE8F04100F032BB6402002024
:103530000004004870B588B005AC030A8DF815008A
:103540000E460220214615468DF81430FFF724FF61
:10355000030A8DF816308DF8170004230022E25478
:1035600001330C2BFBD1002210214FF09040FDF7CE
:10357000B5FB6422AB1D00929BB202AA2146114802
:10358000FEF761FE012802D007D303280CD10E4CB0
:1035900010212046FDF7A7FBFAE704210A48FDF7B2
:1035A000A2FB0023AB4207DB012210214FF0904029
:1035B000FDF794FB08B070BD02AA1A441279F254C8
:1035C0000133EFE76402002000040048000000001F
:1035D0002DE9F04F87B0FDF729FAFFF7B9FDFFF7A6
:1035E00063FEFFF735FE012210214FF09040FDF7FA
:1035F00075FB012280216848684DFDF76FFB0120B3
:10360000FFF77CFD0320FDF72BFA0120FFF776FD85
:10361000FC2301218DF8083002AA002308468DF80A
:1036200009308DF80A308DF80B308DF80C308DF89C
:103630000D30FFF721FF2E460120FFF75FFD0A2026
:10364000FDF70EFA08215448FDF74DFB0120FFF766
:1036500055FD012140F27750FFF7B6FE01214FF4EE
:10366000AC60FFF7B1FE08228DF812200A22042375
:103670008DF8132009228DF810308DF814200623C0
:103680000B228DF811308DF815200024984604ABDC
:103690003146185D0622FFF74DFF414908FB04F053
:1036A00000230F465A1903EB010E92F801C05A5D30
:1036B000023342EA0C22062B2EF80020F2D101340C
:1036C000062CE4D10C238DF804300E238DF8053040
:1036D000DFF8D4900D238DF806300F238DF80730D6
:1036E0004FF00008CA4601AB294613F8080006222D
:1036F000FFF720FF04FB08F10023F21803EB090099
:1037000092F801E0F25C023342EA0E22062B4252AA
:10371000F3D108F10108B8F1040FE4D10FF27009F8
:10372000D9E90089DFF884B0002437F8140007EEE7
:10373000900AF8EE677A013417EE900AFCF7ACFEB7
:1037400042464B46FCF7FCFEFDF70CF9122C4BF8F9
:10375000040BEAD10FF23809D9E90089114F00248E
:103760003AF8140007EE900AF8EE677A013417EE83
:10377000900AFCF791FE42464B46FCF7E1FEFDF74E
:10378000F1F80C2C47F8040BEAD155E7AFF30080B1
:103790002D431CEBE2361A3F00040048540200207F
:1037A00098000020C80200203C020020F401002004
:1037B000214B07B51A6E42F001021A661A6E02F02A
:1037C00001020092009A9A6D42F080529A659B6DB8
:1037D00003F0805301930320019BFDF74FF9002272
:1037E00011466FF00B00FDF75BF9002211466FF0F8
:1037F0000A00FDF755F9002211466FF00900FDF7A8
:103800004FF9002211466FF00400FDF749F900223C
:1038100011466FF00300FDF743F9002211466FF0E7
:103820000100FDF73DF9002211464FF0FF30FDF792
:1038300037F903B05DF804FB0010024000B50368DF
:103840001D4A934289B01BD11C4B1A6E42F4805220
:103850001A661B6E03F480530193019BE0230393CC
:103860000223049300230593032306930523079360
:1038700003A94FF09040FDF76FF909B05DF804FB24
:103880000F4A9342F9D10D4B0E489A6D42F4804293
:103890009A659B6D03F480430293029B4FF460434F
:1038A0000393022304930023059303230693052324
:1038B000079303A9DFE700BF00300140001002407A
:1038C00000380040000400487047FEE7FEE7FEE7CE
:1038D000FEE770477047704708B5FDF7B3F8BDE8DD
:1038E0000840FDF734B900000148FDF779BA00BF80
:1038F000300300200F49D1F8883043F47003C1F839
:1039000088300D4B1A68002042F001021A6098605E
:103910001A6822F0A85222F410221A604FF4805242
:10392000DA601A6822F480221A6098614FF000630E
:103930008B60704700ED00E00010024000F58661EA
:10394000D0F87004FFF7B2B800EB4113D0F8700460
:10395000D3F83C22FFF7D7B800EB4113D0F870043E
:10396000DA6BFFF708B9D0F87004FFF799B910B512
:1039700004460121D0F87004FFF780F9D4F87004F0
:10398000BDE81040FFF753B910B50446D0F87004F5
:10399000FFF777F9A36923B1024A136943F00603DD
:1039A000136110BD00ED00E0836910B5044633B12A
:1039B000064A136923F006031361FFF7C9FBD4F825
:1039C0007004BDE81040FFF765B900BF00ED00E0EE
:1039D00010B51C46D0F8980213462246FDF79BF915
:1039E00003289ABF014B185C022010BD903F0008CD
:1039F00008B5D0F89802FDF73BFC03289ABF024BAC
:103A0000185C022008BD00BF903F000808B5D0F840
:103A10009802FDF766FC03289ABF024B185C02204F
:103A200008BD00BF903F00080A06D0F8983245BF95
:103A300001F07F0103EB411303EB411393F82A00DC
:103A400058BF93F82A02704708B5D0F89802FDF7DE
:103A50004EF903289ABF024B185C022008BD00BF34
:103A6000903F000808B5D0F89802FDF7A2F90328A6
:103A70009ABF024B185C022008BD00BF903F0008AF
:103A800008B5D0F89802FDF77BF903289ABF024BDE
:103A9000185C022008BD00BF903F000810B5044626
:103AA00011B101290FD010BD836933B1FFF750FB6D
:103AB0000B4A136923F006031361D4F87004BDE8C0
:103AC0001040FFF7E7B8D0F87004FFF7DAF8A36901
:103AD00023B1034A136943F00603136110BD00BF0D
:103AE00000ED00E0DFF834D0002103E00C4B5B5820
:103AF000435004310B480C4B42189A42F6D30B4A00
:103B000002E0002342F8043B094B9A42F9D3FFF745
:103B1000F1FE00F011F8FFF75BFDFEE70000012069
:103B20009C3F000800000020680000206800002082
:103B3000A8070020FEE7000070B50D4E0D4CA41B39
:103B4000A4100025A54209D10B4E0C4C00F0F4F84E
:103B5000A41BA4100025A54205D170BD56F8253040
:103B600098470135EEE756F8253098470135F2E7DA
:103B7000943F0008943F0008943F0008983F0008D5
:103B8000024B0146186800F059B800BF040000203D
:103B9000024B0146186800F003B800BF0400002083
:103BA00038B50546002945D051F8043C0C1F002BC0
:103BB000B8BFE41800F0B0F81F4A1368104633B9D4
:103BC000636014602846BDE8384000F0A6B8A34200
:103BD0000CD921686218934204BF1A685B6863605D
:103BE00004BF521822600460ECE713465A680AB119
:103BF000A242FAD919685818A0420BD12068014492
:103C0000581882421960DDD1106852685A60014428
:103C10001960D7E702D90C232B60D3E7206821185D
:103C20008A4204BF11685268626004BF09182160AB
:103C30005C60C7E738BD00BF8800002070B5CD1CB0
:103C400025F0030508350C2D38BF0C25002D064640
:103C500001DBA94203D90C233360002070BD00F0C2
:103C60005BF8234A1468214691B9224C23681BB99A
:103C7000304600F041F820602946304600F03CF81C
:103C8000431C26D10C233360304600F046F8E4E7AD
:103C90000B685B1B1AD40B2B0FD90B60CD50CC18C3
:103CA000304600F03AF804F10B00231D20F0070025
:103CB000C31A1BD05A42E25070BD8C420DBF6368DC
:103CC0004B686360136018BF0C46E9E70C4649680F
:103CD000CAE7C41C24F00304A04205D0211A3046D0
:103CE00000F00AF80130CDD02560D9E770BD00BFE3
:103CF000880000208C00002038B5064C00230546C3
:103D00000846236000F00AF8431C02D1236803B17F
:103D10002B6038BDA407002070477047044B19681A
:103D2000024609B903491960186802441A607047CD
:103D300090000020A8070020F8B500BFF8BC08BC20
:103D40009E467047F8B500BFF8BC08BC9E46704759
:103D5000000099C5ABCE320BCFD8561D6416FDD3EB
:103D600007F49E31AC3A35FFC82C51E963E2FA27DB
:103D700097AD0E683C63A5A65875C1B0F3BB6A7ECB
:103D80009059099C3B97A2525F81C644F44F6D8ABB
:103D90002E5BB79E85951C50E18378464A4DD388AB
:103DA00029AFB06A82611BA4E6777FB24DB9D47C9B
:103DB000B9F6203312388BFD762EEFEBDDE044258B
:103DC000BE0227C715CC8C0971DAE81FDA1443D17B
:103DD000C5F35C366E3DF7F80A2B93EEA1E538206B
:103DE000C2075BC269C9F00C0DDF941AA6113FD45B
:103DF000525ECB9BF99060559D8604433648AF8D4B
:103E000055AACC6FFE6467A19A7203B731BCA8793A
:103E1000EBA8726D4066D9A32470BDB58FBE167B2A
:103E2000EC5C75994792DE572384BA41884A118F1A
:103E30007C05E5C0D7CB4E0EB3DD2A18181381D60A
:103E40007BF1E234D03F49FAB4292DEC1FE78622FA
:103E500013A28A67B86C21A9DC7A45BF77B4EE71EA
:103E600014568D93BF98265DDB8E424B7040E985DA
:103E7000840F1DCA2FC1B6044BD7D212E01979DCCA
:103E800083FB1A3E2835B1F04C23D5E6E7ED7E28BA
:103E90003DF9A43C96370FF2F2216BE459EFC02AAA
:103EA0003A0DA3C891C30806F5D56C105E1BC7DE9A
:103EB000AA543391019A985F658CFC49CE4257878A
:103EC000ADA03465066E9FAB6278FBBDC9B650737A
:103ED000D6514F947D9FE45A1989804CB2472B826A
:103EE000D1A548607A6BE3AE1E7D87B8B5B32C765A
:103EF00041FCD839EA3273F78E2417E125EABC2F4A
:103F00004608DFCDEDC6740389D01015221EBBDB39
:103F1000F80A61CF53C4CA0137D2AE179C1C05D929
:103F2000FFFE663B5430CDF53026A9E39BE8022D19
:103F30006FA7F662C4695DACA07F39BA0BB1927409
:103F40006853F196C39D5A58A78B3E4E0C459580F9
:103F50000000000000000000010203040607080939
:103F6000A0860100400D0300801A060000350C00F9
:103F700040420F0080841E0000093D0000127A00BC
:103F80000024F40000366E010048E801006CDC02F9
:043F90000002010228
:043F9400B50100086B
:043F9800910100088B
:103F9C0000093D00080000200000000000000000A7
:103FAC000000000000000000000000000000000005
:103FBC0000000000000000000000000000000000F5
:103FCC0000000000000000000000000000000000E5
:103FDC0000000000000000000000000000000000D5
:103FEC0000000000000000000000000000000000C5
:083FFC000000000000000000BD
:0400000508003AE5D0
:00000001FF
